{"contracts/Patika.sol":{"Patika":{"abi":[{"inputs":[],"stateMutability":"nonpayable","type":"constructor"},{"inputs":[],"name":"ApprovalCallerNotOwnerNorApproved","type":"error"},{"inputs":[],"name":"ApprovalQueryForNonexistentToken","type":"error"},{"inputs":[],"name":"BalanceQueryForZeroAddress","type":"error"},{"inputs":[],"name":"MintERC2309QuantityExceedsLimit","type":"error"},{"inputs":[],"name":"MintToZeroAddress","type":"error"},{"inputs":[],"name":"MintZeroQuantity","type":"error"},{"inputs":[],"name":"OwnerQueryForNonexistentToken","type":"error"},{"inputs":[],"name":"OwnershipNotInitializedForExtraData","type":"error"},{"inputs":[],"name":"TransferCallerNotOwnerNorApproved","type":"error"},{"inputs":[],"name":"TransferFromIncorrectOwner","type":"error"},{"inputs":[],"name":"TransferToNonERC721ReceiverImplementer","type":"error"},{"inputs":[],"name":"TransferToZeroAddress","type":"error"},{"inputs":[],"name":"URIQueryForNonexistentToken","type":"error"},{"anonymous":false,"inputs":[{"indexed":true,"internalType":"address","name":"owner","type":"address"},{"indexed":true,"internalType":"address","name":"approved","type":"address"},{"indexed":true,"internalType":"uint256","name":"tokenId","type":"uint256"}],"name":"Approval","type":"event"},{"anonymous":false,"inputs":[{"indexed":true,"internalType":"address","name":"owner","type":"address"},{"indexed":true,"internalType":"address","name":"operator","type":"address"},{"indexed":false,"internalType":"bool","name":"approved","type":"bool"}],"name":"ApprovalForAll","type":"event"},{"anonymous":false,"inputs":[{"indexed":true,"internalType":"uint256","name":"fromTokenId","type":"uint256"},{"indexed":false,"internalType":"uint256","name":"toTokenId","type":"uint256"},{"indexed":true,"internalType":"address","name":"from","type":"address"},{"indexed":true,"internalType":"address","name":"to","type":"address"}],"name":"ConsecutiveTransfer","type":"event"},{"anonymous":false,"inputs":[{"indexed":true,"internalType":"address","name":"previousOwner","type":"address"},{"indexed":true,"internalType":"address","name":"newOwner","type":"address"}],"name":"OwnershipTransferred","type":"event"},{"anonymous":false,"inputs":[{"indexed":true,"internalType":"address","name":"from","type":"address"},{"indexed":true,"internalType":"address","name":"to","type":"address"},{"indexed":true,"internalType":"uint256","name":"tokenId","type":"uint256"}],"name":"Transfer","type":"event"},{"inputs":[],"name":"ALLOW_LIST_MAX","outputs":[{"internalType":"uint256","name":"","type":"uint256"}],"stateMutability":"view","type":"function"},{"inputs":[],"name":"ALLOW_LIST_PRICE","outputs":[{"internalType":"uint256","name":"","type":"uint256"}],"stateMutability":"view","type":"function"},{"inputs":[],"name":"CONTRACT_URI","outputs":[{"internalType":"string","name":"","type":"string"}],"stateMutability":"view","type":"function"},{"inputs":[],"name":"MAX_SUPPLY","outputs":[{"internalType":"uint256","name":"","type":"uint256"}],"stateMutability":"view","type":"function"},{"inputs":[],"name":"PUBLIC_MINT_LIMIT","outputs":[{"internalType":"uint256","name":"","type":"uint256"}],"stateMutability":"view","type":"function"},{"inputs":[],"name":"PUBLIC_MINT_LIMIT_TXN","outputs":[{"internalType":"uint256","name":"","type":"uint256"}],"stateMutability":"view","type":"function"},{"inputs":[],"name":"PUBLIC_PRICE","outputs":[{"internalType":"uint256","name":"","type":"uint256"}],"stateMutability":"view","type":"function"},{"inputs":[],"name":"TEAM_MINT_MAX","outputs":[{"internalType":"uint256","name":"","type":"uint256"}],"stateMutability":"view","type":"function"},{"inputs":[],"name":"TOTAL_SUPPLY_TEAM","outputs":[{"internalType":"uint256","name":"","type":"uint256"}],"stateMutability":"view","type":"function"},{"inputs":[{"internalType":"bytes32[]","name":"proof","type":"bytes32[]"}],"name":"allowListMint","outputs":[],"stateMutability":"payable","type":"function"},{"inputs":[],"name":"allowListSale","outputs":[{"internalType":"bool","name":"","type":"bool"}],"stateMutability":"view","type":"function"},{"inputs":[{"internalType":"address","name":"to","type":"address"},{"internalType":"uint256","name":"tokenId","type":"uint256"}],"name":"approve","outputs":[],"stateMutability":"payable","type":"function"},{"inputs":[{"internalType":"address","name":"owner","type":"address"}],"name":"balanceOf","outputs":[{"internalType":"uint256","name":"","type":"uint256"}],"stateMutability":"view","type":"function"},{"inputs":[],"name":"contractURI","outputs":[{"internalType":"string","name":"","type":"string"}],"stateMutability":"view","type":"function"},{"inputs":[{"internalType":"uint256","name":"tokenId","type":"uint256"}],"name":"getApproved","outputs":[{"internalType":"address","name":"","type":"address"}],"stateMutability":"view","type":"function"},{"inputs":[],"name":"hiddenURI","outputs":[{"internalType":"string","name":"","type":"string"}],"stateMutability":"view","type":"function"},{"inputs":[{"internalType":"address","name":"owner","type":"address"},{"internalType":"address","name":"operator","type":"address"}],"name":"isApprovedForAll","outputs":[{"internalType":"bool","name":"","type":"bool"}],"stateMutability":"view","type":"function"},{"inputs":[],"name":"merkleRoot","outputs":[{"internalType":"bytes32","name":"","type":"bytes32"}],"stateMutability":"view","type":"function"},{"inputs":[{"internalType":"uint256","name":"quantity","type":"uint256"},{"internalType":"address","name":"receiver","type":"address"}],"name":"mintToUser","outputs":[],"stateMutability":"nonpayable","type":"function"},{"inputs":[],"name":"name","outputs":[{"internalType":"string","name":"","type":"string"}],"stateMutability":"view","type":"function"},{"inputs":[{"internalType":"address","name":"","type":"address"}],"name":"numUserMints","outputs":[{"internalType":"uint256","name":"","type":"uint256"}],"stateMutability":"view","type":"function"},{"inputs":[],"name":"owner","outputs":[{"internalType":"address","name":"","type":"address"}],"stateMutability":"view","type":"function"},{"inputs":[{"internalType":"uint256","name":"tokenId","type":"uint256"}],"name":"ownerOf","outputs":[{"internalType":"address","name":"","type":"address"}],"stateMutability":"view","type":"function"},{"inputs":[],"name":"paused","outputs":[{"internalType":"bool","name":"","type":"bool"}],"stateMutability":"view","type":"function"},{"inputs":[{"internalType":"uint256","name":"quantity","type":"uint256"}],"name":"publicMint","outputs":[],"stateMutability":"payable","type":"function"},{"inputs":[],"name":"publicSale","outputs":[{"internalType":"bool","name":"","type":"bool"}],"stateMutability":"view","type":"function"},{"inputs":[],"name":"renounceOwnership","outputs":[],"stateMutability":"nonpayable","type":"function"},{"inputs":[{"internalType":"bool","name":"_revealed","type":"bool"},{"internalType":"string","name":"_baseUri","type":"string"}],"name":"revealCollection","outputs":[],"stateMutability":"nonpayable","type":"function"},{"inputs":[],"name":"revealed","outputs":[{"internalType":"bool","name":"","type":"bool"}],"stateMutability":"view","type":"function"},{"inputs":[],"name":"revealedURI","outputs":[{"internalType":"string","name":"","type":"string"}],"stateMutability":"view","type":"function"},{"inputs":[{"internalType":"address","name":"from","type":"address"},{"internalType":"address","name":"to","type":"address"},{"internalType":"uint256","name":"tokenId","type":"uint256"}],"name":"safeTransferFrom","outputs":[],"stateMutability":"payable","type":"function"},{"inputs":[{"internalType":"address","name":"from","type":"address"},{"internalType":"address","name":"to","type":"address"},{"internalType":"uint256","name":"tokenId","type":"uint256"},{"internalType":"bytes","name":"_data","type":"bytes"}],"name":"safeTransferFrom","outputs":[],"stateMutability":"payable","type":"function"},{"inputs":[{"internalType":"bool","name":"_state","type":"bool"}],"name":"setAllowListEnabled","outputs":[],"stateMutability":"nonpayable","type":"function"},{"inputs":[{"internalType":"uint256","name":"_allowListMax","type":"uint256"}],"name":"setAllowListMax","outputs":[],"stateMutability":"nonpayable","type":"function"},{"inputs":[{"internalType":"address","name":"operator","type":"address"},{"internalType":"bool","name":"approved","type":"bool"}],"name":"setApprovalForAll","outputs":[],"stateMutability":"nonpayable","type":"function"},{"inputs":[{"internalType":"string","name":"_baseUri","type":"string"}],"name":"setBaseURI","outputs":[],"stateMutability":"nonpayable","type":"function"},{"inputs":[{"internalType":"string","name":"_contractURI","type":"string"}],"name":"setContractURI","outputs":[],"stateMutability":"nonpayable","type":"function"},{"inputs":[{"internalType":"uint256","name":"_devPercentage","type":"uint256"}],"name":"setDevWithdrawCut","outputs":[],"stateMutability":"nonpayable","type":"function"},{"inputs":[{"internalType":"string","name":"_hiddenMetadataUri","type":"string"}],"name":"setHiddenMetadataURI","outputs":[],"stateMutability":"nonpayable","type":"function"},{"inputs":[{"internalType":"bytes32","name":"_merkleRoot","type":"bytes32"}],"name":"setMerkleRoot","outputs":[],"stateMutability":"nonpayable","type":"function"},{"inputs":[{"internalType":"bool","name":"_state","type":"bool"}],"name":"setPaused","outputs":[],"stateMutability":"nonpayable","type":"function"},{"inputs":[{"internalType":"bool","name":"_state","type":"bool"}],"name":"setPublicEnabled","outputs":[],"stateMutability":"nonpayable","type":"function"},{"inputs":[{"internalType":"uint256","name":"_publicPrice","type":"uint256"}],"name":"setPublicPrice","outputs":[],"stateMutability":"nonpayable","type":"function"},{"inputs":[{"internalType":"bool","name":"_state","type":"bool"}],"name":"setRevealed","outputs":[],"stateMutability":"nonpayable","type":"function"},{"inputs":[{"internalType":"uint256","name":"_teamMintMax","type":"uint256"}],"name":"setTeamMintMax","outputs":[],"stateMutability":"nonpayable","type":"function"},{"inputs":[{"internalType":"address","name":"_teamWallet","type":"address"}],"name":"setTeamWalletAddress","outputs":[],"stateMutability":"nonpayable","type":"function"},{"inputs":[{"internalType":"bytes4","name":"interfaceId","type":"bytes4"}],"name":"supportsInterface","outputs":[{"internalType":"bool","name":"","type":"bool"}],"stateMutability":"view","type":"function"},{"inputs":[],"name":"symbol","outputs":[{"internalType":"string","name":"","type":"string"}],"stateMutability":"view","type":"function"},{"inputs":[{"internalType":"uint256","name":"quantity","type":"uint256"}],"name":"teamMint","outputs":[],"stateMutability":"payable","type":"function"},{"inputs":[],"name":"teamWallet","outputs":[{"internalType":"address","name":"","type":"address"}],"stateMutability":"view","type":"function"},{"inputs":[{"internalType":"uint256","name":"_tokenId","type":"uint256"}],"name":"tokenURI","outputs":[{"internalType":"string","name":"","type":"string"}],"stateMutability":"view","type":"function"},{"inputs":[],"name":"totalSupply","outputs":[{"internalType":"uint256","name":"","type":"uint256"}],"stateMutability":"view","type":"function"},{"inputs":[{"internalType":"address","name":"from","type":"address"},{"internalType":"address","name":"to","type":"address"},{"internalType":"uint256","name":"tokenId","type":"uint256"}],"name":"transferFrom","outputs":[],"stateMutability":"payable","type":"function"},{"inputs":[{"internalType":"address","name":"newOwner","type":"address"}],"name":"transferOwnership","outputs":[],"stateMutability":"nonpayable","type":"function"},{"inputs":[{"internalType":"address","name":"","type":"address"}],"name":"userMintedAllowList","outputs":[{"internalType":"bool","name":"","type":"bool"}],"stateMutability":"view","type":"function"},{"inputs":[{"internalType":"address","name":"_address","type":"address"},{"internalType":"bytes32[]","name":"_proof","type":"bytes32[]"},{"internalType":"bytes32","name":"_root","type":"bytes32"}],"name":"verifyPublicAllowList","outputs":[{"internalType":"bool","name":"","type":"bool"}],"stateMutability":"pure","type":"function"},{"inputs":[{"internalType":"address","name":"_owner","type":"address"}],"name":"walletOfOwner","outputs":[{"internalType":"uint256[]","name":"","type":"uint256[]"}],"stateMutability":"view","type":"function"},{"inputs":[],"name":"withdraw","outputs":[],"stateMutability":"payable","type":"function"}],"evm":{"bytecode":{"linkReferences":{},"object":"7f18005ffd485d367fd31307e229607a9b05802e8b57c418d4c818a47152c02b836009556005600a819055600b5566038d7ea4c68000600c5560e0604052603560808181529062002d1160a039600f906200005b90826200023d565b5060405180606001604052806035815260200162002d11603591396010906200008590826200023d565b50601180546001600160c01b0319167715f01d94d5416dcc42081016fcd1669c5c0fed1100010001179055610fa0601255348015620000c357600080fd5b5060405180604001604052806006815260200165506174696b6160d01b8152506040518060400160405280600381526020016250544b60e81b81525062000119620001136200014460201b60201c565b62000148565b60036200012783826200023d565b5060046200013682826200023d565b505060006001555062000309565b3390565b600080546001600160a01b038381166001600160a01b0319831681178455604051919092169283917f8be0079c531659141344cd1fd0a4f28419497f9722a3daafe3b4186f6b6457e09190a35050565b634e487b7160e01b600052604160045260246000fd5b600181811c90821680620001c357607f821691505b602082108103620001e457634e487b7160e01b600052602260045260246000fd5b50919050565b601f8211156200023857600081815260208120601f850160051c81016020861015620002135750805b601f850160051c820191505b8181101562000234578281556001016200021f565b5050505b505050565b81516001600160401b0381111562000259576200025962000198565b62000271816200026a8454620001ae565b84620001ea565b602080601f831160018114620002a95760008415620002905750858301515b600019600386901b1c1916600185901b17855562000234565b600085815260208120601f198616915b82811015620002da57888601518255948401946001909101908401620002b9565b5085821015620002f95787850151600019600388901b60f8161c191681555b5050505050600190811b01905550565b6129f880620003196000396000f3fe6080604052600436106103815760003560e01c80636352211e116101d157806395d89b4111610102578063c6275255116100a0578063e985e9c51161006f578063e985e9c51461098d578063efeadb6d146109ad578063f2fde38b146109cd578063f7e8d6ea146109ed57600080fd5b8063c627525514610918578063c87b56dd14610938578063e0a8085314610958578063e8a3d4851461097857600080fd5b8063b06cfa64116100dc578063b06cfa64146108b5578063b88d4fde146108d5578063bceae77b1461053c578063c1189382146108e857600080fd5b806395d89b4114610865578063a22cb4651461087a578063ad570dd51461089a57600080fd5b80637af3a1af1161016f5780638cc54e7f116101495780638cc54e7f146107f25780638da5cb5b146108075780639007bd7214610825578063938e3d7b1461084557600080fd5b80637af3a1af1461079c5780637c146efc146107bc5780637cb64759146107d257600080fd5b8063715018a6116101ab578063715018a614610724578063763ea95f146107395780637a8ffb321461074f5780637aeb72421461076f57600080fd5b80636352211e146106ce5780636b39fca4146106ee57806370a082311461070457600080fd5b80632fecf20b116102b657806351830227116102545780635c975abb116102235780635c975abb1461066b5780635cfe6b84146106855780635ed3e25e14610698578063611f3f10146106b857600080fd5b806351830227146105ef57806355f804b31461060e57806356b4f6731461062e578063599270441461064357600080fd5b80633ccfd60b116102905780633ccfd60b1461058757806342842e0e1461058f578063438b6300146105a2578063512507c6146105cf57600080fd5b80632fecf20b1461053c57806332cb6b0c1461055157806333bc1c5c1461056657600080fd5b806318160ddd116103235780632c4b2334116102fd5780632c4b2334146104e05780632db11544146105005780632eb4a7ab146105135780632fbba1151461052957600080fd5b806318160ddd1461048a57806323b872dd146104ad578063281905c8146104c057600080fd5b8063081812fc1161035f578063081812fc146103fd578063095ea7b3146104355780630f15ad8d1461044a57806316c38b3c1461046a57600080fd5b806301dd38a21461038657806301ffc9a7146103bb57806306fdde03146103db575b600080fd5b34801561039257600080fd5b506103a66103a1366004612227565b610a02565b60405190151581526020015b60405180910390f35b3480156103c757600080fd5b506103a66103d6366004612294565b610a50565b3480156103e757600080fd5b506103f0610aa2565b6040516103b29190612301565b34801561040957600080fd5b5061041d610418366004612314565b610b34565b6040516001600160a01b0390911681526020016103b2565b61044861044336600461232d565b610b78565b005b34801561045657600080fd5b50610448610465366004612314565b610c18565b34801561047657600080fd5b50610448610485366004612367565b610c25565b34801561049657600080fd5b50600254600154035b6040519081526020016103b2565b6104486104bb366004612382565b610c40565b3480156104cc57600080fd5b506011546103a69062010000900460ff1681565b3480156104ec57600080fd5b506104486104fb3660046123be565b610dd9565b61044861050e366004612314565b610e0f565b34801561051f57600080fd5b5061049f60095481565b610448610537366004612314565b610fcb565b34801561054857600080fd5b5061049f600a81565b34801561055d57600080fd5b5061049f601481565b34801561057257600080fd5b506011546103a6906301000000900460ff1681565b610448611174565b61044861059d366004612382565b6112e6565b3480156105ae57600080fd5b506105c26105bd3660046123be565b611306565b6040516103b291906123d9565b3480156105db57600080fd5b506104486105ea366004612495565b6113e5565b3480156105fb57600080fd5b506011546103a690610100900460ff1681565b34801561061a57600080fd5b50610448610629366004612495565b6113f9565b34801561063a57600080fd5b506103f061140d565b34801561064f57600080fd5b5060115461041d9064010000000090046001600160a01b031681565b34801561067757600080fd5b506011546103a69060ff1681565b6104486106933660046124ca565b61149b565b3480156106a457600080fd5b506104486106b33660046124ff565b61164b565b3480156106c457600080fd5b5061049f600c5481565b3480156106da57600080fd5b5061041d6106e9366004612314565b611672565b3480156106fa57600080fd5b5061049f600b5481565b34801561071057600080fd5b5061049f61071f3660046123be565b61167d565b34801561073057600080fd5b506104486116cc565b34801561074557600080fd5b5061049f600d5481565b34801561075b57600080fd5b5061044861076a366004612314565b6116e0565b34801561077b57600080fd5b5061049f61078a3660046123be565b60136020526000908152604090205481565b3480156107a857600080fd5b506104486107b7366004612367565b6116ed565b3480156107c857600080fd5b5061049f600a5481565b3480156107de57600080fd5b506104486107ed366004612314565b611713565b3480156107fe57600080fd5b506103f0611720565b34801561081357600080fd5b506000546001600160a01b031661041d565b34801561083157600080fd5b5061044861084036600461254d565b61172d565b34801561085157600080fd5b50610448610860366004612495565b6117bb565b34801561087157600080fd5b506103f06117cf565b34801561088657600080fd5b50610448610895366004612579565b6117de565b3480156108a657600080fd5b5061049f66038d7ea4c6800081565b3480156108c157600080fd5b506104486108d0366004612314565b61184a565b6104486108e33660046125a3565b611857565b3480156108f457600080fd5b506103a66109033660046123be565b60146020526000908152604090205460ff1681565b34801561092457600080fd5b50610448610933366004612314565b61189b565b34801561094457600080fd5b506103f0610953366004612314565b6118a8565b34801561096457600080fd5b50610448610973366004612367565b6119f0565b34801561098457600080fd5b506103f0611a12565b34801561099957600080fd5b506103a66109a836600461261f565b611a21565b3480156109b957600080fd5b506104486109c8366004612367565b611a4f565b3480156109d957600080fd5b506104486109e83660046123be565b611a73565b3480156109f957600080fd5b506103f0611aec565b6040516bffffffffffffffffffffffff19606085901b166020820152600090610a4890849084906034015b60405160208183030381529060405280519060200120611af9565b949350505050565b60006301ffc9a760e01b6001600160e01b031983161480610a8157506380ac58cd60e01b6001600160e01b03198316145b80610a9c5750635b5e139f60e01b6001600160e01b03198316145b92915050565b606060038054610ab190612649565b80601f0160208091040260200160405190810160405280929190818152602001828054610add90612649565b8015610b2a5780601f10610aff57610100808354040283529160200191610b2a565b820191906000526020600020905b815481529060010190602001808311610b0d57829003601f168201915b5050505050905090565b6000610b3f82611b0f565b610b5c576040516333d1c03960e21b815260040160405180910390fd5b506000908152600760205260409020546001600160a01b031690565b6000610b8382611672565b9050336001600160a01b03821614610bbc57610b9f8133611a21565b610bbc576040516367d9dca160e11b815260040160405180910390fd5b60008281526007602052604080822080546001600160a01b0319166001600160a01b0387811691821790925591518593918516917f8c5be1e5ebec7d5bd14f71427d1e84f3dd0314c0f7b2291e5b200ac8c7c3b92591a4505050565b610c20611b37565b600b55565b610c2d611b37565b6011805460ff1916911515919091179055565b6000610c4b82611b91565b9050836001600160a01b0316816001600160a01b031614610c7e5760405162a1148160e81b815260040160405180910390fd5b60008281526007602052604090208054338082146001600160a01b03881690911417610ccb57610cae8633611a21565b610ccb57604051632ce44b5f60e11b815260040160405180910390fd5b6001600160a01b038516610cf257604051633a954ecd60e21b815260040160405180910390fd5b8015610cfd57600082555b6001600160a01b038681166000908152600660205260408082208054600019019055918716808252919020805460010190554260a01b17600160e11b17600085815260056020526040812091909155600160e11b84169003610d8f57600184016000818152600560205260408120549003610d8d576001548114610d8d5760008181526005602052604090208490555b505b83856001600160a01b0316876001600160a01b03167fddf252ad1be2c89b69c2b068fc378daa952ba7f163c4a11628f55a4df523b3ef60405160405180910390a45b505050505050565b610de1611b37565b601180546001600160a01b0390921664010000000002640100000000600160c01b0319909216919091179055565b601154819060ff1615610e3d5760405162461bcd60e51b8152600401610e3490612683565b60405180910390fd5b601481610e4d6002546001540390565b610e5791906126c5565b1115610e755760405162461bcd60e51b8152600401610e34906126d8565b323314610e945760405162461bcd60e51b8152600401610e3490612707565b6011546301000000900460ff16610ee45760405162461bcd60e51b81526020600482015260146024820152735075626c69632073616c6520696e61637469766560601b6044820152606401610e34565b600a821115610f295760405162461bcd60e51b81526020600482015260116024820152700a2eac2dce8d2e8f240e8dede40d0d2ced607b1b6044820152606401610e34565b600c5433600090815260136020526040902054600a610f4885836126c5565b1115610f8c5760405162461bcd60e51b8152602060048201526013602482015272155cd95c881b585e081b5a5b9d081b1a5b5a5d606a1b6044820152606401610e34565b610f9e610f998584612734565b611bff565b610fa884826126c5565b33600081815260136020526040902091909155610fc59085611cde565b50505050565b601154819060ff1615610ff05760405162461bcd60e51b8152600401610e3490612683565b6014816110006002546001540390565b61100a91906126c5565b11156110285760405162461bcd60e51b8152600401610e34906126d8565b3233146110475760405162461bcd60e51b8152600401610e3490612707565b60115464010000000090046001600160a01b0316331461109d5760405162461bcd60e51b81526020600482015260116024820152705465616d206d696e74696e67206f6e6c7960781b6044820152606401610e34565b600b5482600d546110ae91906126c5565b11156110f15760405162461bcd60e51b8152602060048201526012602482015271139bc81d19585b481b5a5b9d1cc81b19599d60721b6044820152606401610e34565b60056111006002546001540390565b101561114e5760405162461bcd60e51b815260206004820152601c60248201527f5465616d206d696e7473206166746572207075626c69632073616c65000000006044820152606401610e34565b81600d600082825461116091906126c5565b9091555061117090503383611cde565b5050565b61117c611b37565b60125447906000907311c0a0ffb68a455a0d7da100803c1becf82b4ab590612710906111a89085612734565b6111b29190612761565b604051600081818185875af1925050503d80600081146111ee576040519150601f19603f3d011682016040523d82523d6000602084013e6111f3565b606091505b505090508061123a5760405162461bcd60e51b815260206004820152601360248201527211195d881d1c985b9cd9995c8819985a5b1959606a1b6044820152606401610e34565b6011546040516401000000009091046001600160a01b0316904790600081818185875af1925050503d806000811461128e576040519150601f19603f3d011682016040523d82523d6000602084013e611293565b606091505b505080915050806111705760405162461bcd60e51b815260206004820181905260248201527f5465616d202872656d61696e696e6729207472616e73666572206661696c65646044820152606401610e34565b61130183838360405180602001604052806000815250611857565b505050565b606060006113138361167d565b905060008167ffffffffffffffff81111561133057611330612160565b604051908082528060200260200182016040528015611359578160200160208202803683370190505b509050600160005b8381108015611371575060148211155b156113db57600061138183611672565b9050866001600160a01b0316816001600160a01b0316036113c857828483815181106113af576113af612775565b6020908102919091010152816113c48161278b565b9250505b826113d28161278b565b93505050611361565b5090949350505050565b6113ed611b37565b600f61117082826127ea565b611401611b37565b600e61117082826127ea565b6010805461141a90612649565b80601f016020809104026020016040519081016040528092919081815260200182805461144690612649565b80156114935780601f1061146857610100808354040283529160200191611493565b820191906000526020600020905b81548152906001019060200180831161147657829003601f168201915b505050505081565b60115460019060ff16156114c15760405162461bcd60e51b8152600401610e3490612683565b6014816114d16002546001540390565b6114db91906126c5565b11156114f95760405162461bcd60e51b8152600401610e34906126d8565b3233146115185760405162461bcd60e51b8152600401610e3490612707565b60115462010000900460ff166115705760405162461bcd60e51b815260206004820152601860248201527f616c6c6f77204c6973742073616c6520696e61637469766500000000000000006044820152606401610e34565b61157c82600954611cf8565b6115b95760405162461bcd60e51b815260206004820152600e60248201526d155cd95c881b9bdd081bdb8815d360921b6044820152606401610e34565b3360009081526014602052604090205466038d7ea4c680009060ff161561161b5760405162461bcd60e51b8152602060048201526016602482015275155cd95c88185b1c9958591e481b5a5b9d19590815d360521b6044820152606401610e34565b61162481611bff565b336000818152601460205260409020805460ff191660019081179091556113019190611cde565b611653611b37565b6011805461ff00191661010084151502179055600e61130182826127ea565b6000610a9c82611b91565b60006001600160a01b0382166116a6576040516323d3ad8160e21b815260040160405180910390fd5b506001600160a01b031660009081526006602052604090205467ffffffffffffffff1690565b6116d4611b37565b6116de6000611d26565b565b6116e8611b37565b600a55565b6116f5611b37565b6011805491151563010000000263ff00000019909216919091179055565b61171b611b37565b600955565b600f805461141a90612649565b611735611b37565b601154829060ff161561175a5760405162461bcd60e51b8152600401610e3490612683565b60148161176a6002546001540390565b61177491906126c5565b11156117925760405162461bcd60e51b8152600401610e34906126d8565b3233146117b15760405162461bcd60e51b8152600401610e3490612707565b6113018284611cde565b6117c3611b37565b601061117082826127ea565b606060048054610ab190612649565b3360008181526008602090815260408083206001600160a01b03871680855290835292819020805460ff191686151590811790915590519081529192917f17307eab39ab6107e8899845ad3d59bd9653f200f220920489ca2b5937696c31910160405180910390a35050565b611852611b37565b601255565b611862848484610c40565b6001600160a01b0383163b15610fc55761187e84848484611d76565b610fc5576040516368d2bf6b60e11b815260040160405180910390fd5b6118a3611b37565b600c55565b60606118b382611b0f565b6119175760405162461bcd60e51b815260206004820152602f60248201527f4552433732314d657461646174613a2055524920717565727920666f72206e6f60448201526e3732bc34b9ba32b73a103a37b5b2b760891b6064820152608401610e34565b601154610100900460ff161561195957600e61193283611e61565b6040516020016119439291906128aa565b6040516020818303038152906040529050919050565b600f805461196690612649565b80601f016020809104026020016040519081016040528092919081815260200182805461199290612649565b80156119df5780601f106119b4576101008083540402835291602001916119df565b820191906000526020600020905b8154815290600101906020018083116119c257829003601f168201915b50505050509050919050565b919050565b6119f8611b37565b601180549115156101000261ff0019909216919091179055565b606060108054610ab190612649565b6001600160a01b03918216600090815260086020908152604080832093909416825291909152205460ff1690565b611a57611b37565b60118054911515620100000262ff000019909216919091179055565b611a7b611b37565b6001600160a01b038116611ae05760405162461bcd60e51b815260206004820152602660248201527f4f776e61626c653a206e6577206f776e657220697320746865207a65726f206160448201526564647265737360d01b6064820152608401610e34565b611ae981611d26565b50565b600e805461141a90612649565b600082611b068584611f62565b14949350505050565b600060015482108015610a9c575050600090815260056020526040902054600160e01b161590565b6000546001600160a01b031633146116de5760405162461bcd60e51b815260206004820181905260248201527f4f776e61626c653a2063616c6c6572206973206e6f7420746865206f776e65726044820152606401610e34565b600081600154811015611be65760008181526005602052604081205490600160e01b82169003611be4575b80600003611bdd575060001901600081815260056020526040902054611bbc565b9392505050565b505b604051636f96cda160e11b815260040160405180910390fd5b80341115611c9857600033611c148334612941565b604051600081818185875af1925050503d8060008114611c50576040519150601f19603f3d011682016040523d82523d6000602084013e611c55565b606091505b50509050806111705760405162461bcd60e51b815260206004820152600f60248201526e151c985b9cd9995c8819985a5b1959608a1b6044820152606401610e34565b80341015611ae95760405162461bcd60e51b8152602060048201526013602482015272139bdd08195b9bdd59da08115512081cd95b9d606a1b6044820152606401610e34565b611170828260405180602001604052806000815250611faf565b6040516bffffffffffffffffffffffff193360601b166020820152600090611bdd9084908490603401610a2d565b600080546001600160a01b038381166001600160a01b0319831681178455604051919092169283917f8be0079c531659141344cd1fd0a4f28419497f9722a3daafe3b4186f6b6457e09190a35050565b604051630a85bd0160e11b81526000906001600160a01b0385169063150b7a0290611dab903390899088908890600401612954565b6020604051808303816000875af1925050508015611de6575060408051601f3d908101601f19168201909252611de391810190612991565b60015b611e44573d808015611e14576040519150601f19603f3d011682016040523d82523d6000602084013e611e19565b606091505b508051600003611e3c576040516368d2bf6b60e11b815260040160405180910390fd5b805181602001fd5b6001600160e01b031916630a85bd0160e11b149050949350505050565b606081600003611e885750506040805180820190915260018152600360fc1b602082015290565b8160005b8115611eb25780611e9c8161278b565b9150611eab9050600a83612761565b9150611e8c565b60008167ffffffffffffffff811115611ecd57611ecd612160565b6040519080825280601f01601f191660200182016040528015611ef7576020820181803683370190505b5090505b8415610a4857611f0c600183612941565b9150611f19600a866129ae565b611f249060306126c5565b60f81b818381518110611f3957611f39612775565b60200101906001600160f81b031916908160001a905350611f5b600a86612761565b9450611efb565b600081815b8451811015611fa757611f9382868381518110611f8657611f86612775565b602002602001015161201c565b915080611f9f8161278b565b915050611f67565b509392505050565b611fb9838361204b565b6001600160a01b0383163b15611301576001548281035b611fe36000868380600101945086611d76565b612000576040516368d2bf6b60e11b815260040160405180910390fd5b818110611fd057816001541461201557600080fd5b5050505050565b6000818310612038576000828152602084905260409020611bdd565b6000838152602083905260409020611bdd565b60015460008290036120705760405163b562e8dd60e01b815260040160405180910390fd5b6001600160a01b03831660008181526006602090815260408083208054680100000000000000018802019055848352600590915281206001851460e11b4260a01b178317905582840190839083907fddf252ad1be2c89b69c2b068fc378daa952ba7f163c4a11628f55a4df523b3ef8180a4600183015b81811461211f57808360007fddf252ad1be2c89b69c2b068fc378daa952ba7f163c4a11628f55a4df523b3ef600080a46001016120e7565b508160000361214057604051622e076360e81b815260040160405180910390fd5b60015550505050565b80356001600160a01b03811681146119eb57600080fd5b634e487b7160e01b600052604160045260246000fd5b604051601f8201601f1916810167ffffffffffffffff8111828210171561219f5761219f612160565b604052919050565b600082601f8301126121b857600080fd5b8135602067ffffffffffffffff8211156121d4576121d4612160565b8160051b6121e3828201612176565b92835284810182019282810190878511156121fd57600080fd5b83870192505b8483101561221c57823582529183019190830190612203565b979650505050505050565b60008060006060848603121561223c57600080fd5b61224584612149565b9250602084013567ffffffffffffffff81111561226157600080fd5b61226d868287016121a7565b925050604084013590509250925092565b6001600160e01b031981168114611ae957600080fd5b6000602082840312156122a657600080fd5b8135611bdd8161227e565b60005b838110156122cc5781810151838201526020016122b4565b50506000910152565b600081518084526122ed8160208601602086016122b1565b601f01601f19169290920160200192915050565b602081526000611bdd60208301846122d5565b60006020828403121561232657600080fd5b5035919050565b6000806040838503121561234057600080fd5b61234983612149565b946020939093013593505050565b803580151581146119eb57600080fd5b60006020828403121561237957600080fd5b611bdd82612357565b60008060006060848603121561239757600080fd5b6123a084612149565b92506123ae60208501612149565b9150604084013590509250925092565b6000602082840312156123d057600080fd5b611bdd82612149565b6020808252825182820181905260009190848201906040850190845b81811015612411578351835292840192918401916001016123f5565b50909695505050505050565b600067ffffffffffffffff83111561243757612437612160565b61244a601f8401601f1916602001612176565b905082815283838301111561245e57600080fd5b828260208301376000602084830101529392505050565b600082601f83011261248657600080fd5b611bdd8383356020850161241d565b6000602082840312156124a757600080fd5b813567ffffffffffffffff8111156124be57600080fd5b610a4884828501612475565b6000602082840312156124dc57600080fd5b813567ffffffffffffffff8111156124f357600080fd5b610a48848285016121a7565b6000806040838503121561251257600080fd5b61251b83612357565b9150602083013567ffffffffffffffff81111561253757600080fd5b61254385828601612475565b9150509250929050565b6000806040838503121561256057600080fd5b8235915061257060208401612149565b90509250929050565b6000806040838503121561258c57600080fd5b61259583612149565b915061257060208401612357565b600080600080608085870312156125b957600080fd5b6125c285612149565b93506125d060208601612149565b925060408501359150606085013567ffffffffffffffff8111156125f357600080fd5b8501601f8101871361260457600080fd5b6126138782356020840161241d565b91505092959194509250565b6000806040838503121561263257600080fd5b61263b83612149565b915061257060208401612149565b600181811c9082168061265d57607f821691505b60208210810361267d57634e487b7160e01b600052602260045260246000fd5b50919050565b60208082526012908201527110dbdb9d1c9858dd081a5cc81c185d5cd95960721b604082015260600190565b634e487b7160e01b600052601160045260246000fd5b80820180821115610a9c57610a9c6126af565b602080825260159082015274139bdd08195b9bdd59da081b5a5b9d1cc81b19599d605a1b604082015260600190565b6020808252601390820152724e6f20636f6e7472616374206d696e74696e6760681b604082015260600190565b8082028115828204841417610a9c57610a9c6126af565b634e487b7160e01b600052601260045260246000fd5b6000826127705761277061274b565b500490565b634e487b7160e01b600052603260045260246000fd5b60006001820161279d5761279d6126af565b5060010190565b601f82111561130157600081815260208120601f850160051c810160208610156127cb5750805b601f850160051c820191505b81811015610dd1578281556001016127d7565b815167ffffffffffffffff81111561280457612804612160565b612818816128128454612649565b846127a4565b602080601f83116001811461284d57600084156128355750858301515b600019600386901b1c1916600185901b178555610dd1565b600085815260208120601f198616915b8281101561287c5788860151825594840194600190910190840161285d565b508582101561289a5787850151600019600388901b60f8161c191681555b5050505050600190811b01905550565b60008084546128b881612649565b600182811680156128d057600181146128e557612914565b60ff1984168752821515830287019450612914565b8860005260208060002060005b8581101561290b5781548a8201529084019082016128f2565b50505082870194505b5050505083516129288183602088016122b1565b64173539b7b760d91b9101908152600501949350505050565b81810381811115610a9c57610a9c6126af565b6001600160a01b0385811682528416602082015260408101839052608060608201819052600090612987908301846122d5565b9695505050505050565b6000602082840312156129a357600080fd5b8151611bdd8161227e565b6000826129bd576129bd61274b565b50069056fea2646970667358221220340f25f6d7fd265146be0b04677ef352d646df0d060fc9b61f0e55f715ad9a3164736f6c63430008110033697066733a2f2f516d647455377941795679343536447473574678376d4a3750543145676f6b52526b723859674659504254397962","opcodes":"PUSH32 0x18005FFD485D367FD31307E229607A9B05802E8B57C418D4C818A47152C02B83 PUSH1 0x9 SSTORE PUSH1 0x5 PUSH1 0xA DUP2 SWAP1 SSTORE PUSH1 0xB SSTORE PUSH7 0x38D7EA4C68000 PUSH1 0xC SSTORE PUSH1 0xE0 PUSH1 0x40 MSTORE PUSH1 0x35 PUSH1 0x80 DUP2 DUP2 MSTORE SWAP1 PUSH3 0x2D11 PUSH1 0xA0 CODECOPY PUSH1 0xF SWAP1 PUSH3 0x5B SWAP1 DUP3 PUSH3 0x23D JUMP JUMPDEST POP PUSH1 0x40 MLOAD DUP1 PUSH1 0x60 ADD PUSH1 0x40 MSTORE DUP1 PUSH1 0x35 DUP2 MSTORE PUSH1 0x20 ADD PUSH3 0x2D11 PUSH1 0x35 SWAP2 CODECOPY PUSH1 0x10 SWAP1 PUSH3 0x85 SWAP1 DUP3 PUSH3 0x23D JUMP JUMPDEST POP PUSH1 0x11 DUP1 SLOAD PUSH1 0x1 PUSH1 0x1 PUSH1 0xC0 SHL SUB NOT AND PUSH24 0x15F01D94D5416DCC42081016FCD1669C5C0FED1100010001 OR SWAP1 SSTORE PUSH2 0xFA0 PUSH1 0x12 SSTORE CALLVALUE DUP1 ISZERO PUSH3 0xC3 JUMPI PUSH1 0x0 DUP1 REVERT JUMPDEST POP PUSH1 0x40 MLOAD DUP1 PUSH1 0x40 ADD PUSH1 0x40 MSTORE DUP1 PUSH1 0x6 DUP2 MSTORE PUSH1 0x20 ADD PUSH6 0x506174696B61 PUSH1 0xD0 SHL DUP2 MSTORE POP PUSH1 0x40 MLOAD DUP1 PUSH1 0x40 ADD PUSH1 0x40 MSTORE DUP1 PUSH1 0x3 DUP2 MSTORE PUSH1 0x20 ADD PUSH3 0x50544B PUSH1 0xE8 SHL DUP2 MSTORE POP PUSH3 0x119 PUSH3 0x113 PUSH3 0x144 PUSH1 0x20 SHL PUSH1 0x20 SHR JUMP JUMPDEST PUSH3 0x148 JUMP JUMPDEST PUSH1 0x3 PUSH3 0x127 DUP4 DUP3 PUSH3 0x23D JUMP JUMPDEST POP PUSH1 0x4 PUSH3 0x136 DUP3 DUP3 PUSH3 0x23D JUMP JUMPDEST POP POP PUSH1 0x0 PUSH1 0x1 SSTORE POP PUSH3 0x309 JUMP JUMPDEST CALLER SWAP1 JUMP JUMPDEST PUSH1 0x0 DUP1 SLOAD PUSH1 0x1 PUSH1 0x1 PUSH1 0xA0 SHL SUB DUP4 DUP2 AND PUSH1 0x1 PUSH1 0x1 PUSH1 0xA0 SHL SUB NOT DUP4 AND DUP2 OR DUP5 SSTORE PUSH1 0x40 MLOAD SWAP2 SWAP1 SWAP3 AND SWAP3 DUP4 SWAP2 PUSH32 0x8BE0079C531659141344CD1FD0A4F28419497F9722A3DAAFE3B4186F6B6457E0 SWAP2 SWAP1 LOG3 POP POP JUMP JUMPDEST PUSH4 0x4E487B71 PUSH1 0xE0 SHL PUSH1 0x0 MSTORE PUSH1 0x41 PUSH1 0x4 MSTORE PUSH1 0x24 PUSH1 0x0 REVERT JUMPDEST PUSH1 0x1 DUP2 DUP2 SHR SWAP1 DUP3 AND DUP1 PUSH3 0x1C3 JUMPI PUSH1 0x7F DUP3 AND SWAP2 POP JUMPDEST PUSH1 0x20 DUP3 LT DUP2 SUB PUSH3 0x1E4 JUMPI PUSH4 0x4E487B71 PUSH1 0xE0 SHL PUSH1 0x0 MSTORE PUSH1 0x22 PUSH1 0x4 MSTORE PUSH1 0x24 PUSH1 0x0 REVERT JUMPDEST POP SWAP2 SWAP1 POP JUMP JUMPDEST PUSH1 0x1F DUP3 GT ISZERO PUSH3 0x238 JUMPI PUSH1 0x0 DUP2 DUP2 MSTORE PUSH1 0x20 DUP2 KECCAK256 PUSH1 0x1F DUP6 ADD PUSH1 0x5 SHR DUP2 ADD PUSH1 0x20 DUP7 LT ISZERO PUSH3 0x213 JUMPI POP DUP1 JUMPDEST PUSH1 0x1F DUP6 ADD PUSH1 0x5 SHR DUP3 ADD SWAP2 POP JUMPDEST DUP2 DUP2 LT ISZERO PUSH3 0x234 JUMPI DUP3 DUP2 SSTORE PUSH1 0x1 ADD PUSH3 0x21F JUMP JUMPDEST POP POP POP JUMPDEST POP POP POP JUMP JUMPDEST DUP2 MLOAD PUSH1 0x1 PUSH1 0x1 PUSH1 0x40 SHL SUB DUP2 GT ISZERO PUSH3 0x259 JUMPI PUSH3 0x259 PUSH3 0x198 JUMP JUMPDEST PUSH3 0x271 DUP2 PUSH3 0x26A DUP5 SLOAD PUSH3 0x1AE JUMP JUMPDEST DUP5 PUSH3 0x1EA JUMP JUMPDEST PUSH1 0x20 DUP1 PUSH1 0x1F DUP4 GT PUSH1 0x1 DUP2 EQ PUSH3 0x2A9 JUMPI PUSH1 0x0 DUP5 ISZERO PUSH3 0x290 JUMPI POP DUP6 DUP4 ADD MLOAD JUMPDEST PUSH1 0x0 NOT PUSH1 0x3 DUP7 SWAP1 SHL SHR NOT AND PUSH1 0x1 DUP6 SWAP1 SHL OR DUP6 SSTORE PUSH3 0x234 JUMP JUMPDEST PUSH1 0x0 DUP6 DUP2 MSTORE PUSH1 0x20 DUP2 KECCAK256 PUSH1 0x1F NOT DUP7 AND SWAP2 JUMPDEST DUP3 DUP2 LT ISZERO PUSH3 0x2DA JUMPI DUP9 DUP7 ADD MLOAD DUP3 SSTORE SWAP5 DUP5 ADD SWAP5 PUSH1 0x1 SWAP1 SWAP2 ADD SWAP1 DUP5 ADD PUSH3 0x2B9 JUMP JUMPDEST POP DUP6 DUP3 LT ISZERO PUSH3 0x2F9 JUMPI DUP8 DUP6 ADD MLOAD PUSH1 0x0 NOT PUSH1 0x3 DUP9 SWAP1 SHL PUSH1 0xF8 AND SHR NOT AND DUP2 SSTORE JUMPDEST POP POP POP POP POP PUSH1 0x1 SWAP1 DUP2 SHL ADD SWAP1 SSTORE POP JUMP JUMPDEST PUSH2 0x29F8 DUP1 PUSH3 0x319 PUSH1 0x0 CODECOPY PUSH1 0x0 RETURN INVALID PUSH1 0x80 PUSH1 0x40 MSTORE PUSH1 0x4 CALLDATASIZE LT PUSH2 0x381 JUMPI PUSH1 0x0 CALLDATALOAD PUSH1 0xE0 SHR DUP1 PUSH4 0x6352211E GT PUSH2 0x1D1 JUMPI DUP1 PUSH4 0x95D89B41 GT PUSH2 0x102 JUMPI DUP1 PUSH4 0xC6275255 GT PUSH2 0xA0 JUMPI DUP1 PUSH4 0xE985E9C5 GT PUSH2 0x6F JUMPI DUP1 PUSH4 0xE985E9C5 EQ PUSH2 0x98D JUMPI DUP1 PUSH4 0xEFEADB6D EQ PUSH2 0x9AD JUMPI DUP1 PUSH4 0xF2FDE38B EQ PUSH2 0x9CD JUMPI DUP1 PUSH4 0xF7E8D6EA EQ PUSH2 0x9ED JUMPI PUSH1 0x0 DUP1 REVERT JUMPDEST DUP1 PUSH4 0xC6275255 EQ PUSH2 0x918 JUMPI DUP1 PUSH4 0xC87B56DD EQ PUSH2 0x938 JUMPI DUP1 PUSH4 0xE0A80853 EQ PUSH2 0x958 JUMPI DUP1 PUSH4 0xE8A3D485 EQ PUSH2 0x978 JUMPI PUSH1 0x0 DUP1 REVERT JUMPDEST DUP1 PUSH4 0xB06CFA64 GT PUSH2 0xDC JUMPI DUP1 PUSH4 0xB06CFA64 EQ PUSH2 0x8B5 JUMPI DUP1 PUSH4 0xB88D4FDE EQ PUSH2 0x8D5 JUMPI DUP1 PUSH4 0xBCEAE77B EQ PUSH2 0x53C JUMPI DUP1 PUSH4 0xC1189382 EQ PUSH2 0x8E8 JUMPI PUSH1 0x0 DUP1 REVERT JUMPDEST DUP1 PUSH4 0x95D89B41 EQ PUSH2 0x865 JUMPI DUP1 PUSH4 0xA22CB465 EQ PUSH2 0x87A JUMPI DUP1 PUSH4 0xAD570DD5 EQ PUSH2 0x89A JUMPI PUSH1 0x0 DUP1 REVERT JUMPDEST DUP1 PUSH4 0x7AF3A1AF GT PUSH2 0x16F JUMPI DUP1 PUSH4 0x8CC54E7F GT PUSH2 0x149 JUMPI DUP1 PUSH4 0x8CC54E7F EQ PUSH2 0x7F2 JUMPI DUP1 PUSH4 0x8DA5CB5B EQ PUSH2 0x807 JUMPI DUP1 PUSH4 0x9007BD72 EQ PUSH2 0x825 JUMPI DUP1 PUSH4 0x938E3D7B EQ PUSH2 0x845 JUMPI PUSH1 0x0 DUP1 REVERT JUMPDEST DUP1 PUSH4 0x7AF3A1AF EQ PUSH2 0x79C JUMPI DUP1 PUSH4 0x7C146EFC EQ PUSH2 0x7BC JUMPI DUP1 PUSH4 0x7CB64759 EQ PUSH2 0x7D2 JUMPI PUSH1 0x0 DUP1 REVERT JUMPDEST DUP1 PUSH4 0x715018A6 GT PUSH2 0x1AB JUMPI DUP1 PUSH4 0x715018A6 EQ PUSH2 0x724 JUMPI DUP1 PUSH4 0x763EA95F EQ PUSH2 0x739 JUMPI DUP1 PUSH4 0x7A8FFB32 EQ PUSH2 0x74F JUMPI DUP1 PUSH4 0x7AEB7242 EQ PUSH2 0x76F JUMPI PUSH1 0x0 DUP1 REVERT JUMPDEST DUP1 PUSH4 0x6352211E EQ PUSH2 0x6CE JUMPI DUP1 PUSH4 0x6B39FCA4 EQ PUSH2 0x6EE JUMPI DUP1 PUSH4 0x70A08231 EQ PUSH2 0x704 JUMPI PUSH1 0x0 DUP1 REVERT JUMPDEST DUP1 PUSH4 0x2FECF20B GT PUSH2 0x2B6 JUMPI DUP1 PUSH4 0x51830227 GT PUSH2 0x254 JUMPI DUP1 PUSH4 0x5C975ABB GT PUSH2 0x223 JUMPI DUP1 PUSH4 0x5C975ABB EQ PUSH2 0x66B JUMPI DUP1 PUSH4 0x5CFE6B84 EQ PUSH2 0x685 JUMPI DUP1 PUSH4 0x5ED3E25E EQ PUSH2 0x698 JUMPI DUP1 PUSH4 0x611F3F10 EQ PUSH2 0x6B8 JUMPI PUSH1 0x0 DUP1 REVERT JUMPDEST DUP1 PUSH4 0x51830227 EQ PUSH2 0x5EF JUMPI DUP1 PUSH4 0x55F804B3 EQ PUSH2 0x60E JUMPI DUP1 PUSH4 0x56B4F673 EQ PUSH2 0x62E JUMPI DUP1 PUSH4 0x59927044 EQ PUSH2 0x643 JUMPI PUSH1 0x0 DUP1 REVERT JUMPDEST DUP1 PUSH4 0x3CCFD60B GT PUSH2 0x290 JUMPI DUP1 PUSH4 0x3CCFD60B EQ PUSH2 0x587 JUMPI DUP1 PUSH4 0x42842E0E EQ PUSH2 0x58F JUMPI DUP1 PUSH4 0x438B6300 EQ PUSH2 0x5A2 JUMPI DUP1 PUSH4 0x512507C6 EQ PUSH2 0x5CF JUMPI PUSH1 0x0 DUP1 REVERT JUMPDEST DUP1 PUSH4 0x2FECF20B EQ PUSH2 0x53C JUMPI DUP1 PUSH4 0x32CB6B0C EQ PUSH2 0x551 JUMPI DUP1 PUSH4 0x33BC1C5C EQ PUSH2 0x566 JUMPI PUSH1 0x0 DUP1 REVERT JUMPDEST DUP1 PUSH4 0x18160DDD GT PUSH2 0x323 JUMPI DUP1 PUSH4 0x2C4B2334 GT PUSH2 0x2FD JUMPI DUP1 PUSH4 0x2C4B2334 EQ PUSH2 0x4E0 JUMPI DUP1 PUSH4 0x2DB11544 EQ PUSH2 0x500 JUMPI DUP1 PUSH4 0x2EB4A7AB EQ PUSH2 0x513 JUMPI DUP1 PUSH4 0x2FBBA115 EQ PUSH2 0x529 JUMPI PUSH1 0x0 DUP1 REVERT JUMPDEST DUP1 PUSH4 0x18160DDD EQ PUSH2 0x48A JUMPI DUP1 PUSH4 0x23B872DD EQ PUSH2 0x4AD JUMPI DUP1 PUSH4 0x281905C8 EQ PUSH2 0x4C0 JUMPI PUSH1 0x0 DUP1 REVERT JUMPDEST DUP1 PUSH4 0x81812FC GT PUSH2 0x35F JUMPI DUP1 PUSH4 0x81812FC EQ PUSH2 0x3FD JUMPI DUP1 PUSH4 0x95EA7B3 EQ PUSH2 0x435 JUMPI DUP1 PUSH4 0xF15AD8D EQ PUSH2 0x44A JUMPI DUP1 PUSH4 0x16C38B3C EQ PUSH2 0x46A JUMPI PUSH1 0x0 DUP1 REVERT JUMPDEST DUP1 PUSH4 0x1DD38A2 EQ PUSH2 0x386 JUMPI DUP1 PUSH4 0x1FFC9A7 EQ PUSH2 0x3BB JUMPI DUP1 PUSH4 0x6FDDE03 EQ PUSH2 0x3DB JUMPI JUMPDEST PUSH1 0x0 DUP1 REVERT JUMPDEST CALLVALUE DUP1 ISZERO PUSH2 0x392 JUMPI PUSH1 0x0 DUP1 REVERT JUMPDEST POP PUSH2 0x3A6 PUSH2 0x3A1 CALLDATASIZE PUSH1 0x4 PUSH2 0x2227 JUMP JUMPDEST PUSH2 0xA02 JUMP JUMPDEST PUSH1 0x40 MLOAD SWAP1 ISZERO ISZERO DUP2 MSTORE PUSH1 0x20 ADD JUMPDEST PUSH1 0x40 MLOAD DUP1 SWAP2 SUB SWAP1 RETURN JUMPDEST CALLVALUE DUP1 ISZERO PUSH2 0x3C7 JUMPI PUSH1 0x0 DUP1 REVERT JUMPDEST POP PUSH2 0x3A6 PUSH2 0x3D6 CALLDATASIZE PUSH1 0x4 PUSH2 0x2294 JUMP JUMPDEST PUSH2 0xA50 JUMP JUMPDEST CALLVALUE DUP1 ISZERO PUSH2 0x3E7 JUMPI PUSH1 0x0 DUP1 REVERT JUMPDEST POP PUSH2 0x3F0 PUSH2 0xAA2 JUMP JUMPDEST PUSH1 0x40 MLOAD PUSH2 0x3B2 SWAP2 SWAP1 PUSH2 0x2301 JUMP JUMPDEST CALLVALUE DUP1 ISZERO PUSH2 0x409 JUMPI PUSH1 0x0 DUP1 REVERT JUMPDEST POP PUSH2 0x41D PUSH2 0x418 CALLDATASIZE PUSH1 0x4 PUSH2 0x2314 JUMP JUMPDEST PUSH2 0xB34 JUMP JUMPDEST PUSH1 0x40 MLOAD PUSH1 0x1 PUSH1 0x1 PUSH1 0xA0 SHL SUB SWAP1 SWAP2 AND DUP2 MSTORE PUSH1 0x20 ADD PUSH2 0x3B2 JUMP JUMPDEST PUSH2 0x448 PUSH2 0x443 CALLDATASIZE PUSH1 0x4 PUSH2 0x232D JUMP JUMPDEST PUSH2 0xB78 JUMP JUMPDEST STOP JUMPDEST CALLVALUE DUP1 ISZERO PUSH2 0x456 JUMPI PUSH1 0x0 DUP1 REVERT JUMPDEST POP PUSH2 0x448 PUSH2 0x465 CALLDATASIZE PUSH1 0x4 PUSH2 0x2314 JUMP JUMPDEST PUSH2 0xC18 JUMP JUMPDEST CALLVALUE DUP1 ISZERO PUSH2 0x476 JUMPI PUSH1 0x0 DUP1 REVERT JUMPDEST POP PUSH2 0x448 PUSH2 0x485 CALLDATASIZE PUSH1 0x4 PUSH2 0x2367 JUMP JUMPDEST PUSH2 0xC25 JUMP JUMPDEST CALLVALUE DUP1 ISZERO PUSH2 0x496 JUMPI PUSH1 0x0 DUP1 REVERT JUMPDEST POP PUSH1 0x2 SLOAD PUSH1 0x1 SLOAD SUB JUMPDEST PUSH1 0x40 MLOAD SWAP1 DUP2 MSTORE PUSH1 0x20 ADD PUSH2 0x3B2 JUMP JUMPDEST PUSH2 0x448 PUSH2 0x4BB CALLDATASIZE PUSH1 0x4 PUSH2 0x2382 JUMP JUMPDEST PUSH2 0xC40 JUMP JUMPDEST CALLVALUE DUP1 ISZERO PUSH2 0x4CC JUMPI PUSH1 0x0 DUP1 REVERT JUMPDEST POP PUSH1 0x11 SLOAD PUSH2 0x3A6 SWAP1 PUSH3 0x10000 SWAP1 DIV PUSH1 0xFF AND DUP2 JUMP JUMPDEST CALLVALUE DUP1 ISZERO PUSH2 0x4EC JUMPI PUSH1 0x0 DUP1 REVERT JUMPDEST POP PUSH2 0x448 PUSH2 0x4FB CALLDATASIZE PUSH1 0x4 PUSH2 0x23BE JUMP JUMPDEST PUSH2 0xDD9 JUMP JUMPDEST PUSH2 0x448 PUSH2 0x50E CALLDATASIZE PUSH1 0x4 PUSH2 0x2314 JUMP JUMPDEST PUSH2 0xE0F JUMP JUMPDEST CALLVALUE DUP1 ISZERO PUSH2 0x51F JUMPI PUSH1 0x0 DUP1 REVERT JUMPDEST POP PUSH2 0x49F PUSH1 0x9 SLOAD DUP2 JUMP JUMPDEST PUSH2 0x448 PUSH2 0x537 CALLDATASIZE PUSH1 0x4 PUSH2 0x2314 JUMP JUMPDEST PUSH2 0xFCB JUMP JUMPDEST CALLVALUE DUP1 ISZERO PUSH2 0x548 JUMPI PUSH1 0x0 DUP1 REVERT JUMPDEST POP PUSH2 0x49F PUSH1 0xA DUP2 JUMP JUMPDEST CALLVALUE DUP1 ISZERO PUSH2 0x55D JUMPI PUSH1 0x0 DUP1 REVERT JUMPDEST POP PUSH2 0x49F PUSH1 0x14 DUP2 JUMP JUMPDEST CALLVALUE DUP1 ISZERO PUSH2 0x572 JUMPI PUSH1 0x0 DUP1 REVERT JUMPDEST POP PUSH1 0x11 SLOAD PUSH2 0x3A6 SWAP1 PUSH4 0x1000000 SWAP1 DIV PUSH1 0xFF AND DUP2 JUMP JUMPDEST PUSH2 0x448 PUSH2 0x1174 JUMP JUMPDEST PUSH2 0x448 PUSH2 0x59D CALLDATASIZE PUSH1 0x4 PUSH2 0x2382 JUMP JUMPDEST PUSH2 0x12E6 JUMP JUMPDEST CALLVALUE DUP1 ISZERO PUSH2 0x5AE JUMPI PUSH1 0x0 DUP1 REVERT JUMPDEST POP PUSH2 0x5C2 PUSH2 0x5BD CALLDATASIZE PUSH1 0x4 PUSH2 0x23BE JUMP JUMPDEST PUSH2 0x1306 JUMP JUMPDEST PUSH1 0x40 MLOAD PUSH2 0x3B2 SWAP2 SWAP1 PUSH2 0x23D9 JUMP JUMPDEST CALLVALUE DUP1 ISZERO PUSH2 0x5DB JUMPI PUSH1 0x0 DUP1 REVERT JUMPDEST POP PUSH2 0x448 PUSH2 0x5EA CALLDATASIZE PUSH1 0x4 PUSH2 0x2495 JUMP JUMPDEST PUSH2 0x13E5 JUMP JUMPDEST CALLVALUE DUP1 ISZERO PUSH2 0x5FB JUMPI PUSH1 0x0 DUP1 REVERT JUMPDEST POP PUSH1 0x11 SLOAD PUSH2 0x3A6 SWAP1 PUSH2 0x100 SWAP1 DIV PUSH1 0xFF AND DUP2 JUMP JUMPDEST CALLVALUE DUP1 ISZERO PUSH2 0x61A JUMPI PUSH1 0x0 DUP1 REVERT JUMPDEST POP PUSH2 0x448 PUSH2 0x629 CALLDATASIZE PUSH1 0x4 PUSH2 0x2495 JUMP JUMPDEST PUSH2 0x13F9 JUMP JUMPDEST CALLVALUE DUP1 ISZERO PUSH2 0x63A JUMPI PUSH1 0x0 DUP1 REVERT JUMPDEST POP PUSH2 0x3F0 PUSH2 0x140D JUMP JUMPDEST CALLVALUE DUP1 ISZERO PUSH2 0x64F JUMPI PUSH1 0x0 DUP1 REVERT JUMPDEST POP PUSH1 0x11 SLOAD PUSH2 0x41D SWAP1 PUSH5 0x100000000 SWAP1 DIV PUSH1 0x1 PUSH1 0x1 PUSH1 0xA0 SHL SUB AND DUP2 JUMP JUMPDEST CALLVALUE DUP1 ISZERO PUSH2 0x677 JUMPI PUSH1 0x0 DUP1 REVERT JUMPDEST POP PUSH1 0x11 SLOAD PUSH2 0x3A6 SWAP1 PUSH1 0xFF AND DUP2 JUMP JUMPDEST PUSH2 0x448 PUSH2 0x693 CALLDATASIZE PUSH1 0x4 PUSH2 0x24CA JUMP JUMPDEST PUSH2 0x149B JUMP JUMPDEST CALLVALUE DUP1 ISZERO PUSH2 0x6A4 JUMPI PUSH1 0x0 DUP1 REVERT JUMPDEST POP PUSH2 0x448 PUSH2 0x6B3 CALLDATASIZE PUSH1 0x4 PUSH2 0x24FF JUMP JUMPDEST PUSH2 0x164B JUMP JUMPDEST CALLVALUE DUP1 ISZERO PUSH2 0x6C4 JUMPI PUSH1 0x0 DUP1 REVERT JUMPDEST POP PUSH2 0x49F PUSH1 0xC SLOAD DUP2 JUMP JUMPDEST CALLVALUE DUP1 ISZERO PUSH2 0x6DA JUMPI PUSH1 0x0 DUP1 REVERT JUMPDEST POP PUSH2 0x41D PUSH2 0x6E9 CALLDATASIZE PUSH1 0x4 PUSH2 0x2314 JUMP JUMPDEST PUSH2 0x1672 JUMP JUMPDEST CALLVALUE DUP1 ISZERO PUSH2 0x6FA JUMPI PUSH1 0x0 DUP1 REVERT JUMPDEST POP PUSH2 0x49F PUSH1 0xB SLOAD DUP2 JUMP JUMPDEST CALLVALUE DUP1 ISZERO PUSH2 0x710 JUMPI PUSH1 0x0 DUP1 REVERT JUMPDEST POP PUSH2 0x49F PUSH2 0x71F CALLDATASIZE PUSH1 0x4 PUSH2 0x23BE JUMP JUMPDEST PUSH2 0x167D JUMP JUMPDEST CALLVALUE DUP1 ISZERO PUSH2 0x730 JUMPI PUSH1 0x0 DUP1 REVERT JUMPDEST POP PUSH2 0x448 PUSH2 0x16CC JUMP JUMPDEST CALLVALUE DUP1 ISZERO PUSH2 0x745 JUMPI PUSH1 0x0 DUP1 REVERT JUMPDEST POP PUSH2 0x49F PUSH1 0xD SLOAD DUP2 JUMP JUMPDEST CALLVALUE DUP1 ISZERO PUSH2 0x75B JUMPI PUSH1 0x0 DUP1 REVERT JUMPDEST POP PUSH2 0x448 PUSH2 0x76A CALLDATASIZE PUSH1 0x4 PUSH2 0x2314 JUMP JUMPDEST PUSH2 0x16E0 JUMP JUMPDEST CALLVALUE DUP1 ISZERO PUSH2 0x77B JUMPI PUSH1 0x0 DUP1 REVERT JUMPDEST POP PUSH2 0x49F PUSH2 0x78A CALLDATASIZE PUSH1 0x4 PUSH2 0x23BE JUMP JUMPDEST PUSH1 0x13 PUSH1 0x20 MSTORE PUSH1 0x0 SWAP1 DUP2 MSTORE PUSH1 0x40 SWAP1 KECCAK256 SLOAD DUP2 JUMP JUMPDEST CALLVALUE DUP1 ISZERO PUSH2 0x7A8 JUMPI PUSH1 0x0 DUP1 REVERT JUMPDEST POP PUSH2 0x448 PUSH2 0x7B7 CALLDATASIZE PUSH1 0x4 PUSH2 0x2367 JUMP JUMPDEST PUSH2 0x16ED JUMP JUMPDEST CALLVALUE DUP1 ISZERO PUSH2 0x7C8 JUMPI PUSH1 0x0 DUP1 REVERT JUMPDEST POP PUSH2 0x49F PUSH1 0xA SLOAD DUP2 JUMP JUMPDEST CALLVALUE DUP1 ISZERO PUSH2 0x7DE JUMPI PUSH1 0x0 DUP1 REVERT JUMPDEST POP PUSH2 0x448 PUSH2 0x7ED CALLDATASIZE PUSH1 0x4 PUSH2 0x2314 JUMP JUMPDEST PUSH2 0x1713 JUMP JUMPDEST CALLVALUE DUP1 ISZERO PUSH2 0x7FE JUMPI PUSH1 0x0 DUP1 REVERT JUMPDEST POP PUSH2 0x3F0 PUSH2 0x1720 JUMP JUMPDEST CALLVALUE DUP1 ISZERO PUSH2 0x813 JUMPI PUSH1 0x0 DUP1 REVERT JUMPDEST POP PUSH1 0x0 SLOAD PUSH1 0x1 PUSH1 0x1 PUSH1 0xA0 SHL SUB AND PUSH2 0x41D JUMP JUMPDEST CALLVALUE DUP1 ISZERO PUSH2 0x831 JUMPI PUSH1 0x0 DUP1 REVERT JUMPDEST POP PUSH2 0x448 PUSH2 0x840 CALLDATASIZE PUSH1 0x4 PUSH2 0x254D JUMP JUMPDEST PUSH2 0x172D JUMP JUMPDEST CALLVALUE DUP1 ISZERO PUSH2 0x851 JUMPI PUSH1 0x0 DUP1 REVERT JUMPDEST POP PUSH2 0x448 PUSH2 0x860 CALLDATASIZE PUSH1 0x4 PUSH2 0x2495 JUMP JUMPDEST PUSH2 0x17BB JUMP JUMPDEST CALLVALUE DUP1 ISZERO PUSH2 0x871 JUMPI PUSH1 0x0 DUP1 REVERT JUMPDEST POP PUSH2 0x3F0 PUSH2 0x17CF JUMP JUMPDEST CALLVALUE DUP1 ISZERO PUSH2 0x886 JUMPI PUSH1 0x0 DUP1 REVERT JUMPDEST POP PUSH2 0x448 PUSH2 0x895 CALLDATASIZE PUSH1 0x4 PUSH2 0x2579 JUMP JUMPDEST PUSH2 0x17DE JUMP JUMPDEST CALLVALUE DUP1 ISZERO PUSH2 0x8A6 JUMPI PUSH1 0x0 DUP1 REVERT JUMPDEST POP PUSH2 0x49F PUSH7 0x38D7EA4C68000 DUP2 JUMP JUMPDEST CALLVALUE DUP1 ISZERO PUSH2 0x8C1 JUMPI PUSH1 0x0 DUP1 REVERT JUMPDEST POP PUSH2 0x448 PUSH2 0x8D0 CALLDATASIZE PUSH1 0x4 PUSH2 0x2314 JUMP JUMPDEST PUSH2 0x184A JUMP JUMPDEST PUSH2 0x448 PUSH2 0x8E3 CALLDATASIZE PUSH1 0x4 PUSH2 0x25A3 JUMP JUMPDEST PUSH2 0x1857 JUMP JUMPDEST CALLVALUE DUP1 ISZERO PUSH2 0x8F4 JUMPI PUSH1 0x0 DUP1 REVERT JUMPDEST POP PUSH2 0x3A6 PUSH2 0x903 CALLDATASIZE PUSH1 0x4 PUSH2 0x23BE JUMP JUMPDEST PUSH1 0x14 PUSH1 0x20 MSTORE PUSH1 0x0 SWAP1 DUP2 MSTORE PUSH1 0x40 SWAP1 KECCAK256 SLOAD PUSH1 0xFF AND DUP2 JUMP JUMPDEST CALLVALUE DUP1 ISZERO PUSH2 0x924 JUMPI PUSH1 0x0 DUP1 REVERT JUMPDEST POP PUSH2 0x448 PUSH2 0x933 CALLDATASIZE PUSH1 0x4 PUSH2 0x2314 JUMP JUMPDEST PUSH2 0x189B JUMP JUMPDEST CALLVALUE DUP1 ISZERO PUSH2 0x944 JUMPI PUSH1 0x0 DUP1 REVERT JUMPDEST POP PUSH2 0x3F0 PUSH2 0x953 CALLDATASIZE PUSH1 0x4 PUSH2 0x2314 JUMP JUMPDEST PUSH2 0x18A8 JUMP JUMPDEST CALLVALUE DUP1 ISZERO PUSH2 0x964 JUMPI PUSH1 0x0 DUP1 REVERT JUMPDEST POP PUSH2 0x448 PUSH2 0x973 CALLDATASIZE PUSH1 0x4 PUSH2 0x2367 JUMP JUMPDEST PUSH2 0x19F0 JUMP JUMPDEST CALLVALUE DUP1 ISZERO PUSH2 0x984 JUMPI PUSH1 0x0 DUP1 REVERT JUMPDEST POP PUSH2 0x3F0 PUSH2 0x1A12 JUMP JUMPDEST CALLVALUE DUP1 ISZERO PUSH2 0x999 JUMPI PUSH1 0x0 DUP1 REVERT JUMPDEST POP PUSH2 0x3A6 PUSH2 0x9A8 CALLDATASIZE PUSH1 0x4 PUSH2 0x261F JUMP JUMPDEST PUSH2 0x1A21 JUMP JUMPDEST CALLVALUE DUP1 ISZERO PUSH2 0x9B9 JUMPI PUSH1 0x0 DUP1 REVERT JUMPDEST POP PUSH2 0x448 PUSH2 0x9C8 CALLDATASIZE PUSH1 0x4 PUSH2 0x2367 JUMP JUMPDEST PUSH2 0x1A4F JUMP JUMPDEST CALLVALUE DUP1 ISZERO PUSH2 0x9D9 JUMPI PUSH1 0x0 DUP1 REVERT JUMPDEST POP PUSH2 0x448 PUSH2 0x9E8 CALLDATASIZE PUSH1 0x4 PUSH2 0x23BE JUMP JUMPDEST PUSH2 0x1A73 JUMP JUMPDEST CALLVALUE DUP1 ISZERO PUSH2 0x9F9 JUMPI PUSH1 0x0 DUP1 REVERT JUMPDEST POP PUSH2 0x3F0 PUSH2 0x1AEC JUMP JUMPDEST PUSH1 0x40 MLOAD PUSH12 0xFFFFFFFFFFFFFFFFFFFFFFFF NOT PUSH1 0x60 DUP6 SWAP1 SHL AND PUSH1 0x20 DUP3 ADD MSTORE PUSH1 0x0 SWAP1 PUSH2 0xA48 SWAP1 DUP5 SWAP1 DUP5 SWAP1 PUSH1 0x34 ADD JUMPDEST PUSH1 0x40 MLOAD PUSH1 0x20 DUP2 DUP4 SUB SUB DUP2 MSTORE SWAP1 PUSH1 0x40 MSTORE DUP1 MLOAD SWAP1 PUSH1 0x20 ADD KECCAK256 PUSH2 0x1AF9 JUMP JUMPDEST SWAP5 SWAP4 POP POP POP POP JUMP JUMPDEST PUSH1 0x0 PUSH4 0x1FFC9A7 PUSH1 0xE0 SHL PUSH1 0x1 PUSH1 0x1 PUSH1 0xE0 SHL SUB NOT DUP4 AND EQ DUP1 PUSH2 0xA81 JUMPI POP PUSH4 0x80AC58CD PUSH1 0xE0 SHL PUSH1 0x1 PUSH1 0x1 PUSH1 0xE0 SHL SUB NOT DUP4 AND EQ JUMPDEST DUP1 PUSH2 0xA9C JUMPI POP PUSH4 0x5B5E139F PUSH1 0xE0 SHL PUSH1 0x1 PUSH1 0x1 PUSH1 0xE0 SHL SUB NOT DUP4 AND EQ JUMPDEST SWAP3 SWAP2 POP POP JUMP JUMPDEST PUSH1 0x60 PUSH1 0x3 DUP1 SLOAD PUSH2 0xAB1 SWAP1 PUSH2 0x2649 JUMP JUMPDEST DUP1 PUSH1 0x1F ADD PUSH1 0x20 DUP1 SWAP2 DIV MUL PUSH1 0x20 ADD PUSH1 0x40 MLOAD SWAP1 DUP2 ADD PUSH1 0x40 MSTORE DUP1 SWAP3 SWAP2 SWAP1 DUP2 DUP2 MSTORE PUSH1 0x20 ADD DUP3 DUP1 SLOAD PUSH2 0xADD SWAP1 PUSH2 0x2649 JUMP JUMPDEST DUP1 ISZERO PUSH2 0xB2A JUMPI DUP1 PUSH1 0x1F LT PUSH2 0xAFF JUMPI PUSH2 0x100 DUP1 DUP4 SLOAD DIV MUL DUP4 MSTORE SWAP2 PUSH1 0x20 ADD SWAP2 PUSH2 0xB2A JUMP JUMPDEST DUP3 ADD SWAP2 SWAP1 PUSH1 0x0 MSTORE PUSH1 0x20 PUSH1 0x0 KECCAK256 SWAP1 JUMPDEST DUP2 SLOAD DUP2 MSTORE SWAP1 PUSH1 0x1 ADD SWAP1 PUSH1 0x20 ADD DUP1 DUP4 GT PUSH2 0xB0D JUMPI DUP3 SWAP1 SUB PUSH1 0x1F AND DUP3 ADD SWAP2 JUMPDEST POP POP POP POP POP SWAP1 POP SWAP1 JUMP JUMPDEST PUSH1 0x0 PUSH2 0xB3F DUP3 PUSH2 0x1B0F JUMP JUMPDEST PUSH2 0xB5C JUMPI PUSH1 0x40 MLOAD PUSH4 0x33D1C039 PUSH1 0xE2 SHL DUP2 MSTORE PUSH1 0x4 ADD PUSH1 0x40 MLOAD DUP1 SWAP2 SUB SWAP1 REVERT JUMPDEST POP PUSH1 0x0 SWAP1 DUP2 MSTORE PUSH1 0x7 PUSH1 0x20 MSTORE PUSH1 0x40 SWAP1 KECCAK256 SLOAD PUSH1 0x1 PUSH1 0x1 PUSH1 0xA0 SHL SUB AND SWAP1 JUMP JUMPDEST PUSH1 0x0 PUSH2 0xB83 DUP3 PUSH2 0x1672 JUMP JUMPDEST SWAP1 POP CALLER PUSH1 0x1 PUSH1 0x1 PUSH1 0xA0 SHL SUB DUP3 AND EQ PUSH2 0xBBC JUMPI PUSH2 0xB9F DUP2 CALLER PUSH2 0x1A21 JUMP JUMPDEST PUSH2 0xBBC JUMPI PUSH1 0x40 MLOAD PUSH4 0x67D9DCA1 PUSH1 0xE1 SHL DUP2 MSTORE PUSH1 0x4 ADD PUSH1 0x40 MLOAD DUP1 SWAP2 SUB SWAP1 REVERT JUMPDEST PUSH1 0x0 DUP3 DUP2 MSTORE PUSH1 0x7 PUSH1 0x20 MSTORE PUSH1 0x40 DUP1 DUP3 KECCAK256 DUP1 SLOAD PUSH1 0x1 PUSH1 0x1 PUSH1 0xA0 SHL SUB NOT AND PUSH1 0x1 PUSH1 0x1 PUSH1 0xA0 SHL SUB DUP8 DUP2 AND SWAP2 DUP3 OR SWAP1 SWAP3 SSTORE SWAP2 MLOAD DUP6 SWAP4 SWAP2 DUP6 AND SWAP2 PUSH32 0x8C5BE1E5EBEC7D5BD14F71427D1E84F3DD0314C0F7B2291E5B200AC8C7C3B925 SWAP2 LOG4 POP POP POP JUMP JUMPDEST PUSH2 0xC20 PUSH2 0x1B37 JUMP JUMPDEST PUSH1 0xB SSTORE JUMP JUMPDEST PUSH2 0xC2D PUSH2 0x1B37 JUMP JUMPDEST PUSH1 0x11 DUP1 SLOAD PUSH1 0xFF NOT AND SWAP2 ISZERO ISZERO SWAP2 SWAP1 SWAP2 OR SWAP1 SSTORE JUMP JUMPDEST PUSH1 0x0 PUSH2 0xC4B DUP3 PUSH2 0x1B91 JUMP JUMPDEST SWAP1 POP DUP4 PUSH1 0x1 PUSH1 0x1 PUSH1 0xA0 SHL SUB AND DUP2 PUSH1 0x1 PUSH1 0x1 PUSH1 0xA0 SHL SUB AND EQ PUSH2 0xC7E JUMPI PUSH1 0x40 MLOAD PUSH3 0xA11481 PUSH1 0xE8 SHL DUP2 MSTORE PUSH1 0x4 ADD PUSH1 0x40 MLOAD DUP1 SWAP2 SUB SWAP1 REVERT JUMPDEST PUSH1 0x0 DUP3 DUP2 MSTORE PUSH1 0x7 PUSH1 0x20 MSTORE PUSH1 0x40 SWAP1 KECCAK256 DUP1 SLOAD CALLER DUP1 DUP3 EQ PUSH1 0x1 PUSH1 0x1 PUSH1 0xA0 SHL SUB DUP9 AND SWAP1 SWAP2 EQ OR PUSH2 0xCCB JUMPI PUSH2 0xCAE DUP7 CALLER PUSH2 0x1A21 JUMP JUMPDEST PUSH2 0xCCB JUMPI PUSH1 0x40 MLOAD PUSH4 0x2CE44B5F PUSH1 0xE1 SHL DUP2 MSTORE PUSH1 0x4 ADD PUSH1 0x40 MLOAD DUP1 SWAP2 SUB SWAP1 REVERT JUMPDEST PUSH1 0x1 PUSH1 0x1 PUSH1 0xA0 SHL SUB DUP6 AND PUSH2 0xCF2 JUMPI PUSH1 0x40 MLOAD PUSH4 0x3A954ECD PUSH1 0xE2 SHL DUP2 MSTORE PUSH1 0x4 ADD PUSH1 0x40 MLOAD DUP1 SWAP2 SUB SWAP1 REVERT JUMPDEST DUP1 ISZERO PUSH2 0xCFD JUMPI PUSH1 0x0 DUP3 SSTORE JUMPDEST PUSH1 0x1 PUSH1 0x1 PUSH1 0xA0 SHL SUB DUP7 DUP2 AND PUSH1 0x0 SWAP1 DUP2 MSTORE PUSH1 0x6 PUSH1 0x20 MSTORE PUSH1 0x40 DUP1 DUP3 KECCAK256 DUP1 SLOAD PUSH1 0x0 NOT ADD SWAP1 SSTORE SWAP2 DUP8 AND DUP1 DUP3 MSTORE SWAP2 SWAP1 KECCAK256 DUP1 SLOAD PUSH1 0x1 ADD SWAP1 SSTORE TIMESTAMP PUSH1 0xA0 SHL OR PUSH1 0x1 PUSH1 0xE1 SHL OR PUSH1 0x0 DUP6 DUP2 MSTORE PUSH1 0x5 PUSH1 0x20 MSTORE PUSH1 0x40 DUP2 KECCAK256 SWAP2 SWAP1 SWAP2 SSTORE PUSH1 0x1 PUSH1 0xE1 SHL DUP5 AND SWAP1 SUB PUSH2 0xD8F JUMPI PUSH1 0x1 DUP5 ADD PUSH1 0x0 DUP2 DUP2 MSTORE PUSH1 0x5 PUSH1 0x20 MSTORE PUSH1 0x40 DUP2 KECCAK256 SLOAD SWAP1 SUB PUSH2 0xD8D JUMPI PUSH1 0x1 SLOAD DUP2 EQ PUSH2 0xD8D JUMPI PUSH1 0x0 DUP2 DUP2 MSTORE PUSH1 0x5 PUSH1 0x20 MSTORE PUSH1 0x40 SWAP1 KECCAK256 DUP5 SWAP1 SSTORE JUMPDEST POP JUMPDEST DUP4 DUP6 PUSH1 0x1 PUSH1 0x1 PUSH1 0xA0 SHL SUB AND DUP8 PUSH1 0x1 PUSH1 0x1 PUSH1 0xA0 SHL SUB AND PUSH32 0xDDF252AD1BE2C89B69C2B068FC378DAA952BA7F163C4A11628F55A4DF523B3EF PUSH1 0x40 MLOAD PUSH1 0x40 MLOAD DUP1 SWAP2 SUB SWAP1 LOG4 JUMPDEST POP POP POP POP POP POP JUMP JUMPDEST PUSH2 0xDE1 PUSH2 0x1B37 JUMP JUMPDEST PUSH1 0x11 DUP1 SLOAD PUSH1 0x1 PUSH1 0x1 PUSH1 0xA0 SHL SUB SWAP1 SWAP3 AND PUSH5 0x100000000 MUL PUSH5 0x100000000 PUSH1 0x1 PUSH1 0xC0 SHL SUB NOT SWAP1 SWAP3 AND SWAP2 SWAP1 SWAP2 OR SWAP1 SSTORE JUMP JUMPDEST PUSH1 0x11 SLOAD DUP2 SWAP1 PUSH1 0xFF AND ISZERO PUSH2 0xE3D JUMPI PUSH1 0x40 MLOAD PUSH3 0x461BCD PUSH1 0xE5 SHL DUP2 MSTORE PUSH1 0x4 ADD PUSH2 0xE34 SWAP1 PUSH2 0x2683 JUMP JUMPDEST PUSH1 0x40 MLOAD DUP1 SWAP2 SUB SWAP1 REVERT JUMPDEST PUSH1 0x14 DUP2 PUSH2 0xE4D PUSH1 0x2 SLOAD PUSH1 0x1 SLOAD SUB SWAP1 JUMP JUMPDEST PUSH2 0xE57 SWAP2 SWAP1 PUSH2 0x26C5 JUMP JUMPDEST GT ISZERO PUSH2 0xE75 JUMPI PUSH1 0x40 MLOAD PUSH3 0x461BCD PUSH1 0xE5 SHL DUP2 MSTORE PUSH1 0x4 ADD PUSH2 0xE34 SWAP1 PUSH2 0x26D8 JUMP JUMPDEST ORIGIN CALLER EQ PUSH2 0xE94 JUMPI PUSH1 0x40 MLOAD PUSH3 0x461BCD PUSH1 0xE5 SHL DUP2 MSTORE PUSH1 0x4 ADD PUSH2 0xE34 SWAP1 PUSH2 0x2707 JUMP JUMPDEST PUSH1 0x11 SLOAD PUSH4 0x1000000 SWAP1 DIV PUSH1 0xFF AND PUSH2 0xEE4 JUMPI PUSH1 0x40 MLOAD PUSH3 0x461BCD PUSH1 0xE5 SHL DUP2 MSTORE PUSH1 0x20 PUSH1 0x4 DUP3 ADD MSTORE PUSH1 0x14 PUSH1 0x24 DUP3 ADD MSTORE PUSH20 0x5075626C69632073616C6520696E616374697665 PUSH1 0x60 SHL PUSH1 0x44 DUP3 ADD MSTORE PUSH1 0x64 ADD PUSH2 0xE34 JUMP JUMPDEST PUSH1 0xA DUP3 GT ISZERO PUSH2 0xF29 JUMPI PUSH1 0x40 MLOAD PUSH3 0x461BCD PUSH1 0xE5 SHL DUP2 MSTORE PUSH1 0x20 PUSH1 0x4 DUP3 ADD MSTORE PUSH1 0x11 PUSH1 0x24 DUP3 ADD MSTORE PUSH17 0xA2EAC2DCE8D2E8F240E8DEDE40D0D2CED PUSH1 0x7B SHL PUSH1 0x44 DUP3 ADD MSTORE PUSH1 0x64 ADD PUSH2 0xE34 JUMP JUMPDEST PUSH1 0xC SLOAD CALLER PUSH1 0x0 SWAP1 DUP2 MSTORE PUSH1 0x13 PUSH1 0x20 MSTORE PUSH1 0x40 SWAP1 KECCAK256 SLOAD PUSH1 0xA PUSH2 0xF48 DUP6 DUP4 PUSH2 0x26C5 JUMP JUMPDEST GT ISZERO PUSH2 0xF8C JUMPI PUSH1 0x40 MLOAD PUSH3 0x461BCD PUSH1 0xE5 SHL DUP2 MSTORE PUSH1 0x20 PUSH1 0x4 DUP3 ADD MSTORE PUSH1 0x13 PUSH1 0x24 DUP3 ADD MSTORE PUSH19 0x155CD95C881B585E081B5A5B9D081B1A5B5A5D PUSH1 0x6A SHL PUSH1 0x44 DUP3 ADD MSTORE PUSH1 0x64 ADD PUSH2 0xE34 JUMP JUMPDEST PUSH2 0xF9E PUSH2 0xF99 DUP6 DUP5 PUSH2 0x2734 JUMP JUMPDEST PUSH2 0x1BFF JUMP JUMPDEST PUSH2 0xFA8 DUP5 DUP3 PUSH2 0x26C5 JUMP JUMPDEST CALLER PUSH1 0x0 DUP2 DUP2 MSTORE PUSH1 0x13 PUSH1 0x20 MSTORE PUSH1 0x40 SWAP1 KECCAK256 SWAP2 SWAP1 SWAP2 SSTORE PUSH2 0xFC5 SWAP1 DUP6 PUSH2 0x1CDE JUMP JUMPDEST POP POP POP POP JUMP JUMPDEST PUSH1 0x11 SLOAD DUP2 SWAP1 PUSH1 0xFF AND ISZERO PUSH2 0xFF0 JUMPI PUSH1 0x40 MLOAD PUSH3 0x461BCD PUSH1 0xE5 SHL DUP2 MSTORE PUSH1 0x4 ADD PUSH2 0xE34 SWAP1 PUSH2 0x2683 JUMP JUMPDEST PUSH1 0x14 DUP2 PUSH2 0x1000 PUSH1 0x2 SLOAD PUSH1 0x1 SLOAD SUB SWAP1 JUMP JUMPDEST PUSH2 0x100A SWAP2 SWAP1 PUSH2 0x26C5 JUMP JUMPDEST GT ISZERO PUSH2 0x1028 JUMPI PUSH1 0x40 MLOAD PUSH3 0x461BCD PUSH1 0xE5 SHL DUP2 MSTORE PUSH1 0x4 ADD PUSH2 0xE34 SWAP1 PUSH2 0x26D8 JUMP JUMPDEST ORIGIN CALLER EQ PUSH2 0x1047 JUMPI PUSH1 0x40 MLOAD PUSH3 0x461BCD PUSH1 0xE5 SHL DUP2 MSTORE PUSH1 0x4 ADD PUSH2 0xE34 SWAP1 PUSH2 0x2707 JUMP JUMPDEST PUSH1 0x11 SLOAD PUSH5 0x100000000 SWAP1 DIV PUSH1 0x1 PUSH1 0x1 PUSH1 0xA0 SHL SUB AND CALLER EQ PUSH2 0x109D JUMPI PUSH1 0x40 MLOAD PUSH3 0x461BCD PUSH1 0xE5 SHL DUP2 MSTORE PUSH1 0x20 PUSH1 0x4 DUP3 ADD MSTORE PUSH1 0x11 PUSH1 0x24 DUP3 ADD MSTORE PUSH17 0x5465616D206D696E74696E67206F6E6C79 PUSH1 0x78 SHL PUSH1 0x44 DUP3 ADD MSTORE PUSH1 0x64 ADD PUSH2 0xE34 JUMP JUMPDEST PUSH1 0xB SLOAD DUP3 PUSH1 0xD SLOAD PUSH2 0x10AE SWAP2 SWAP1 PUSH2 0x26C5 JUMP JUMPDEST GT ISZERO PUSH2 0x10F1 JUMPI PUSH1 0x40 MLOAD PUSH3 0x461BCD PUSH1 0xE5 SHL DUP2 MSTORE PUSH1 0x20 PUSH1 0x4 DUP3 ADD MSTORE PUSH1 0x12 PUSH1 0x24 DUP3 ADD MSTORE PUSH18 0x139BC81D19585B481B5A5B9D1CC81B19599D PUSH1 0x72 SHL PUSH1 0x44 DUP3 ADD MSTORE PUSH1 0x64 ADD PUSH2 0xE34 JUMP JUMPDEST PUSH1 0x5 PUSH2 0x1100 PUSH1 0x2 SLOAD PUSH1 0x1 SLOAD SUB SWAP1 JUMP JUMPDEST LT ISZERO PUSH2 0x114E JUMPI PUSH1 0x40 MLOAD PUSH3 0x461BCD PUSH1 0xE5 SHL DUP2 MSTORE PUSH1 0x20 PUSH1 0x4 DUP3 ADD MSTORE PUSH1 0x1C PUSH1 0x24 DUP3 ADD MSTORE PUSH32 0x5465616D206D696E7473206166746572207075626C69632073616C6500000000 PUSH1 0x44 DUP3 ADD MSTORE PUSH1 0x64 ADD PUSH2 0xE34 JUMP JUMPDEST DUP2 PUSH1 0xD PUSH1 0x0 DUP3 DUP3 SLOAD PUSH2 0x1160 SWAP2 SWAP1 PUSH2 0x26C5 JUMP JUMPDEST SWAP1 SWAP2 SSTORE POP PUSH2 0x1170 SWAP1 POP CALLER DUP4 PUSH2 0x1CDE JUMP JUMPDEST POP POP JUMP JUMPDEST PUSH2 0x117C PUSH2 0x1B37 JUMP JUMPDEST PUSH1 0x12 SLOAD SELFBALANCE SWAP1 PUSH1 0x0 SWAP1 PUSH20 0x11C0A0FFB68A455A0D7DA100803C1BECF82B4AB5 SWAP1 PUSH2 0x2710 SWAP1 PUSH2 0x11A8 SWAP1 DUP6 PUSH2 0x2734 JUMP JUMPDEST PUSH2 0x11B2 SWAP2 SWAP1 PUSH2 0x2761 JUMP JUMPDEST PUSH1 0x40 MLOAD PUSH1 0x0 DUP2 DUP2 DUP2 DUP6 DUP8 GAS CALL SWAP3 POP POP POP RETURNDATASIZE DUP1 PUSH1 0x0 DUP2 EQ PUSH2 0x11EE JUMPI PUSH1 0x40 MLOAD SWAP2 POP PUSH1 0x1F NOT PUSH1 0x3F RETURNDATASIZE ADD AND DUP3 ADD PUSH1 0x40 MSTORE RETURNDATASIZE DUP3 MSTORE RETURNDATASIZE PUSH1 0x0 PUSH1 0x20 DUP5 ADD RETURNDATACOPY PUSH2 0x11F3 JUMP JUMPDEST PUSH1 0x60 SWAP2 POP JUMPDEST POP POP SWAP1 POP DUP1 PUSH2 0x123A JUMPI PUSH1 0x40 MLOAD PUSH3 0x461BCD PUSH1 0xE5 SHL DUP2 MSTORE PUSH1 0x20 PUSH1 0x4 DUP3 ADD MSTORE PUSH1 0x13 PUSH1 0x24 DUP3 ADD MSTORE PUSH19 0x11195D881D1C985B9CD9995C8819985A5B1959 PUSH1 0x6A SHL PUSH1 0x44 DUP3 ADD MSTORE PUSH1 0x64 ADD PUSH2 0xE34 JUMP JUMPDEST PUSH1 0x11 SLOAD PUSH1 0x40 MLOAD PUSH5 0x100000000 SWAP1 SWAP2 DIV PUSH1 0x1 PUSH1 0x1 PUSH1 0xA0 SHL SUB AND SWAP1 SELFBALANCE SWAP1 PUSH1 0x0 DUP2 DUP2 DUP2 DUP6 DUP8 GAS CALL SWAP3 POP POP POP RETURNDATASIZE DUP1 PUSH1 0x0 DUP2 EQ PUSH2 0x128E JUMPI PUSH1 0x40 MLOAD SWAP2 POP PUSH1 0x1F NOT PUSH1 0x3F RETURNDATASIZE ADD AND DUP3 ADD PUSH1 0x40 MSTORE RETURNDATASIZE DUP3 MSTORE RETURNDATASIZE PUSH1 0x0 PUSH1 0x20 DUP5 ADD RETURNDATACOPY PUSH2 0x1293 JUMP JUMPDEST PUSH1 0x60 SWAP2 POP JUMPDEST POP POP DUP1 SWAP2 POP POP DUP1 PUSH2 0x1170 JUMPI PUSH1 0x40 MLOAD PUSH3 0x461BCD PUSH1 0xE5 SHL DUP2 MSTORE PUSH1 0x20 PUSH1 0x4 DUP3 ADD DUP2 SWAP1 MSTORE PUSH1 0x24 DUP3 ADD MSTORE PUSH32 0x5465616D202872656D61696E696E6729207472616E73666572206661696C6564 PUSH1 0x44 DUP3 ADD MSTORE PUSH1 0x64 ADD PUSH2 0xE34 JUMP JUMPDEST PUSH2 0x1301 DUP4 DUP4 DUP4 PUSH1 0x40 MLOAD DUP1 PUSH1 0x20 ADD PUSH1 0x40 MSTORE DUP1 PUSH1 0x0 DUP2 MSTORE POP PUSH2 0x1857 JUMP JUMPDEST POP POP POP JUMP JUMPDEST PUSH1 0x60 PUSH1 0x0 PUSH2 0x1313 DUP4 PUSH2 0x167D JUMP JUMPDEST SWAP1 POP PUSH1 0x0 DUP2 PUSH8 0xFFFFFFFFFFFFFFFF DUP2 GT ISZERO PUSH2 0x1330 JUMPI PUSH2 0x1330 PUSH2 0x2160 JUMP JUMPDEST PUSH1 0x40 MLOAD SWAP1 DUP1 DUP3 MSTORE DUP1 PUSH1 0x20 MUL PUSH1 0x20 ADD DUP3 ADD PUSH1 0x40 MSTORE DUP1 ISZERO PUSH2 0x1359 JUMPI DUP2 PUSH1 0x20 ADD PUSH1 0x20 DUP3 MUL DUP1 CALLDATASIZE DUP4 CALLDATACOPY ADD SWAP1 POP JUMPDEST POP SWAP1 POP PUSH1 0x1 PUSH1 0x0 JUMPDEST DUP4 DUP2 LT DUP1 ISZERO PUSH2 0x1371 JUMPI POP PUSH1 0x14 DUP3 GT ISZERO JUMPDEST ISZERO PUSH2 0x13DB JUMPI PUSH1 0x0 PUSH2 0x1381 DUP4 PUSH2 0x1672 JUMP JUMPDEST SWAP1 POP DUP7 PUSH1 0x1 PUSH1 0x1 PUSH1 0xA0 SHL SUB AND DUP2 PUSH1 0x1 PUSH1 0x1 PUSH1 0xA0 SHL SUB AND SUB PUSH2 0x13C8 JUMPI DUP3 DUP5 DUP4 DUP2 MLOAD DUP2 LT PUSH2 0x13AF JUMPI PUSH2 0x13AF PUSH2 0x2775 JUMP JUMPDEST PUSH1 0x20 SWAP1 DUP2 MUL SWAP2 SWAP1 SWAP2 ADD ADD MSTORE DUP2 PUSH2 0x13C4 DUP2 PUSH2 0x278B JUMP JUMPDEST SWAP3 POP POP JUMPDEST DUP3 PUSH2 0x13D2 DUP2 PUSH2 0x278B JUMP JUMPDEST SWAP4 POP POP POP PUSH2 0x1361 JUMP JUMPDEST POP SWAP1 SWAP5 SWAP4 POP POP POP POP JUMP JUMPDEST PUSH2 0x13ED PUSH2 0x1B37 JUMP JUMPDEST PUSH1 0xF PUSH2 0x1170 DUP3 DUP3 PUSH2 0x27EA JUMP JUMPDEST PUSH2 0x1401 PUSH2 0x1B37 JUMP JUMPDEST PUSH1 0xE PUSH2 0x1170 DUP3 DUP3 PUSH2 0x27EA JUMP JUMPDEST PUSH1 0x10 DUP1 SLOAD PUSH2 0x141A SWAP1 PUSH2 0x2649 JUMP JUMPDEST DUP1 PUSH1 0x1F ADD PUSH1 0x20 DUP1 SWAP2 DIV MUL PUSH1 0x20 ADD PUSH1 0x40 MLOAD SWAP1 DUP2 ADD PUSH1 0x40 MSTORE DUP1 SWAP3 SWAP2 SWAP1 DUP2 DUP2 MSTORE PUSH1 0x20 ADD DUP3 DUP1 SLOAD PUSH2 0x1446 SWAP1 PUSH2 0x2649 JUMP JUMPDEST DUP1 ISZERO PUSH2 0x1493 JUMPI DUP1 PUSH1 0x1F LT PUSH2 0x1468 JUMPI PUSH2 0x100 DUP1 DUP4 SLOAD DIV MUL DUP4 MSTORE SWAP2 PUSH1 0x20 ADD SWAP2 PUSH2 0x1493 JUMP JUMPDEST DUP3 ADD SWAP2 SWAP1 PUSH1 0x0 MSTORE PUSH1 0x20 PUSH1 0x0 KECCAK256 SWAP1 JUMPDEST DUP2 SLOAD DUP2 MSTORE SWAP1 PUSH1 0x1 ADD SWAP1 PUSH1 0x20 ADD DUP1 DUP4 GT PUSH2 0x1476 JUMPI DUP3 SWAP1 SUB PUSH1 0x1F AND DUP3 ADD SWAP2 JUMPDEST POP POP POP POP POP DUP2 JUMP JUMPDEST PUSH1 0x11 SLOAD PUSH1 0x1 SWAP1 PUSH1 0xFF AND ISZERO PUSH2 0x14C1 JUMPI PUSH1 0x40 MLOAD PUSH3 0x461BCD PUSH1 0xE5 SHL DUP2 MSTORE PUSH1 0x4 ADD PUSH2 0xE34 SWAP1 PUSH2 0x2683 JUMP JUMPDEST PUSH1 0x14 DUP2 PUSH2 0x14D1 PUSH1 0x2 SLOAD PUSH1 0x1 SLOAD SUB SWAP1 JUMP JUMPDEST PUSH2 0x14DB SWAP2 SWAP1 PUSH2 0x26C5 JUMP JUMPDEST GT ISZERO PUSH2 0x14F9 JUMPI PUSH1 0x40 MLOAD PUSH3 0x461BCD PUSH1 0xE5 SHL DUP2 MSTORE PUSH1 0x4 ADD PUSH2 0xE34 SWAP1 PUSH2 0x26D8 JUMP JUMPDEST ORIGIN CALLER EQ PUSH2 0x1518 JUMPI PUSH1 0x40 MLOAD PUSH3 0x461BCD PUSH1 0xE5 SHL DUP2 MSTORE PUSH1 0x4 ADD PUSH2 0xE34 SWAP1 PUSH2 0x2707 JUMP JUMPDEST PUSH1 0x11 SLOAD PUSH3 0x10000 SWAP1 DIV PUSH1 0xFF AND PUSH2 0x1570 JUMPI PUSH1 0x40 MLOAD PUSH3 0x461BCD PUSH1 0xE5 SHL DUP2 MSTORE PUSH1 0x20 PUSH1 0x4 DUP3 ADD MSTORE PUSH1 0x18 PUSH1 0x24 DUP3 ADD MSTORE PUSH32 0x616C6C6F77204C6973742073616C6520696E6163746976650000000000000000 PUSH1 0x44 DUP3 ADD MSTORE PUSH1 0x64 ADD PUSH2 0xE34 JUMP JUMPDEST PUSH2 0x157C DUP3 PUSH1 0x9 SLOAD PUSH2 0x1CF8 JUMP JUMPDEST PUSH2 0x15B9 JUMPI PUSH1 0x40 MLOAD PUSH3 0x461BCD PUSH1 0xE5 SHL DUP2 MSTORE PUSH1 0x20 PUSH1 0x4 DUP3 ADD MSTORE PUSH1 0xE PUSH1 0x24 DUP3 ADD MSTORE PUSH14 0x155CD95C881B9BDD081BDB8815D3 PUSH1 0x92 SHL PUSH1 0x44 DUP3 ADD MSTORE PUSH1 0x64 ADD PUSH2 0xE34 JUMP JUMPDEST CALLER PUSH1 0x0 SWAP1 DUP2 MSTORE PUSH1 0x14 PUSH1 0x20 MSTORE PUSH1 0x40 SWAP1 KECCAK256 SLOAD PUSH7 0x38D7EA4C68000 SWAP1 PUSH1 0xFF AND ISZERO PUSH2 0x161B JUMPI PUSH1 0x40 MLOAD PUSH3 0x461BCD PUSH1 0xE5 SHL DUP2 MSTORE PUSH1 0x20 PUSH1 0x4 DUP3 ADD MSTORE PUSH1 0x16 PUSH1 0x24 DUP3 ADD MSTORE PUSH22 0x155CD95C88185B1C9958591E481B5A5B9D19590815D3 PUSH1 0x52 SHL PUSH1 0x44 DUP3 ADD MSTORE PUSH1 0x64 ADD PUSH2 0xE34 JUMP JUMPDEST PUSH2 0x1624 DUP2 PUSH2 0x1BFF JUMP JUMPDEST CALLER PUSH1 0x0 DUP2 DUP2 MSTORE PUSH1 0x14 PUSH1 0x20 MSTORE PUSH1 0x40 SWAP1 KECCAK256 DUP1 SLOAD PUSH1 0xFF NOT AND PUSH1 0x1 SWAP1 DUP2 OR SWAP1 SWAP2 SSTORE PUSH2 0x1301 SWAP2 SWAP1 PUSH2 0x1CDE JUMP JUMPDEST PUSH2 0x1653 PUSH2 0x1B37 JUMP JUMPDEST PUSH1 0x11 DUP1 SLOAD PUSH2 0xFF00 NOT AND PUSH2 0x100 DUP5 ISZERO ISZERO MUL OR SWAP1 SSTORE PUSH1 0xE PUSH2 0x1301 DUP3 DUP3 PUSH2 0x27EA JUMP JUMPDEST PUSH1 0x0 PUSH2 0xA9C DUP3 PUSH2 0x1B91 JUMP JUMPDEST PUSH1 0x0 PUSH1 0x1 PUSH1 0x1 PUSH1 0xA0 SHL SUB DUP3 AND PUSH2 0x16A6 JUMPI PUSH1 0x40 MLOAD PUSH4 0x23D3AD81 PUSH1 0xE2 SHL DUP2 MSTORE PUSH1 0x4 ADD PUSH1 0x40 MLOAD DUP1 SWAP2 SUB SWAP1 REVERT JUMPDEST POP PUSH1 0x1 PUSH1 0x1 PUSH1 0xA0 SHL SUB AND PUSH1 0x0 SWAP1 DUP2 MSTORE PUSH1 0x6 PUSH1 0x20 MSTORE PUSH1 0x40 SWAP1 KECCAK256 SLOAD PUSH8 0xFFFFFFFFFFFFFFFF AND SWAP1 JUMP JUMPDEST PUSH2 0x16D4 PUSH2 0x1B37 JUMP JUMPDEST PUSH2 0x16DE PUSH1 0x0 PUSH2 0x1D26 JUMP JUMPDEST JUMP JUMPDEST PUSH2 0x16E8 PUSH2 0x1B37 JUMP JUMPDEST PUSH1 0xA SSTORE JUMP JUMPDEST PUSH2 0x16F5 PUSH2 0x1B37 JUMP JUMPDEST PUSH1 0x11 DUP1 SLOAD SWAP2 ISZERO ISZERO PUSH4 0x1000000 MUL PUSH4 0xFF000000 NOT SWAP1 SWAP3 AND SWAP2 SWAP1 SWAP2 OR SWAP1 SSTORE JUMP JUMPDEST PUSH2 0x171B PUSH2 0x1B37 JUMP JUMPDEST PUSH1 0x9 SSTORE JUMP JUMPDEST PUSH1 0xF DUP1 SLOAD PUSH2 0x141A SWAP1 PUSH2 0x2649 JUMP JUMPDEST PUSH2 0x1735 PUSH2 0x1B37 JUMP JUMPDEST PUSH1 0x11 SLOAD DUP3 SWAP1 PUSH1 0xFF AND ISZERO PUSH2 0x175A JUMPI PUSH1 0x40 MLOAD PUSH3 0x461BCD PUSH1 0xE5 SHL DUP2 MSTORE PUSH1 0x4 ADD PUSH2 0xE34 SWAP1 PUSH2 0x2683 JUMP JUMPDEST PUSH1 0x14 DUP2 PUSH2 0x176A PUSH1 0x2 SLOAD PUSH1 0x1 SLOAD SUB SWAP1 JUMP JUMPDEST PUSH2 0x1774 SWAP2 SWAP1 PUSH2 0x26C5 JUMP JUMPDEST GT ISZERO PUSH2 0x1792 JUMPI PUSH1 0x40 MLOAD PUSH3 0x461BCD PUSH1 0xE5 SHL DUP2 MSTORE PUSH1 0x4 ADD PUSH2 0xE34 SWAP1 PUSH2 0x26D8 JUMP JUMPDEST ORIGIN CALLER EQ PUSH2 0x17B1 JUMPI PUSH1 0x40 MLOAD PUSH3 0x461BCD PUSH1 0xE5 SHL DUP2 MSTORE PUSH1 0x4 ADD PUSH2 0xE34 SWAP1 PUSH2 0x2707 JUMP JUMPDEST PUSH2 0x1301 DUP3 DUP5 PUSH2 0x1CDE JUMP JUMPDEST PUSH2 0x17C3 PUSH2 0x1B37 JUMP JUMPDEST PUSH1 0x10 PUSH2 0x1170 DUP3 DUP3 PUSH2 0x27EA JUMP JUMPDEST PUSH1 0x60 PUSH1 0x4 DUP1 SLOAD PUSH2 0xAB1 SWAP1 PUSH2 0x2649 JUMP JUMPDEST CALLER PUSH1 0x0 DUP2 DUP2 MSTORE PUSH1 0x8 PUSH1 0x20 SWAP1 DUP2 MSTORE PUSH1 0x40 DUP1 DUP4 KECCAK256 PUSH1 0x1 PUSH1 0x1 PUSH1 0xA0 SHL SUB DUP8 AND DUP1 DUP6 MSTORE SWAP1 DUP4 MSTORE SWAP3 DUP2 SWAP1 KECCAK256 DUP1 SLOAD PUSH1 0xFF NOT AND DUP7 ISZERO ISZERO SWAP1 DUP2 OR SWAP1 SWAP2 SSTORE SWAP1 MLOAD SWAP1 DUP2 MSTORE SWAP2 SWAP3 SWAP2 PUSH32 0x17307EAB39AB6107E8899845AD3D59BD9653F200F220920489CA2B5937696C31 SWAP2 ADD PUSH1 0x40 MLOAD DUP1 SWAP2 SUB SWAP1 LOG3 POP POP JUMP JUMPDEST PUSH2 0x1852 PUSH2 0x1B37 JUMP JUMPDEST PUSH1 0x12 SSTORE JUMP JUMPDEST PUSH2 0x1862 DUP5 DUP5 DUP5 PUSH2 0xC40 JUMP JUMPDEST PUSH1 0x1 PUSH1 0x1 PUSH1 0xA0 SHL SUB DUP4 AND EXTCODESIZE ISZERO PUSH2 0xFC5 JUMPI PUSH2 0x187E DUP5 DUP5 DUP5 DUP5 PUSH2 0x1D76 JUMP JUMPDEST PUSH2 0xFC5 JUMPI PUSH1 0x40 MLOAD PUSH4 0x68D2BF6B PUSH1 0xE1 SHL DUP2 MSTORE PUSH1 0x4 ADD PUSH1 0x40 MLOAD DUP1 SWAP2 SUB SWAP1 REVERT JUMPDEST PUSH2 0x18A3 PUSH2 0x1B37 JUMP JUMPDEST PUSH1 0xC SSTORE JUMP JUMPDEST PUSH1 0x60 PUSH2 0x18B3 DUP3 PUSH2 0x1B0F JUMP JUMPDEST PUSH2 0x1917 JUMPI PUSH1 0x40 MLOAD PUSH3 0x461BCD PUSH1 0xE5 SHL DUP2 MSTORE PUSH1 0x20 PUSH1 0x4 DUP3 ADD MSTORE PUSH1 0x2F PUSH1 0x24 DUP3 ADD MSTORE PUSH32 0x4552433732314D657461646174613A2055524920717565727920666F72206E6F PUSH1 0x44 DUP3 ADD MSTORE PUSH15 0x3732BC34B9BA32B73A103A37B5B2B7 PUSH1 0x89 SHL PUSH1 0x64 DUP3 ADD MSTORE PUSH1 0x84 ADD PUSH2 0xE34 JUMP JUMPDEST PUSH1 0x11 SLOAD PUSH2 0x100 SWAP1 DIV PUSH1 0xFF AND ISZERO PUSH2 0x1959 JUMPI PUSH1 0xE PUSH2 0x1932 DUP4 PUSH2 0x1E61 JUMP JUMPDEST PUSH1 0x40 MLOAD PUSH1 0x20 ADD PUSH2 0x1943 SWAP3 SWAP2 SWAP1 PUSH2 0x28AA JUMP JUMPDEST PUSH1 0x40 MLOAD PUSH1 0x20 DUP2 DUP4 SUB SUB DUP2 MSTORE SWAP1 PUSH1 0x40 MSTORE SWAP1 POP SWAP2 SWAP1 POP JUMP JUMPDEST PUSH1 0xF DUP1 SLOAD PUSH2 0x1966 SWAP1 PUSH2 0x2649 JUMP JUMPDEST DUP1 PUSH1 0x1F ADD PUSH1 0x20 DUP1 SWAP2 DIV MUL PUSH1 0x20 ADD PUSH1 0x40 MLOAD SWAP1 DUP2 ADD PUSH1 0x40 MSTORE DUP1 SWAP3 SWAP2 SWAP1 DUP2 DUP2 MSTORE PUSH1 0x20 ADD DUP3 DUP1 SLOAD PUSH2 0x1992 SWAP1 PUSH2 0x2649 JUMP JUMPDEST DUP1 ISZERO PUSH2 0x19DF JUMPI DUP1 PUSH1 0x1F LT PUSH2 0x19B4 JUMPI PUSH2 0x100 DUP1 DUP4 SLOAD DIV MUL DUP4 MSTORE SWAP2 PUSH1 0x20 ADD SWAP2 PUSH2 0x19DF JUMP JUMPDEST DUP3 ADD SWAP2 SWAP1 PUSH1 0x0 MSTORE PUSH1 0x20 PUSH1 0x0 KECCAK256 SWAP1 JUMPDEST DUP2 SLOAD DUP2 MSTORE SWAP1 PUSH1 0x1 ADD SWAP1 PUSH1 0x20 ADD DUP1 DUP4 GT PUSH2 0x19C2 JUMPI DUP3 SWAP1 SUB PUSH1 0x1F AND DUP3 ADD SWAP2 JUMPDEST POP POP POP POP POP SWAP1 POP SWAP2 SWAP1 POP JUMP JUMPDEST SWAP2 SWAP1 POP JUMP JUMPDEST PUSH2 0x19F8 PUSH2 0x1B37 JUMP JUMPDEST PUSH1 0x11 DUP1 SLOAD SWAP2 ISZERO ISZERO PUSH2 0x100 MUL PUSH2 0xFF00 NOT SWAP1 SWAP3 AND SWAP2 SWAP1 SWAP2 OR SWAP1 SSTORE JUMP JUMPDEST PUSH1 0x60 PUSH1 0x10 DUP1 SLOAD PUSH2 0xAB1 SWAP1 PUSH2 0x2649 JUMP JUMPDEST PUSH1 0x1 PUSH1 0x1 PUSH1 0xA0 SHL SUB SWAP2 DUP3 AND PUSH1 0x0 SWAP1 DUP2 MSTORE PUSH1 0x8 PUSH1 0x20 SWAP1 DUP2 MSTORE PUSH1 0x40 DUP1 DUP4 KECCAK256 SWAP4 SWAP1 SWAP5 AND DUP3 MSTORE SWAP2 SWAP1 SWAP2 MSTORE KECCAK256 SLOAD PUSH1 0xFF AND SWAP1 JUMP JUMPDEST PUSH2 0x1A57 PUSH2 0x1B37 JUMP JUMPDEST PUSH1 0x11 DUP1 SLOAD SWAP2 ISZERO ISZERO PUSH3 0x10000 MUL PUSH3 0xFF0000 NOT SWAP1 SWAP3 AND SWAP2 SWAP1 SWAP2 OR SWAP1 SSTORE JUMP JUMPDEST PUSH2 0x1A7B PUSH2 0x1B37 JUMP JUMPDEST PUSH1 0x1 PUSH1 0x1 PUSH1 0xA0 SHL SUB DUP2 AND PUSH2 0x1AE0 JUMPI PUSH1 0x40 MLOAD PUSH3 0x461BCD PUSH1 0xE5 SHL DUP2 MSTORE PUSH1 0x20 PUSH1 0x4 DUP3 ADD MSTORE PUSH1 0x26 PUSH1 0x24 DUP3 ADD MSTORE PUSH32 0x4F776E61626C653A206E6577206F776E657220697320746865207A65726F2061 PUSH1 0x44 DUP3 ADD MSTORE PUSH6 0x646472657373 PUSH1 0xD0 SHL PUSH1 0x64 DUP3 ADD MSTORE PUSH1 0x84 ADD PUSH2 0xE34 JUMP JUMPDEST PUSH2 0x1AE9 DUP2 PUSH2 0x1D26 JUMP JUMPDEST POP JUMP JUMPDEST PUSH1 0xE DUP1 SLOAD PUSH2 0x141A SWAP1 PUSH2 0x2649 JUMP JUMPDEST PUSH1 0x0 DUP3 PUSH2 0x1B06 DUP6 DUP5 PUSH2 0x1F62 JUMP JUMPDEST EQ SWAP5 SWAP4 POP POP POP POP JUMP JUMPDEST PUSH1 0x0 PUSH1 0x1 SLOAD DUP3 LT DUP1 ISZERO PUSH2 0xA9C JUMPI POP POP PUSH1 0x0 SWAP1 DUP2 MSTORE PUSH1 0x5 PUSH1 0x20 MSTORE PUSH1 0x40 SWAP1 KECCAK256 SLOAD PUSH1 0x1 PUSH1 0xE0 SHL AND ISZERO SWAP1 JUMP JUMPDEST PUSH1 0x0 SLOAD PUSH1 0x1 PUSH1 0x1 PUSH1 0xA0 SHL SUB AND CALLER EQ PUSH2 0x16DE JUMPI PUSH1 0x40 MLOAD PUSH3 0x461BCD PUSH1 0xE5 SHL DUP2 MSTORE PUSH1 0x20 PUSH1 0x4 DUP3 ADD DUP2 SWAP1 MSTORE PUSH1 0x24 DUP3 ADD MSTORE PUSH32 0x4F776E61626C653A2063616C6C6572206973206E6F7420746865206F776E6572 PUSH1 0x44 DUP3 ADD MSTORE PUSH1 0x64 ADD PUSH2 0xE34 JUMP JUMPDEST PUSH1 0x0 DUP2 PUSH1 0x1 SLOAD DUP2 LT ISZERO PUSH2 0x1BE6 JUMPI PUSH1 0x0 DUP2 DUP2 MSTORE PUSH1 0x5 PUSH1 0x20 MSTORE PUSH1 0x40 DUP2 KECCAK256 SLOAD SWAP1 PUSH1 0x1 PUSH1 0xE0 SHL DUP3 AND SWAP1 SUB PUSH2 0x1BE4 JUMPI JUMPDEST DUP1 PUSH1 0x0 SUB PUSH2 0x1BDD JUMPI POP PUSH1 0x0 NOT ADD PUSH1 0x0 DUP2 DUP2 MSTORE PUSH1 0x5 PUSH1 0x20 MSTORE PUSH1 0x40 SWAP1 KECCAK256 SLOAD PUSH2 0x1BBC JUMP JUMPDEST SWAP4 SWAP3 POP POP POP JUMP JUMPDEST POP JUMPDEST PUSH1 0x40 MLOAD PUSH4 0x6F96CDA1 PUSH1 0xE1 SHL DUP2 MSTORE PUSH1 0x4 ADD PUSH1 0x40 MLOAD DUP1 SWAP2 SUB SWAP1 REVERT JUMPDEST DUP1 CALLVALUE GT ISZERO PUSH2 0x1C98 JUMPI PUSH1 0x0 CALLER PUSH2 0x1C14 DUP4 CALLVALUE PUSH2 0x2941 JUMP JUMPDEST PUSH1 0x40 MLOAD PUSH1 0x0 DUP2 DUP2 DUP2 DUP6 DUP8 GAS CALL SWAP3 POP POP POP RETURNDATASIZE DUP1 PUSH1 0x0 DUP2 EQ PUSH2 0x1C50 JUMPI PUSH1 0x40 MLOAD SWAP2 POP PUSH1 0x1F NOT PUSH1 0x3F RETURNDATASIZE ADD AND DUP3 ADD PUSH1 0x40 MSTORE RETURNDATASIZE DUP3 MSTORE RETURNDATASIZE PUSH1 0x0 PUSH1 0x20 DUP5 ADD RETURNDATACOPY PUSH2 0x1C55 JUMP JUMPDEST PUSH1 0x60 SWAP2 POP JUMPDEST POP POP SWAP1 POP DUP1 PUSH2 0x1170 JUMPI PUSH1 0x40 MLOAD PUSH3 0x461BCD PUSH1 0xE5 SHL DUP2 MSTORE PUSH1 0x20 PUSH1 0x4 DUP3 ADD MSTORE PUSH1 0xF PUSH1 0x24 DUP3 ADD MSTORE PUSH15 0x151C985B9CD9995C8819985A5B1959 PUSH1 0x8A SHL PUSH1 0x44 DUP3 ADD MSTORE PUSH1 0x64 ADD PUSH2 0xE34 JUMP JUMPDEST DUP1 CALLVALUE LT ISZERO PUSH2 0x1AE9 JUMPI PUSH1 0x40 MLOAD PUSH3 0x461BCD PUSH1 0xE5 SHL DUP2 MSTORE PUSH1 0x20 PUSH1 0x4 DUP3 ADD MSTORE PUSH1 0x13 PUSH1 0x24 DUP3 ADD MSTORE PUSH19 0x139BDD08195B9BDD59DA08115512081CD95B9D PUSH1 0x6A SHL PUSH1 0x44 DUP3 ADD MSTORE PUSH1 0x64 ADD PUSH2 0xE34 JUMP JUMPDEST PUSH2 0x1170 DUP3 DUP3 PUSH1 0x40 MLOAD DUP1 PUSH1 0x20 ADD PUSH1 0x40 MSTORE DUP1 PUSH1 0x0 DUP2 MSTORE POP PUSH2 0x1FAF JUMP JUMPDEST PUSH1 0x40 MLOAD PUSH12 0xFFFFFFFFFFFFFFFFFFFFFFFF NOT CALLER PUSH1 0x60 SHL AND PUSH1 0x20 DUP3 ADD MSTORE PUSH1 0x0 SWAP1 PUSH2 0x1BDD SWAP1 DUP5 SWAP1 DUP5 SWAP1 PUSH1 0x34 ADD PUSH2 0xA2D JUMP JUMPDEST PUSH1 0x0 DUP1 SLOAD PUSH1 0x1 PUSH1 0x1 PUSH1 0xA0 SHL SUB DUP4 DUP2 AND PUSH1 0x1 PUSH1 0x1 PUSH1 0xA0 SHL SUB NOT DUP4 AND DUP2 OR DUP5 SSTORE PUSH1 0x40 MLOAD SWAP2 SWAP1 SWAP3 AND SWAP3 DUP4 SWAP2 PUSH32 0x8BE0079C531659141344CD1FD0A4F28419497F9722A3DAAFE3B4186F6B6457E0 SWAP2 SWAP1 LOG3 POP POP JUMP JUMPDEST PUSH1 0x40 MLOAD PUSH4 0xA85BD01 PUSH1 0xE1 SHL DUP2 MSTORE PUSH1 0x0 SWAP1 PUSH1 0x1 PUSH1 0x1 PUSH1 0xA0 SHL SUB DUP6 AND SWAP1 PUSH4 0x150B7A02 SWAP1 PUSH2 0x1DAB SWAP1 CALLER SWAP1 DUP10 SWAP1 DUP9 SWAP1 DUP9 SWAP1 PUSH1 0x4 ADD PUSH2 0x2954 JUMP JUMPDEST PUSH1 0x20 PUSH1 0x40 MLOAD DUP1 DUP4 SUB DUP2 PUSH1 0x0 DUP8 GAS CALL SWAP3 POP POP POP DUP1 ISZERO PUSH2 0x1DE6 JUMPI POP PUSH1 0x40 DUP1 MLOAD PUSH1 0x1F RETURNDATASIZE SWAP1 DUP2 ADD PUSH1 0x1F NOT AND DUP3 ADD SWAP1 SWAP3 MSTORE PUSH2 0x1DE3 SWAP2 DUP2 ADD SWAP1 PUSH2 0x2991 JUMP JUMPDEST PUSH1 0x1 JUMPDEST PUSH2 0x1E44 JUMPI RETURNDATASIZE DUP1 DUP1 ISZERO PUSH2 0x1E14 JUMPI PUSH1 0x40 MLOAD SWAP2 POP PUSH1 0x1F NOT PUSH1 0x3F RETURNDATASIZE ADD AND DUP3 ADD PUSH1 0x40 MSTORE RETURNDATASIZE DUP3 MSTORE RETURNDATASIZE PUSH1 0x0 PUSH1 0x20 DUP5 ADD RETURNDATACOPY PUSH2 0x1E19 JUMP JUMPDEST PUSH1 0x60 SWAP2 POP JUMPDEST POP DUP1 MLOAD PUSH1 0x0 SUB PUSH2 0x1E3C JUMPI PUSH1 0x40 MLOAD PUSH4 0x68D2BF6B PUSH1 0xE1 SHL DUP2 MSTORE PUSH1 0x4 ADD PUSH1 0x40 MLOAD DUP1 SWAP2 SUB SWAP1 REVERT JUMPDEST DUP1 MLOAD DUP2 PUSH1 0x20 ADD REVERT JUMPDEST PUSH1 0x1 PUSH1 0x1 PUSH1 0xE0 SHL SUB NOT AND PUSH4 0xA85BD01 PUSH1 0xE1 SHL EQ SWAP1 POP SWAP5 SWAP4 POP POP POP POP JUMP JUMPDEST PUSH1 0x60 DUP2 PUSH1 0x0 SUB PUSH2 0x1E88 JUMPI POP POP PUSH1 0x40 DUP1 MLOAD DUP1 DUP3 ADD SWAP1 SWAP2 MSTORE PUSH1 0x1 DUP2 MSTORE PUSH1 0x3 PUSH1 0xFC SHL PUSH1 0x20 DUP3 ADD MSTORE SWAP1 JUMP JUMPDEST DUP2 PUSH1 0x0 JUMPDEST DUP2 ISZERO PUSH2 0x1EB2 JUMPI DUP1 PUSH2 0x1E9C DUP2 PUSH2 0x278B JUMP JUMPDEST SWAP2 POP PUSH2 0x1EAB SWAP1 POP PUSH1 0xA DUP4 PUSH2 0x2761 JUMP JUMPDEST SWAP2 POP PUSH2 0x1E8C JUMP JUMPDEST PUSH1 0x0 DUP2 PUSH8 0xFFFFFFFFFFFFFFFF DUP2 GT ISZERO PUSH2 0x1ECD JUMPI PUSH2 0x1ECD PUSH2 0x2160 JUMP JUMPDEST PUSH1 0x40 MLOAD SWAP1 DUP1 DUP3 MSTORE DUP1 PUSH1 0x1F ADD PUSH1 0x1F NOT AND PUSH1 0x20 ADD DUP3 ADD PUSH1 0x40 MSTORE DUP1 ISZERO PUSH2 0x1EF7 JUMPI PUSH1 0x20 DUP3 ADD DUP2 DUP1 CALLDATASIZE DUP4 CALLDATACOPY ADD SWAP1 POP JUMPDEST POP SWAP1 POP JUMPDEST DUP5 ISZERO PUSH2 0xA48 JUMPI PUSH2 0x1F0C PUSH1 0x1 DUP4 PUSH2 0x2941 JUMP JUMPDEST SWAP2 POP PUSH2 0x1F19 PUSH1 0xA DUP7 PUSH2 0x29AE JUMP JUMPDEST PUSH2 0x1F24 SWAP1 PUSH1 0x30 PUSH2 0x26C5 JUMP JUMPDEST PUSH1 0xF8 SHL DUP2 DUP4 DUP2 MLOAD DUP2 LT PUSH2 0x1F39 JUMPI PUSH2 0x1F39 PUSH2 0x2775 JUMP JUMPDEST PUSH1 0x20 ADD ADD SWAP1 PUSH1 0x1 PUSH1 0x1 PUSH1 0xF8 SHL SUB NOT AND SWAP1 DUP2 PUSH1 0x0 BYTE SWAP1 MSTORE8 POP PUSH2 0x1F5B PUSH1 0xA DUP7 PUSH2 0x2761 JUMP JUMPDEST SWAP5 POP PUSH2 0x1EFB JUMP JUMPDEST PUSH1 0x0 DUP2 DUP2 JUMPDEST DUP5 MLOAD DUP2 LT ISZERO PUSH2 0x1FA7 JUMPI PUSH2 0x1F93 DUP3 DUP7 DUP4 DUP2 MLOAD DUP2 LT PUSH2 0x1F86 JUMPI PUSH2 0x1F86 PUSH2 0x2775 JUMP JUMPDEST PUSH1 0x20 MUL PUSH1 0x20 ADD ADD MLOAD PUSH2 0x201C JUMP JUMPDEST SWAP2 POP DUP1 PUSH2 0x1F9F DUP2 PUSH2 0x278B JUMP JUMPDEST SWAP2 POP POP PUSH2 0x1F67 JUMP JUMPDEST POP SWAP4 SWAP3 POP POP POP JUMP JUMPDEST PUSH2 0x1FB9 DUP4 DUP4 PUSH2 0x204B JUMP JUMPDEST PUSH1 0x1 PUSH1 0x1 PUSH1 0xA0 SHL SUB DUP4 AND EXTCODESIZE ISZERO PUSH2 0x1301 JUMPI PUSH1 0x1 SLOAD DUP3 DUP2 SUB JUMPDEST PUSH2 0x1FE3 PUSH1 0x0 DUP7 DUP4 DUP1 PUSH1 0x1 ADD SWAP5 POP DUP7 PUSH2 0x1D76 JUMP JUMPDEST PUSH2 0x2000 JUMPI PUSH1 0x40 MLOAD PUSH4 0x68D2BF6B PUSH1 0xE1 SHL DUP2 MSTORE PUSH1 0x4 ADD PUSH1 0x40 MLOAD DUP1 SWAP2 SUB SWAP1 REVERT JUMPDEST DUP2 DUP2 LT PUSH2 0x1FD0 JUMPI DUP2 PUSH1 0x1 SLOAD EQ PUSH2 0x2015 JUMPI PUSH1 0x0 DUP1 REVERT JUMPDEST POP POP POP POP POP JUMP JUMPDEST PUSH1 0x0 DUP2 DUP4 LT PUSH2 0x2038 JUMPI PUSH1 0x0 DUP3 DUP2 MSTORE PUSH1 0x20 DUP5 SWAP1 MSTORE PUSH1 0x40 SWAP1 KECCAK256 PUSH2 0x1BDD JUMP JUMPDEST PUSH1 0x0 DUP4 DUP2 MSTORE PUSH1 0x20 DUP4 SWAP1 MSTORE PUSH1 0x40 SWAP1 KECCAK256 PUSH2 0x1BDD JUMP JUMPDEST PUSH1 0x1 SLOAD PUSH1 0x0 DUP3 SWAP1 SUB PUSH2 0x2070 JUMPI PUSH1 0x40 MLOAD PUSH4 0xB562E8DD PUSH1 0xE0 SHL DUP2 MSTORE PUSH1 0x4 ADD PUSH1 0x40 MLOAD DUP1 SWAP2 SUB SWAP1 REVERT JUMPDEST PUSH1 0x1 PUSH1 0x1 PUSH1 0xA0 SHL SUB DUP4 AND PUSH1 0x0 DUP2 DUP2 MSTORE PUSH1 0x6 PUSH1 0x20 SWAP1 DUP2 MSTORE PUSH1 0x40 DUP1 DUP4 KECCAK256 DUP1 SLOAD PUSH9 0x10000000000000001 DUP9 MUL ADD SWAP1 SSTORE DUP5 DUP4 MSTORE PUSH1 0x5 SWAP1 SWAP2 MSTORE DUP2 KECCAK256 PUSH1 0x1 DUP6 EQ PUSH1 0xE1 SHL TIMESTAMP PUSH1 0xA0 SHL OR DUP4 OR SWAP1 SSTORE DUP3 DUP5 ADD SWAP1 DUP4 SWAP1 DUP4 SWAP1 PUSH32 0xDDF252AD1BE2C89B69C2B068FC378DAA952BA7F163C4A11628F55A4DF523B3EF DUP2 DUP1 LOG4 PUSH1 0x1 DUP4 ADD JUMPDEST DUP2 DUP2 EQ PUSH2 0x211F JUMPI DUP1 DUP4 PUSH1 0x0 PUSH32 0xDDF252AD1BE2C89B69C2B068FC378DAA952BA7F163C4A11628F55A4DF523B3EF PUSH1 0x0 DUP1 LOG4 PUSH1 0x1 ADD PUSH2 0x20E7 JUMP JUMPDEST POP DUP2 PUSH1 0x0 SUB PUSH2 0x2140 JUMPI PUSH1 0x40 MLOAD PUSH3 0x2E0763 PUSH1 0xE8 SHL DUP2 MSTORE PUSH1 0x4 ADD PUSH1 0x40 MLOAD DUP1 SWAP2 SUB SWAP1 REVERT JUMPDEST PUSH1 0x1 SSTORE POP POP POP POP JUMP JUMPDEST DUP1 CALLDATALOAD PUSH1 0x1 PUSH1 0x1 PUSH1 0xA0 SHL SUB DUP2 AND DUP2 EQ PUSH2 0x19EB JUMPI PUSH1 0x0 DUP1 REVERT JUMPDEST PUSH4 0x4E487B71 PUSH1 0xE0 SHL PUSH1 0x0 MSTORE PUSH1 0x41 PUSH1 0x4 MSTORE PUSH1 0x24 PUSH1 0x0 REVERT JUMPDEST PUSH1 0x40 MLOAD PUSH1 0x1F DUP3 ADD PUSH1 0x1F NOT AND DUP2 ADD PUSH8 0xFFFFFFFFFFFFFFFF DUP2 GT DUP3 DUP3 LT OR ISZERO PUSH2 0x219F JUMPI PUSH2 0x219F PUSH2 0x2160 JUMP JUMPDEST PUSH1 0x40 MSTORE SWAP2 SWAP1 POP JUMP JUMPDEST PUSH1 0x0 DUP3 PUSH1 0x1F DUP4 ADD SLT PUSH2 0x21B8 JUMPI PUSH1 0x0 DUP1 REVERT JUMPDEST DUP2 CALLDATALOAD PUSH1 0x20 PUSH8 0xFFFFFFFFFFFFFFFF DUP3 GT ISZERO PUSH2 0x21D4 JUMPI PUSH2 0x21D4 PUSH2 0x2160 JUMP JUMPDEST DUP2 PUSH1 0x5 SHL PUSH2 0x21E3 DUP3 DUP3 ADD PUSH2 0x2176 JUMP JUMPDEST SWAP3 DUP4 MSTORE DUP5 DUP2 ADD DUP3 ADD SWAP3 DUP3 DUP2 ADD SWAP1 DUP8 DUP6 GT ISZERO PUSH2 0x21FD JUMPI PUSH1 0x0 DUP1 REVERT JUMPDEST DUP4 DUP8 ADD SWAP3 POP JUMPDEST DUP5 DUP4 LT ISZERO PUSH2 0x221C JUMPI DUP3 CALLDATALOAD DUP3 MSTORE SWAP2 DUP4 ADD SWAP2 SWAP1 DUP4 ADD SWAP1 PUSH2 0x2203 JUMP JUMPDEST SWAP8 SWAP7 POP POP POP POP POP POP POP JUMP JUMPDEST PUSH1 0x0 DUP1 PUSH1 0x0 PUSH1 0x60 DUP5 DUP7 SUB SLT ISZERO PUSH2 0x223C JUMPI PUSH1 0x0 DUP1 REVERT JUMPDEST PUSH2 0x2245 DUP5 PUSH2 0x2149 JUMP JUMPDEST SWAP3 POP PUSH1 0x20 DUP5 ADD CALLDATALOAD PUSH8 0xFFFFFFFFFFFFFFFF DUP2 GT ISZERO PUSH2 0x2261 JUMPI PUSH1 0x0 DUP1 REVERT JUMPDEST PUSH2 0x226D DUP7 DUP3 DUP8 ADD PUSH2 0x21A7 JUMP JUMPDEST SWAP3 POP POP PUSH1 0x40 DUP5 ADD CALLDATALOAD SWAP1 POP SWAP3 POP SWAP3 POP SWAP3 JUMP JUMPDEST PUSH1 0x1 PUSH1 0x1 PUSH1 0xE0 SHL SUB NOT DUP2 AND DUP2 EQ PUSH2 0x1AE9 JUMPI PUSH1 0x0 DUP1 REVERT JUMPDEST PUSH1 0x0 PUSH1 0x20 DUP3 DUP5 SUB SLT ISZERO PUSH2 0x22A6 JUMPI PUSH1 0x0 DUP1 REVERT JUMPDEST DUP2 CALLDATALOAD PUSH2 0x1BDD DUP2 PUSH2 0x227E JUMP JUMPDEST PUSH1 0x0 JUMPDEST DUP4 DUP2 LT ISZERO PUSH2 0x22CC JUMPI DUP2 DUP2 ADD MLOAD DUP4 DUP3 ADD MSTORE PUSH1 0x20 ADD PUSH2 0x22B4 JUMP JUMPDEST POP POP PUSH1 0x0 SWAP2 ADD MSTORE JUMP JUMPDEST PUSH1 0x0 DUP2 MLOAD DUP1 DUP5 MSTORE PUSH2 0x22ED DUP2 PUSH1 0x20 DUP7 ADD PUSH1 0x20 DUP7 ADD PUSH2 0x22B1 JUMP JUMPDEST PUSH1 0x1F ADD PUSH1 0x1F NOT AND SWAP3 SWAP1 SWAP3 ADD PUSH1 0x20 ADD SWAP3 SWAP2 POP POP JUMP JUMPDEST PUSH1 0x20 DUP2 MSTORE PUSH1 0x0 PUSH2 0x1BDD PUSH1 0x20 DUP4 ADD DUP5 PUSH2 0x22D5 JUMP JUMPDEST PUSH1 0x0 PUSH1 0x20 DUP3 DUP5 SUB SLT ISZERO PUSH2 0x2326 JUMPI PUSH1 0x0 DUP1 REVERT JUMPDEST POP CALLDATALOAD SWAP2 SWAP1 POP JUMP JUMPDEST PUSH1 0x0 DUP1 PUSH1 0x40 DUP4 DUP6 SUB SLT ISZERO PUSH2 0x2340 JUMPI PUSH1 0x0 DUP1 REVERT JUMPDEST PUSH2 0x2349 DUP4 PUSH2 0x2149 JUMP JUMPDEST SWAP5 PUSH1 0x20 SWAP4 SWAP1 SWAP4 ADD CALLDATALOAD SWAP4 POP POP POP JUMP JUMPDEST DUP1 CALLDATALOAD DUP1 ISZERO ISZERO DUP2 EQ PUSH2 0x19EB JUMPI PUSH1 0x0 DUP1 REVERT JUMPDEST PUSH1 0x0 PUSH1 0x20 DUP3 DUP5 SUB SLT ISZERO PUSH2 0x2379 JUMPI PUSH1 0x0 DUP1 REVERT JUMPDEST PUSH2 0x1BDD DUP3 PUSH2 0x2357 JUMP JUMPDEST PUSH1 0x0 DUP1 PUSH1 0x0 PUSH1 0x60 DUP5 DUP7 SUB SLT ISZERO PUSH2 0x2397 JUMPI PUSH1 0x0 DUP1 REVERT JUMPDEST PUSH2 0x23A0 DUP5 PUSH2 0x2149 JUMP JUMPDEST SWAP3 POP PUSH2 0x23AE PUSH1 0x20 DUP6 ADD PUSH2 0x2149 JUMP JUMPDEST SWAP2 POP PUSH1 0x40 DUP5 ADD CALLDATALOAD SWAP1 POP SWAP3 POP SWAP3 POP SWAP3 JUMP JUMPDEST PUSH1 0x0 PUSH1 0x20 DUP3 DUP5 SUB SLT ISZERO PUSH2 0x23D0 JUMPI PUSH1 0x0 DUP1 REVERT JUMPDEST PUSH2 0x1BDD DUP3 PUSH2 0x2149 JUMP JUMPDEST PUSH1 0x20 DUP1 DUP3 MSTORE DUP3 MLOAD DUP3 DUP3 ADD DUP2 SWAP1 MSTORE PUSH1 0x0 SWAP2 SWAP1 DUP5 DUP3 ADD SWAP1 PUSH1 0x40 DUP6 ADD SWAP1 DUP5 JUMPDEST DUP2 DUP2 LT ISZERO PUSH2 0x2411 JUMPI DUP4 MLOAD DUP4 MSTORE SWAP3 DUP5 ADD SWAP3 SWAP2 DUP5 ADD SWAP2 PUSH1 0x1 ADD PUSH2 0x23F5 JUMP JUMPDEST POP SWAP1 SWAP7 SWAP6 POP POP POP POP POP POP JUMP JUMPDEST PUSH1 0x0 PUSH8 0xFFFFFFFFFFFFFFFF DUP4 GT ISZERO PUSH2 0x2437 JUMPI PUSH2 0x2437 PUSH2 0x2160 JUMP JUMPDEST PUSH2 0x244A PUSH1 0x1F DUP5 ADD PUSH1 0x1F NOT AND PUSH1 0x20 ADD PUSH2 0x2176 JUMP JUMPDEST SWAP1 POP DUP3 DUP2 MSTORE DUP4 DUP4 DUP4 ADD GT ISZERO PUSH2 0x245E JUMPI PUSH1 0x0 DUP1 REVERT JUMPDEST DUP3 DUP3 PUSH1 0x20 DUP4 ADD CALLDATACOPY PUSH1 0x0 PUSH1 0x20 DUP5 DUP4 ADD ADD MSTORE SWAP4 SWAP3 POP POP POP JUMP JUMPDEST PUSH1 0x0 DUP3 PUSH1 0x1F DUP4 ADD SLT PUSH2 0x2486 JUMPI PUSH1 0x0 DUP1 REVERT JUMPDEST PUSH2 0x1BDD DUP4 DUP4 CALLDATALOAD PUSH1 0x20 DUP6 ADD PUSH2 0x241D JUMP JUMPDEST PUSH1 0x0 PUSH1 0x20 DUP3 DUP5 SUB SLT ISZERO PUSH2 0x24A7 JUMPI PUSH1 0x0 DUP1 REVERT JUMPDEST DUP2 CALLDATALOAD PUSH8 0xFFFFFFFFFFFFFFFF DUP2 GT ISZERO PUSH2 0x24BE JUMPI PUSH1 0x0 DUP1 REVERT JUMPDEST PUSH2 0xA48 DUP5 DUP3 DUP6 ADD PUSH2 0x2475 JUMP JUMPDEST PUSH1 0x0 PUSH1 0x20 DUP3 DUP5 SUB SLT ISZERO PUSH2 0x24DC JUMPI PUSH1 0x0 DUP1 REVERT JUMPDEST DUP2 CALLDATALOAD PUSH8 0xFFFFFFFFFFFFFFFF DUP2 GT ISZERO PUSH2 0x24F3 JUMPI PUSH1 0x0 DUP1 REVERT JUMPDEST PUSH2 0xA48 DUP5 DUP3 DUP6 ADD PUSH2 0x21A7 JUMP JUMPDEST PUSH1 0x0 DUP1 PUSH1 0x40 DUP4 DUP6 SUB SLT ISZERO PUSH2 0x2512 JUMPI PUSH1 0x0 DUP1 REVERT JUMPDEST PUSH2 0x251B DUP4 PUSH2 0x2357 JUMP JUMPDEST SWAP2 POP PUSH1 0x20 DUP4 ADD CALLDATALOAD PUSH8 0xFFFFFFFFFFFFFFFF DUP2 GT ISZERO PUSH2 0x2537 JUMPI PUSH1 0x0 DUP1 REVERT JUMPDEST PUSH2 0x2543 DUP6 DUP3 DUP7 ADD PUSH2 0x2475 JUMP JUMPDEST SWAP2 POP POP SWAP3 POP SWAP3 SWAP1 POP JUMP JUMPDEST PUSH1 0x0 DUP1 PUSH1 0x40 DUP4 DUP6 SUB SLT ISZERO PUSH2 0x2560 JUMPI PUSH1 0x0 DUP1 REVERT JUMPDEST DUP3 CALLDATALOAD SWAP2 POP PUSH2 0x2570 PUSH1 0x20 DUP5 ADD PUSH2 0x2149 JUMP JUMPDEST SWAP1 POP SWAP3 POP SWAP3 SWAP1 POP JUMP JUMPDEST PUSH1 0x0 DUP1 PUSH1 0x40 DUP4 DUP6 SUB SLT ISZERO PUSH2 0x258C JUMPI PUSH1 0x0 DUP1 REVERT JUMPDEST PUSH2 0x2595 DUP4 PUSH2 0x2149 JUMP JUMPDEST SWAP2 POP PUSH2 0x2570 PUSH1 0x20 DUP5 ADD PUSH2 0x2357 JUMP JUMPDEST PUSH1 0x0 DUP1 PUSH1 0x0 DUP1 PUSH1 0x80 DUP6 DUP8 SUB SLT ISZERO PUSH2 0x25B9 JUMPI PUSH1 0x0 DUP1 REVERT JUMPDEST PUSH2 0x25C2 DUP6 PUSH2 0x2149 JUMP JUMPDEST SWAP4 POP PUSH2 0x25D0 PUSH1 0x20 DUP7 ADD PUSH2 0x2149 JUMP JUMPDEST SWAP3 POP PUSH1 0x40 DUP6 ADD CALLDATALOAD SWAP2 POP PUSH1 0x60 DUP6 ADD CALLDATALOAD PUSH8 0xFFFFFFFFFFFFFFFF DUP2 GT ISZERO PUSH2 0x25F3 JUMPI PUSH1 0x0 DUP1 REVERT JUMPDEST DUP6 ADD PUSH1 0x1F DUP2 ADD DUP8 SGT PUSH2 0x2604 JUMPI PUSH1 0x0 DUP1 REVERT JUMPDEST PUSH2 0x2613 DUP8 DUP3 CALLDATALOAD PUSH1 0x20 DUP5 ADD PUSH2 0x241D JUMP JUMPDEST SWAP2 POP POP SWAP3 SWAP6 SWAP2 SWAP5 POP SWAP3 POP JUMP JUMPDEST PUSH1 0x0 DUP1 PUSH1 0x40 DUP4 DUP6 SUB SLT ISZERO PUSH2 0x2632 JUMPI PUSH1 0x0 DUP1 REVERT JUMPDEST PUSH2 0x263B DUP4 PUSH2 0x2149 JUMP JUMPDEST SWAP2 POP PUSH2 0x2570 PUSH1 0x20 DUP5 ADD PUSH2 0x2149 JUMP JUMPDEST PUSH1 0x1 DUP2 DUP2 SHR SWAP1 DUP3 AND DUP1 PUSH2 0x265D JUMPI PUSH1 0x7F DUP3 AND SWAP2 POP JUMPDEST PUSH1 0x20 DUP3 LT DUP2 SUB PUSH2 0x267D JUMPI PUSH4 0x4E487B71 PUSH1 0xE0 SHL PUSH1 0x0 MSTORE PUSH1 0x22 PUSH1 0x4 MSTORE PUSH1 0x24 PUSH1 0x0 REVERT JUMPDEST POP SWAP2 SWAP1 POP JUMP JUMPDEST PUSH1 0x20 DUP1 DUP3 MSTORE PUSH1 0x12 SWAP1 DUP3 ADD MSTORE PUSH18 0x10DBDB9D1C9858DD081A5CC81C185D5CD959 PUSH1 0x72 SHL PUSH1 0x40 DUP3 ADD MSTORE PUSH1 0x60 ADD SWAP1 JUMP JUMPDEST PUSH4 0x4E487B71 PUSH1 0xE0 SHL PUSH1 0x0 MSTORE PUSH1 0x11 PUSH1 0x4 MSTORE PUSH1 0x24 PUSH1 0x0 REVERT JUMPDEST DUP1 DUP3 ADD DUP1 DUP3 GT ISZERO PUSH2 0xA9C JUMPI PUSH2 0xA9C PUSH2 0x26AF JUMP JUMPDEST PUSH1 0x20 DUP1 DUP3 MSTORE PUSH1 0x15 SWAP1 DUP3 ADD MSTORE PUSH21 0x139BDD08195B9BDD59DA081B5A5B9D1CC81B19599D PUSH1 0x5A SHL PUSH1 0x40 DUP3 ADD MSTORE PUSH1 0x60 ADD SWAP1 JUMP JUMPDEST PUSH1 0x20 DUP1 DUP3 MSTORE PUSH1 0x13 SWAP1 DUP3 ADD MSTORE PUSH19 0x4E6F20636F6E7472616374206D696E74696E67 PUSH1 0x68 SHL PUSH1 0x40 DUP3 ADD MSTORE PUSH1 0x60 ADD SWAP1 JUMP JUMPDEST DUP1 DUP3 MUL DUP2 ISZERO DUP3 DUP3 DIV DUP5 EQ OR PUSH2 0xA9C JUMPI PUSH2 0xA9C PUSH2 0x26AF JUMP JUMPDEST PUSH4 0x4E487B71 PUSH1 0xE0 SHL PUSH1 0x0 MSTORE PUSH1 0x12 PUSH1 0x4 MSTORE PUSH1 0x24 PUSH1 0x0 REVERT JUMPDEST PUSH1 0x0 DUP3 PUSH2 0x2770 JUMPI PUSH2 0x2770 PUSH2 0x274B JUMP JUMPDEST POP DIV SWAP1 JUMP JUMPDEST PUSH4 0x4E487B71 PUSH1 0xE0 SHL PUSH1 0x0 MSTORE PUSH1 0x32 PUSH1 0x4 MSTORE PUSH1 0x24 PUSH1 0x0 REVERT JUMPDEST PUSH1 0x0 PUSH1 0x1 DUP3 ADD PUSH2 0x279D JUMPI PUSH2 0x279D PUSH2 0x26AF JUMP JUMPDEST POP PUSH1 0x1 ADD SWAP1 JUMP JUMPDEST PUSH1 0x1F DUP3 GT ISZERO PUSH2 0x1301 JUMPI PUSH1 0x0 DUP2 DUP2 MSTORE PUSH1 0x20 DUP2 KECCAK256 PUSH1 0x1F DUP6 ADD PUSH1 0x5 SHR DUP2 ADD PUSH1 0x20 DUP7 LT ISZERO PUSH2 0x27CB JUMPI POP DUP1 JUMPDEST PUSH1 0x1F DUP6 ADD PUSH1 0x5 SHR DUP3 ADD SWAP2 POP JUMPDEST DUP2 DUP2 LT ISZERO PUSH2 0xDD1 JUMPI DUP3 DUP2 SSTORE PUSH1 0x1 ADD PUSH2 0x27D7 JUMP JUMPDEST DUP2 MLOAD PUSH8 0xFFFFFFFFFFFFFFFF DUP2 GT ISZERO PUSH2 0x2804 JUMPI PUSH2 0x2804 PUSH2 0x2160 JUMP JUMPDEST PUSH2 0x2818 DUP2 PUSH2 0x2812 DUP5 SLOAD PUSH2 0x2649 JUMP JUMPDEST DUP5 PUSH2 0x27A4 JUMP JUMPDEST PUSH1 0x20 DUP1 PUSH1 0x1F DUP4 GT PUSH1 0x1 DUP2 EQ PUSH2 0x284D JUMPI PUSH1 0x0 DUP5 ISZERO PUSH2 0x2835 JUMPI POP DUP6 DUP4 ADD MLOAD JUMPDEST PUSH1 0x0 NOT PUSH1 0x3 DUP7 SWAP1 SHL SHR NOT AND PUSH1 0x1 DUP6 SWAP1 SHL OR DUP6 SSTORE PUSH2 0xDD1 JUMP JUMPDEST PUSH1 0x0 DUP6 DUP2 MSTORE PUSH1 0x20 DUP2 KECCAK256 PUSH1 0x1F NOT DUP7 AND SWAP2 JUMPDEST DUP3 DUP2 LT ISZERO PUSH2 0x287C JUMPI DUP9 DUP7 ADD MLOAD DUP3 SSTORE SWAP5 DUP5 ADD SWAP5 PUSH1 0x1 SWAP1 SWAP2 ADD SWAP1 DUP5 ADD PUSH2 0x285D JUMP JUMPDEST POP DUP6 DUP3 LT ISZERO PUSH2 0x289A JUMPI DUP8 DUP6 ADD MLOAD PUSH1 0x0 NOT PUSH1 0x3 DUP9 SWAP1 SHL PUSH1 0xF8 AND SHR NOT AND DUP2 SSTORE JUMPDEST POP POP POP POP POP PUSH1 0x1 SWAP1 DUP2 SHL ADD SWAP1 SSTORE POP JUMP JUMPDEST PUSH1 0x0 DUP1 DUP5 SLOAD PUSH2 0x28B8 DUP2 PUSH2 0x2649 JUMP JUMPDEST PUSH1 0x1 DUP3 DUP2 AND DUP1 ISZERO PUSH2 0x28D0 JUMPI PUSH1 0x1 DUP2 EQ PUSH2 0x28E5 JUMPI PUSH2 0x2914 JUMP JUMPDEST PUSH1 0xFF NOT DUP5 AND DUP8 MSTORE DUP3 ISZERO ISZERO DUP4 MUL DUP8 ADD SWAP5 POP PUSH2 0x2914 JUMP JUMPDEST DUP9 PUSH1 0x0 MSTORE PUSH1 0x20 DUP1 PUSH1 0x0 KECCAK256 PUSH1 0x0 JUMPDEST DUP6 DUP2 LT ISZERO PUSH2 0x290B JUMPI DUP2 SLOAD DUP11 DUP3 ADD MSTORE SWAP1 DUP5 ADD SWAP1 DUP3 ADD PUSH2 0x28F2 JUMP JUMPDEST POP POP POP DUP3 DUP8 ADD SWAP5 POP JUMPDEST POP POP POP POP DUP4 MLOAD PUSH2 0x2928 DUP2 DUP4 PUSH1 0x20 DUP9 ADD PUSH2 0x22B1 JUMP JUMPDEST PUSH5 0x173539B7B7 PUSH1 0xD9 SHL SWAP2 ADD SWAP1 DUP2 MSTORE PUSH1 0x5 ADD SWAP5 SWAP4 POP POP POP POP JUMP JUMPDEST DUP2 DUP2 SUB DUP2 DUP2 GT ISZERO PUSH2 0xA9C JUMPI PUSH2 0xA9C PUSH2 0x26AF JUMP JUMPDEST PUSH1 0x1 PUSH1 0x1 PUSH1 0xA0 SHL SUB DUP6 DUP2 AND DUP3 MSTORE DUP5 AND PUSH1 0x20 DUP3 ADD MSTORE PUSH1 0x40 DUP2 ADD DUP4 SWAP1 MSTORE PUSH1 0x80 PUSH1 0x60 DUP3 ADD DUP2 SWAP1 MSTORE PUSH1 0x0 SWAP1 PUSH2 0x2987 SWAP1 DUP4 ADD DUP5 PUSH2 0x22D5 JUMP JUMPDEST SWAP7 SWAP6 POP POP POP POP POP POP JUMP JUMPDEST PUSH1 0x0 PUSH1 0x20 DUP3 DUP5 SUB SLT ISZERO PUSH2 0x29A3 JUMPI PUSH1 0x0 DUP1 REVERT JUMPDEST DUP2 MLOAD PUSH2 0x1BDD DUP2 PUSH2 0x227E JUMP JUMPDEST PUSH1 0x0 DUP3 PUSH2 0x29BD JUMPI PUSH2 0x29BD PUSH2 0x274B JUMP JUMPDEST POP MOD SWAP1 JUMP INVALID LOG2 PUSH5 0x6970667358 0x22 SLT KECCAK256 CALLVALUE 0xF 0x25 0xF6 0xD7 REVERT 0x26 MLOAD CHAINID 0xBE SIGNEXTEND DIV PUSH8 0x7EF352D646DF0D06 0xF 0xC9 0xB6 0x1F 0xE SSTORE 0xF7 ISZERO 0xAD SWAP11 BALANCE PUSH5 0x736F6C6343 STOP ADDMOD GT STOP CALLER PUSH10 0x7066733A2F2F516D6474 SSTORE CALLDATACOPY PUSH26 0x41795679343536447473574678376D4A3750543145676F6B5252 PUSH12 0x723859674659504254397962 "},"methodIdentifiers":{"ALLOW_LIST_MAX()":"7c146efc","ALLOW_LIST_PRICE()":"ad570dd5","CONTRACT_URI()":"56b4f673","MAX_SUPPLY()":"32cb6b0c","PUBLIC_MINT_LIMIT()":"bceae77b","PUBLIC_MINT_LIMIT_TXN()":"2fecf20b","PUBLIC_PRICE()":"611f3f10","TEAM_MINT_MAX()":"6b39fca4","TOTAL_SUPPLY_TEAM()":"763ea95f","allowListMint(bytes32[])":"5cfe6b84","allowListSale()":"281905c8","approve(address,uint256)":"095ea7b3","balanceOf(address)":"70a08231","contractURI()":"e8a3d485","getApproved(uint256)":"081812fc","hiddenURI()":"8cc54e7f","isApprovedForAll(address,address)":"e985e9c5","merkleRoot()":"2eb4a7ab","mintToUser(uint256,address)":"9007bd72","name()":"06fdde03","numUserMints(address)":"7aeb7242","owner()":"8da5cb5b","ownerOf(uint256)":"6352211e","paused()":"5c975abb","publicMint(uint256)":"2db11544","publicSale()":"33bc1c5c","renounceOwnership()":"715018a6","revealCollection(bool,string)":"5ed3e25e","revealed()":"51830227","revealedURI()":"f7e8d6ea","safeTransferFrom(address,address,uint256)":"42842e0e","safeTransferFrom(address,address,uint256,bytes)":"b88d4fde","setAllowListEnabled(bool)":"efeadb6d","setAllowListMax(uint256)":"7a8ffb32","setApprovalForAll(address,bool)":"a22cb465","setBaseURI(string)":"55f804b3","setContractURI(string)":"938e3d7b","setDevWithdrawCut(uint256)":"b06cfa64","setHiddenMetadataURI(string)":"512507c6","setMerkleRoot(bytes32)":"7cb64759","setPaused(bool)":"16c38b3c","setPublicEnabled(bool)":"7af3a1af","setPublicPrice(uint256)":"c6275255","setRevealed(bool)":"e0a80853","setTeamMintMax(uint256)":"0f15ad8d","setTeamWalletAddress(address)":"2c4b2334","supportsInterface(bytes4)":"01ffc9a7","symbol()":"95d89b41","teamMint(uint256)":"2fbba115","teamWallet()":"59927044","tokenURI(uint256)":"c87b56dd","totalSupply()":"18160ddd","transferFrom(address,address,uint256)":"23b872dd","transferOwnership(address)":"f2fde38b","userMintedAllowList(address)":"c1189382","verifyPublicAllowList(address,bytes32[],bytes32)":"01dd38a2","walletOfOwner(address)":"438b6300","withdraw()":"3ccfd60b"}}}}}