{
  "_format": "hh-sol-artifact-1",
  "contractName": "Patika",
  "sourceName": "contracts/Patika.sol",
  "abi": [
    {
      "inputs": [],
      "stateMutability": "nonpayable",
      "type": "constructor"
    },
    {
      "inputs": [],
      "name": "ApprovalCallerNotOwnerNorApproved",
      "type": "error"
    },
    {
      "inputs": [],
      "name": "ApprovalQueryForNonexistentToken",
      "type": "error"
    },
    {
      "inputs": [],
      "name": "BalanceQueryForZeroAddress",
      "type": "error"
    },
    {
      "inputs": [],
      "name": "MintERC2309QuantityExceedsLimit",
      "type": "error"
    },
    {
      "inputs": [],
      "name": "MintToZeroAddress",
      "type": "error"
    },
    {
      "inputs": [],
      "name": "MintZeroQuantity",
      "type": "error"
    },
    {
      "inputs": [],
      "name": "OwnerQueryForNonexistentToken",
      "type": "error"
    },
    {
      "inputs": [],
      "name": "OwnershipNotInitializedForExtraData",
      "type": "error"
    },
    {
      "inputs": [],
      "name": "TransferCallerNotOwnerNorApproved",
      "type": "error"
    },
    {
      "inputs": [],
      "name": "TransferFromIncorrectOwner",
      "type": "error"
    },
    {
      "inputs": [],
      "name": "TransferToNonERC721ReceiverImplementer",
      "type": "error"
    },
    {
      "inputs": [],
      "name": "TransferToZeroAddress",
      "type": "error"
    },
    {
      "inputs": [],
      "name": "URIQueryForNonexistentToken",
      "type": "error"
    },
    {
      "anonymous": false,
      "inputs": [
        {
          "indexed": true,
          "internalType": "address",
          "name": "owner",
          "type": "address"
        },
        {
          "indexed": true,
          "internalType": "address",
          "name": "approved",
          "type": "address"
        },
        {
          "indexed": true,
          "internalType": "uint256",
          "name": "tokenId",
          "type": "uint256"
        }
      ],
      "name": "Approval",
      "type": "event"
    },
    {
      "anonymous": false,
      "inputs": [
        {
          "indexed": true,
          "internalType": "address",
          "name": "owner",
          "type": "address"
        },
        {
          "indexed": true,
          "internalType": "address",
          "name": "operator",
          "type": "address"
        },
        {
          "indexed": false,
          "internalType": "bool",
          "name": "approved",
          "type": "bool"
        }
      ],
      "name": "ApprovalForAll",
      "type": "event"
    },
    {
      "anonymous": false,
      "inputs": [
        {
          "indexed": true,
          "internalType": "uint256",
          "name": "fromTokenId",
          "type": "uint256"
        },
        {
          "indexed": false,
          "internalType": "uint256",
          "name": "toTokenId",
          "type": "uint256"
        },
        {
          "indexed": true,
          "internalType": "address",
          "name": "from",
          "type": "address"
        },
        {
          "indexed": true,
          "internalType": "address",
          "name": "to",
          "type": "address"
        }
      ],
      "name": "ConsecutiveTransfer",
      "type": "event"
    },
    {
      "anonymous": false,
      "inputs": [
        {
          "indexed": true,
          "internalType": "address",
          "name": "previousOwner",
          "type": "address"
        },
        {
          "indexed": true,
          "internalType": "address",
          "name": "newOwner",
          "type": "address"
        }
      ],
      "name": "OwnershipTransferred",
      "type": "event"
    },
    {
      "anonymous": false,
      "inputs": [
        {
          "indexed": true,
          "internalType": "address",
          "name": "from",
          "type": "address"
        },
        {
          "indexed": true,
          "internalType": "address",
          "name": "to",
          "type": "address"
        },
        {
          "indexed": true,
          "internalType": "uint256",
          "name": "tokenId",
          "type": "uint256"
        }
      ],
      "name": "Transfer",
      "type": "event"
    },
    {
      "inputs": [],
      "name": "ALLOW_LIST_MAX",
      "outputs": [
        {
          "internalType": "uint256",
          "name": "",
          "type": "uint256"
        }
      ],
      "stateMutability": "view",
      "type": "function"
    },
    {
      "inputs": [],
      "name": "ALLOW_LIST_PRICE",
      "outputs": [
        {
          "internalType": "uint256",
          "name": "",
          "type": "uint256"
        }
      ],
      "stateMutability": "view",
      "type": "function"
    },
    {
      "inputs": [],
      "name": "CONTRACT_URI",
      "outputs": [
        {
          "internalType": "string",
          "name": "",
          "type": "string"
        }
      ],
      "stateMutability": "view",
      "type": "function"
    },
    {
      "inputs": [],
      "name": "MAX_SUPPLY",
      "outputs": [
        {
          "internalType": "uint256",
          "name": "",
          "type": "uint256"
        }
      ],
      "stateMutability": "view",
      "type": "function"
    },
    {
      "inputs": [],
      "name": "PUBLIC_MINT_LIMIT",
      "outputs": [
        {
          "internalType": "uint256",
          "name": "",
          "type": "uint256"
        }
      ],
      "stateMutability": "view",
      "type": "function"
    },
    {
      "inputs": [],
      "name": "PUBLIC_MINT_LIMIT_TXN",
      "outputs": [
        {
          "internalType": "uint256",
          "name": "",
          "type": "uint256"
        }
      ],
      "stateMutability": "view",
      "type": "function"
    },
    {
      "inputs": [],
      "name": "PUBLIC_PRICE",
      "outputs": [
        {
          "internalType": "uint256",
          "name": "",
          "type": "uint256"
        }
      ],
      "stateMutability": "view",
      "type": "function"
    },
    {
      "inputs": [],
      "name": "TEAM_MINT_MAX",
      "outputs": [
        {
          "internalType": "uint256",
          "name": "",
          "type": "uint256"
        }
      ],
      "stateMutability": "view",
      "type": "function"
    },
    {
      "inputs": [],
      "name": "TOTAL_SUPPLY_TEAM",
      "outputs": [
        {
          "internalType": "uint256",
          "name": "",
          "type": "uint256"
        }
      ],
      "stateMutability": "view",
      "type": "function"
    },
    {
      "inputs": [
        {
          "internalType": "bytes32[]",
          "name": "proof",
          "type": "bytes32[]"
        }
      ],
      "name": "allowListMint",
      "outputs": [],
      "stateMutability": "payable",
      "type": "function"
    },
    {
      "inputs": [],
      "name": "allowListSale",
      "outputs": [
        {
          "internalType": "bool",
          "name": "",
          "type": "bool"
        }
      ],
      "stateMutability": "view",
      "type": "function"
    },
    {
      "inputs": [
        {
          "internalType": "address",
          "name": "to",
          "type": "address"
        },
        {
          "internalType": "uint256",
          "name": "tokenId",
          "type": "uint256"
        }
      ],
      "name": "approve",
      "outputs": [],
      "stateMutability": "payable",
      "type": "function"
    },
    {
      "inputs": [
        {
          "internalType": "address",
          "name": "owner",
          "type": "address"
        }
      ],
      "name": "balanceOf",
      "outputs": [
        {
          "internalType": "uint256",
          "name": "",
          "type": "uint256"
        }
      ],
      "stateMutability": "view",
      "type": "function"
    },
    {
      "inputs": [],
      "name": "contractURI",
      "outputs": [
        {
          "internalType": "string",
          "name": "",
          "type": "string"
        }
      ],
      "stateMutability": "view",
      "type": "function"
    },
    {
      "inputs": [
        {
          "internalType": "uint256",
          "name": "tokenId",
          "type": "uint256"
        }
      ],
      "name": "getApproved",
      "outputs": [
        {
          "internalType": "address",
          "name": "",
          "type": "address"
        }
      ],
      "stateMutability": "view",
      "type": "function"
    },
    {
      "inputs": [],
      "name": "hiddenURI",
      "outputs": [
        {
          "internalType": "string",
          "name": "",
          "type": "string"
        }
      ],
      "stateMutability": "view",
      "type": "function"
    },
    {
      "inputs": [
        {
          "internalType": "address",
          "name": "owner",
          "type": "address"
        },
        {
          "internalType": "address",
          "name": "operator",
          "type": "address"
        }
      ],
      "name": "isApprovedForAll",
      "outputs": [
        {
          "internalType": "bool",
          "name": "",
          "type": "bool"
        }
      ],
      "stateMutability": "view",
      "type": "function"
    },
    {
      "inputs": [],
      "name": "merkleRoot",
      "outputs": [
        {
          "internalType": "bytes32",
          "name": "",
          "type": "bytes32"
        }
      ],
      "stateMutability": "view",
      "type": "function"
    },
    {
      "inputs": [
        {
          "internalType": "uint256",
          "name": "quantity",
          "type": "uint256"
        },
        {
          "internalType": "address",
          "name": "receiver",
          "type": "address"
        }
      ],
      "name": "mintToUser",
      "outputs": [],
      "stateMutability": "nonpayable",
      "type": "function"
    },
    {
      "inputs": [],
      "name": "name",
      "outputs": [
        {
          "internalType": "string",
          "name": "",
          "type": "string"
        }
      ],
      "stateMutability": "view",
      "type": "function"
    },
    {
      "inputs": [
        {
          "internalType": "address",
          "name": "",
          "type": "address"
        }
      ],
      "name": "numUserMints",
      "outputs": [
        {
          "internalType": "uint256",
          "name": "",
          "type": "uint256"
        }
      ],
      "stateMutability": "view",
      "type": "function"
    },
    {
      "inputs": [],
      "name": "owner",
      "outputs": [
        {
          "internalType": "address",
          "name": "",
          "type": "address"
        }
      ],
      "stateMutability": "view",
      "type": "function"
    },
    {
      "inputs": [
        {
          "internalType": "uint256",
          "name": "tokenId",
          "type": "uint256"
        }
      ],
      "name": "ownerOf",
      "outputs": [
        {
          "internalType": "address",
          "name": "",
          "type": "address"
        }
      ],
      "stateMutability": "view",
      "type": "function"
    },
    {
      "inputs": [],
      "name": "paused",
      "outputs": [
        {
          "internalType": "bool",
          "name": "",
          "type": "bool"
        }
      ],
      "stateMutability": "view",
      "type": "function"
    },
    {
      "inputs": [
        {
          "internalType": "uint256",
          "name": "quantity",
          "type": "uint256"
        }
      ],
      "name": "publicMint",
      "outputs": [],
      "stateMutability": "payable",
      "type": "function"
    },
    {
      "inputs": [],
      "name": "publicSale",
      "outputs": [
        {
          "internalType": "bool",
          "name": "",
          "type": "bool"
        }
      ],
      "stateMutability": "view",
      "type": "function"
    },
    {
      "inputs": [],
      "name": "renounceOwnership",
      "outputs": [],
      "stateMutability": "nonpayable",
      "type": "function"
    },
    {
      "inputs": [
        {
          "internalType": "bool",
          "name": "_revealed",
          "type": "bool"
        },
        {
          "internalType": "string",
          "name": "_baseUri",
          "type": "string"
        }
      ],
      "name": "revealCollection",
      "outputs": [],
      "stateMutability": "nonpayable",
      "type": "function"
    },
    {
      "inputs": [],
      "name": "revealed",
      "outputs": [
        {
          "internalType": "bool",
          "name": "",
          "type": "bool"
        }
      ],
      "stateMutability": "view",
      "type": "function"
    },
    {
      "inputs": [],
      "name": "revealedURI",
      "outputs": [
        {
          "internalType": "string",
          "name": "",
          "type": "string"
        }
      ],
      "stateMutability": "view",
      "type": "function"
    },
    {
      "inputs": [
        {
          "internalType": "address",
          "name": "from",
          "type": "address"
        },
        {
          "internalType": "address",
          "name": "to",
          "type": "address"
        },
        {
          "internalType": "uint256",
          "name": "tokenId",
          "type": "uint256"
        }
      ],
      "name": "safeTransferFrom",
      "outputs": [],
      "stateMutability": "payable",
      "type": "function"
    },
    {
      "inputs": [
        {
          "internalType": "address",
          "name": "from",
          "type": "address"
        },
        {
          "internalType": "address",
          "name": "to",
          "type": "address"
        },
        {
          "internalType": "uint256",
          "name": "tokenId",
          "type": "uint256"
        },
        {
          "internalType": "bytes",
          "name": "_data",
          "type": "bytes"
        }
      ],
      "name": "safeTransferFrom",
      "outputs": [],
      "stateMutability": "payable",
      "type": "function"
    },
    {
      "inputs": [
        {
          "internalType": "bool",
          "name": "_state",
          "type": "bool"
        }
      ],
      "name": "setAllowListEnabled",
      "outputs": [],
      "stateMutability": "nonpayable",
      "type": "function"
    },
    {
      "inputs": [
        {
          "internalType": "uint256",
          "name": "_allowListMax",
          "type": "uint256"
        }
      ],
      "name": "setAllowListMax",
      "outputs": [],
      "stateMutability": "nonpayable",
      "type": "function"
    },
    {
      "inputs": [
        {
          "internalType": "address",
          "name": "operator",
          "type": "address"
        },
        {
          "internalType": "bool",
          "name": "approved",
          "type": "bool"
        }
      ],
      "name": "setApprovalForAll",
      "outputs": [],
      "stateMutability": "nonpayable",
      "type": "function"
    },
    {
      "inputs": [
        {
          "internalType": "string",
          "name": "_baseUri",
          "type": "string"
        }
      ],
      "name": "setBaseURI",
      "outputs": [],
      "stateMutability": "nonpayable",
      "type": "function"
    },
    {
      "inputs": [
        {
          "internalType": "string",
          "name": "_contractURI",
          "type": "string"
        }
      ],
      "name": "setContractURI",
      "outputs": [],
      "stateMutability": "nonpayable",
      "type": "function"
    },
    {
      "inputs": [
        {
          "internalType": "uint256",
          "name": "_devPercentage",
          "type": "uint256"
        }
      ],
      "name": "setDevWithdrawCut",
      "outputs": [],
      "stateMutability": "nonpayable",
      "type": "function"
    },
    {
      "inputs": [
        {
          "internalType": "string",
          "name": "_hiddenMetadataUri",
          "type": "string"
        }
      ],
      "name": "setHiddenMetadataURI",
      "outputs": [],
      "stateMutability": "nonpayable",
      "type": "function"
    },
    {
      "inputs": [
        {
          "internalType": "bytes32",
          "name": "_merkleRoot",
          "type": "bytes32"
        }
      ],
      "name": "setMerkleRoot",
      "outputs": [],
      "stateMutability": "nonpayable",
      "type": "function"
    },
    {
      "inputs": [
        {
          "internalType": "bool",
          "name": "_state",
          "type": "bool"
        }
      ],
      "name": "setPaused",
      "outputs": [],
      "stateMutability": "nonpayable",
      "type": "function"
    },
    {
      "inputs": [
        {
          "internalType": "bool",
          "name": "_state",
          "type": "bool"
        }
      ],
      "name": "setPublicEnabled",
      "outputs": [],
      "stateMutability": "nonpayable",
      "type": "function"
    },
    {
      "inputs": [
        {
          "internalType": "uint256",
          "name": "_publicPrice",
          "type": "uint256"
        }
      ],
      "name": "setPublicPrice",
      "outputs": [],
      "stateMutability": "nonpayable",
      "type": "function"
    },
    {
      "inputs": [
        {
          "internalType": "bool",
          "name": "_state",
          "type": "bool"
        }
      ],
      "name": "setRevealed",
      "outputs": [],
      "stateMutability": "nonpayable",
      "type": "function"
    },
    {
      "inputs": [
        {
          "internalType": "uint256",
          "name": "_teamMintMax",
          "type": "uint256"
        }
      ],
      "name": "setTeamMintMax",
      "outputs": [],
      "stateMutability": "nonpayable",
      "type": "function"
    },
    {
      "inputs": [
        {
          "internalType": "address",
          "name": "_teamWallet",
          "type": "address"
        }
      ],
      "name": "setTeamWalletAddress",
      "outputs": [],
      "stateMutability": "nonpayable",
      "type": "function"
    },
    {
      "inputs": [
        {
          "internalType": "bytes4",
          "name": "interfaceId",
          "type": "bytes4"
        }
      ],
      "name": "supportsInterface",
      "outputs": [
        {
          "internalType": "bool",
          "name": "",
          "type": "bool"
        }
      ],
      "stateMutability": "view",
      "type": "function"
    },
    {
      "inputs": [],
      "name": "symbol",
      "outputs": [
        {
          "internalType": "string",
          "name": "",
          "type": "string"
        }
      ],
      "stateMutability": "view",
      "type": "function"
    },
    {
      "inputs": [
        {
          "internalType": "uint256",
          "name": "quantity",
          "type": "uint256"
        }
      ],
      "name": "teamMint",
      "outputs": [],
      "stateMutability": "payable",
      "type": "function"
    },
    {
      "inputs": [],
      "name": "teamWallet",
      "outputs": [
        {
          "internalType": "address",
          "name": "",
          "type": "address"
        }
      ],
      "stateMutability": "view",
      "type": "function"
    },
    {
      "inputs": [
        {
          "internalType": "uint256",
          "name": "_tokenId",
          "type": "uint256"
        }
      ],
      "name": "tokenURI",
      "outputs": [
        {
          "internalType": "string",
          "name": "",
          "type": "string"
        }
      ],
      "stateMutability": "view",
      "type": "function"
    },
    {
      "inputs": [],
      "name": "totalSupply",
      "outputs": [
        {
          "internalType": "uint256",
          "name": "",
          "type": "uint256"
        }
      ],
      "stateMutability": "view",
      "type": "function"
    },
    {
      "inputs": [
        {
          "internalType": "address",
          "name": "from",
          "type": "address"
        },
        {
          "internalType": "address",
          "name": "to",
          "type": "address"
        },
        {
          "internalType": "uint256",
          "name": "tokenId",
          "type": "uint256"
        }
      ],
      "name": "transferFrom",
      "outputs": [],
      "stateMutability": "payable",
      "type": "function"
    },
    {
      "inputs": [
        {
          "internalType": "address",
          "name": "newOwner",
          "type": "address"
        }
      ],
      "name": "transferOwnership",
      "outputs": [],
      "stateMutability": "nonpayable",
      "type": "function"
    },
    {
      "inputs": [
        {
          "internalType": "address",
          "name": "",
          "type": "address"
        }
      ],
      "name": "userMintedAllowList",
      "outputs": [
        {
          "internalType": "bool",
          "name": "",
          "type": "bool"
        }
      ],
      "stateMutability": "view",
      "type": "function"
    },
    {
      "inputs": [
        {
          "internalType": "address",
          "name": "_address",
          "type": "address"
        },
        {
          "internalType": "bytes32[]",
          "name": "_proof",
          "type": "bytes32[]"
        },
        {
          "internalType": "bytes32",
          "name": "_root",
          "type": "bytes32"
        }
      ],
      "name": "verifyPublicAllowList",
      "outputs": [
        {
          "internalType": "bool",
          "name": "",
          "type": "bool"
        }
      ],
      "stateMutability": "pure",
      "type": "function"
    },
    {
      "inputs": [
        {
          "internalType": "address",
          "name": "_owner",
          "type": "address"
        }
      ],
      "name": "walletOfOwner",
      "outputs": [
        {
          "internalType": "uint256[]",
          "name": "",
          "type": "uint256[]"
        }
      ],
      "stateMutability": "view",
      "type": "function"
    },
    {
      "inputs": [],
      "name": "withdraw",
      "outputs": [],
      "stateMutability": "payable",
      "type": "function"
    }
  ],
  "bytecode": "0x7f18005ffd485d367fd31307e229607a9b05802e8b57c418d4c818a47152c02b836009556005600a819055600b5566038d7ea4c68000600c5560e0604052603560808181529062002d1a60a039600f906200005b90826200023c565b5060405180606001604052806035815260200162002d1a603591396010906200008590826200023c565b50601180546001600160c01b0319167715f01d94d5416dcc42081016fcd1669c5c0fed1100010001179055610fa0601255348015620000c357600080fd5b5060405180604001604052806006815260200165506174696b6160d01b8152506040518060400160405280600381526020016250544b60e81b81525062000119620001136200014360201b60201c565b62000147565b60036200012783826200023c565b5060046200013682826200023c565b5050600180555062000308565b3390565b600080546001600160a01b038381166001600160a01b0319831681178455604051919092169283917f8be0079c531659141344cd1fd0a4f28419497f9722a3daafe3b4186f6b6457e09190a35050565b634e487b7160e01b600052604160045260246000fd5b600181811c90821680620001c257607f821691505b602082108103620001e357634e487b7160e01b600052602260045260246000fd5b50919050565b601f8211156200023757600081815260208120601f850160051c81016020861015620002125750805b601f850160051c820191505b8181101562000233578281556001016200021e565b5050505b505050565b81516001600160401b0381111562000258576200025862000197565b6200027081620002698454620001ad565b84620001e9565b602080601f831160018114620002a857600084156200028f5750858301515b600019600386901b1c1916600185901b17855562000233565b600085815260208120601f198616915b82811015620002d957888601518255948401946001909101908401620002b8565b5085821015620002f85787850151600019600388901b60f8161c191681555b5050505050600190811b01905550565b612a0280620003186000396000f3fe6080604052600436106103815760003560e01c80636352211e116101d157806395d89b4111610102578063c6275255116100a0578063e985e9c51161006f578063e985e9c51461098d578063efeadb6d146109ad578063f2fde38b146109cd578063f7e8d6ea146109ed57600080fd5b8063c627525514610918578063c87b56dd14610938578063e0a8085314610958578063e8a3d4851461097857600080fd5b8063b06cfa64116100dc578063b06cfa64146108b5578063b88d4fde146108d5578063bceae77b1461053c578063c1189382146108e857600080fd5b806395d89b4114610865578063a22cb4651461087a578063ad570dd51461089a57600080fd5b80637af3a1af1161016f5780638cc54e7f116101495780638cc54e7f146107f25780638da5cb5b146108075780639007bd7214610825578063938e3d7b1461084557600080fd5b80637af3a1af1461079c5780637c146efc146107bc5780637cb64759146107d257600080fd5b8063715018a6116101ab578063715018a614610724578063763ea95f146107395780637a8ffb321461074f5780637aeb72421461076f57600080fd5b80636352211e146106ce5780636b39fca4146106ee57806370a082311461070457600080fd5b80632fecf20b116102b657806351830227116102545780635c975abb116102235780635c975abb1461066b5780635cfe6b84146106855780635ed3e25e14610698578063611f3f10146106b857600080fd5b806351830227146105ef57806355f804b31461060e57806356b4f6731461062e578063599270441461064357600080fd5b80633ccfd60b116102905780633ccfd60b1461058757806342842e0e1461058f578063438b6300146105a2578063512507c6146105cf57600080fd5b80632fecf20b1461053c57806332cb6b0c1461055157806333bc1c5c1461056657600080fd5b806318160ddd116103235780632c4b2334116102fd5780632c4b2334146104e05780632db11544146105005780632eb4a7ab146105135780632fbba1151461052957600080fd5b806318160ddd1461048a57806323b872dd146104ad578063281905c8146104c057600080fd5b8063081812fc1161035f578063081812fc146103fd578063095ea7b3146104355780630f15ad8d1461044a57806316c38b3c1461046a57600080fd5b806301dd38a21461038657806301ffc9a7146103bb57806306fdde03146103db575b600080fd5b34801561039257600080fd5b506103a66103a1366004612231565b610a02565b60405190151581526020015b60405180910390f35b3480156103c757600080fd5b506103a66103d636600461229e565b610a50565b3480156103e757600080fd5b506103f0610aa2565b6040516103b2919061230b565b34801561040957600080fd5b5061041d61041836600461231e565b610b34565b6040516001600160a01b0390911681526020016103b2565b610448610443366004612337565b610b78565b005b34801561045657600080fd5b5061044861046536600461231e565b610c18565b34801561047657600080fd5b50610448610485366004612371565b610c25565b34801561049657600080fd5b5061049f610c40565b6040519081526020016103b2565b6104486104bb36600461238c565b610c4e565b3480156104cc57600080fd5b506011546103a69062010000900460ff1681565b3480156104ec57600080fd5b506104486104fb3660046123c8565b610de7565b61044861050e36600461231e565b610e1d565b34801561051f57600080fd5b5061049f60095481565b61044861053736600461231e565b610fd4565b34801561054857600080fd5b5061049f600a81565b34801561055d57600080fd5b5061049f601481565b34801561057257600080fd5b506011546103a6906301000000900460ff1681565b610448611173565b61044861059d36600461238c565b6112e5565b3480156105ae57600080fd5b506105c26105bd3660046123c8565b611305565b6040516103b291906123e3565b3480156105db57600080fd5b506104486105ea36600461249f565b6113e4565b3480156105fb57600080fd5b506011546103a690610100900460ff1681565b34801561061a57600080fd5b5061044861062936600461249f565b6113f8565b34801561063a57600080fd5b506103f061140c565b34801561064f57600080fd5b5060115461041d9064010000000090046001600160a01b031681565b34801561067757600080fd5b506011546103a69060ff1681565b6104486106933660046124d4565b61149a565b3480156106a457600080fd5b506104486106b3366004612509565b611645565b3480156106c457600080fd5b5061049f600c5481565b3480156106da57600080fd5b5061041d6106e936600461231e565b61166c565b3480156106fa57600080fd5b5061049f600b5481565b34801561071057600080fd5b5061049f61071f3660046123c8565b611677565b34801561073057600080fd5b506104486116c6565b34801561074557600080fd5b5061049f600d5481565b34801561075b57600080fd5b5061044861076a36600461231e565b6116da565b34801561077b57600080fd5b5061049f61078a3660046123c8565b60136020526000908152604090205481565b3480156107a857600080fd5b506104486107b7366004612371565b6116e7565b3480156107c857600080fd5b5061049f600a5481565b3480156107de57600080fd5b506104486107ed36600461231e565b61170d565b3480156107fe57600080fd5b506103f061171a565b34801561081357600080fd5b506000546001600160a01b031661041d565b34801561083157600080fd5b50610448610840366004612557565b611727565b34801561085157600080fd5b5061044861086036600461249f565b6117b0565b34801561087157600080fd5b506103f06117c4565b34801561088657600080fd5b50610448610895366004612583565b6117d3565b3480156108a657600080fd5b5061049f66038d7ea4c6800081565b3480156108c157600080fd5b506104486108d036600461231e565b61183f565b6104486108e33660046125ad565b61184c565b3480156108f457600080fd5b506103a66109033660046123c8565b60146020526000908152604090205460ff1681565b34801561092457600080fd5b5061044861093336600461231e565b611890565b34801561094457600080fd5b506103f061095336600461231e565b61189d565b34801561096457600080fd5b50610448610973366004612371565b6119e5565b34801561098457600080fd5b506103f0611a07565b34801561099957600080fd5b506103a66109a8366004612629565b611a16565b3480156109b957600080fd5b506104486109c8366004612371565b611a44565b3480156109d957600080fd5b506104486109e83660046123c8565b611a68565b3480156109f957600080fd5b506103f0611ae1565b6040516bffffffffffffffffffffffff19606085901b166020820152600090610a4890849084906034015b60405160208183030381529060405280519060200120611aee565b949350505050565b60006301ffc9a760e01b6001600160e01b031983161480610a8157506380ac58cd60e01b6001600160e01b03198316145b80610a9c5750635b5e139f60e01b6001600160e01b03198316145b92915050565b606060038054610ab190612653565b80601f0160208091040260200160405190810160405280929190818152602001828054610add90612653565b8015610b2a5780601f10610aff57610100808354040283529160200191610b2a565b820191906000526020600020905b815481529060010190602001808311610b0d57829003601f168201915b5050505050905090565b6000610b3f82611b04565b610b5c576040516333d1c03960e21b815260040160405180910390fd5b506000908152600760205260409020546001600160a01b031690565b6000610b838261166c565b9050336001600160a01b03821614610bbc57610b9f8133611a16565b610bbc576040516367d9dca160e11b815260040160405180910390fd5b60008281526007602052604080822080546001600160a01b0319166001600160a01b0387811691821790925591518593918516917f8c5be1e5ebec7d5bd14f71427d1e84f3dd0314c0f7b2291e5b200ac8c7c3b92591a4505050565b610c20611b39565b600b55565b610c2d611b39565b6011805460ff1916911515919091179055565b600254600154036000190190565b6000610c5982611b93565b9050836001600160a01b0316816001600160a01b031614610c8c5760405162a1148160e81b815260040160405180910390fd5b60008281526007602052604090208054338082146001600160a01b03881690911417610cd957610cbc8633611a16565b610cd957604051632ce44b5f60e11b815260040160405180910390fd5b6001600160a01b038516610d0057604051633a954ecd60e21b815260040160405180910390fd5b8015610d0b57600082555b6001600160a01b038681166000908152600660205260408082208054600019019055918716808252919020805460010190554260a01b17600160e11b17600085815260056020526040812091909155600160e11b84169003610d9d57600184016000818152600560205260408120549003610d9b576001548114610d9b5760008181526005602052604090208490555b505b83856001600160a01b0316876001600160a01b03167fddf252ad1be2c89b69c2b068fc378daa952ba7f163c4a11628f55a4df523b3ef60405160405180910390a45b505050505050565b610def611b39565b601180546001600160a01b0390921664010000000002640100000000600160c01b0319909216919091179055565b601154819060ff1615610e4b5760405162461bcd60e51b8152600401610e429061268d565b60405180910390fd5b601481610e56610c40565b610e6091906126cf565b1115610e7e5760405162461bcd60e51b8152600401610e42906126e2565b323314610e9d5760405162461bcd60e51b8152600401610e4290612711565b6011546301000000900460ff16610eed5760405162461bcd60e51b81526020600482015260146024820152735075626c69632073616c6520696e61637469766560601b6044820152606401610e42565b600a821115610f325760405162461bcd60e51b81526020600482015260116024820152700a2eac2dce8d2e8f240e8dede40d0d2ced607b1b6044820152606401610e42565b600c5433600090815260136020526040902054600a610f5185836126cf565b1115610f955760405162461bcd60e51b8152602060048201526013602482015272155cd95c881b585e081b5a5b9d081b1a5b5a5d606a1b6044820152606401610e42565b610fa7610fa2858461273e565b611c09565b610fb184826126cf565b33600081815260136020526040902091909155610fce9085611ce8565b50505050565b601154819060ff1615610ff95760405162461bcd60e51b8152600401610e429061268d565b601481611004610c40565b61100e91906126cf565b111561102c5760405162461bcd60e51b8152600401610e42906126e2565b32331461104b5760405162461bcd60e51b8152600401610e4290612711565b60115464010000000090046001600160a01b031633146110a15760405162461bcd60e51b81526020600482015260116024820152705465616d206d696e74696e67206f6e6c7960781b6044820152606401610e42565b600b5482600d546110b291906126cf565b11156110f55760405162461bcd60e51b8152602060048201526012602482015271139bc81d19585b481b5a5b9d1cc81b19599d60721b6044820152606401610e42565b60006110ff610c40565b101561114d5760405162461bcd60e51b815260206004820152601c60248201527f5465616d206d696e7473206166746572207075626c69632073616c65000000006044820152606401610e42565b81600d600082825461115f91906126cf565b9091555061116f90503383611ce8565b5050565b61117b611b39565b60125447906000907311c0a0ffb68a455a0d7da100803c1becf82b4ab590612710906111a7908561273e565b6111b1919061276b565b604051600081818185875af1925050503d80600081146111ed576040519150601f19603f3d011682016040523d82523d6000602084013e6111f2565b606091505b50509050806112395760405162461bcd60e51b815260206004820152601360248201527211195d881d1c985b9cd9995c8819985a5b1959606a1b6044820152606401610e42565b6011546040516401000000009091046001600160a01b0316904790600081818185875af1925050503d806000811461128d576040519150601f19603f3d011682016040523d82523d6000602084013e611292565b606091505b5050809150508061116f5760405162461bcd60e51b815260206004820181905260248201527f5465616d202872656d61696e696e6729207472616e73666572206661696c65646044820152606401610e42565b6113008383836040518060200160405280600081525061184c565b505050565b6060600061131283611677565b905060008167ffffffffffffffff81111561132f5761132f61216a565b604051908082528060200260200182016040528015611358578160200160208202803683370190505b509050600160005b8381108015611370575060148211155b156113da5760006113808361166c565b9050866001600160a01b0316816001600160a01b0316036113c757828483815181106113ae576113ae61277f565b6020908102919091010152816113c381612795565b9250505b826113d181612795565b93505050611360565b5090949350505050565b6113ec611b39565b600f61116f82826127f4565b611400611b39565b600e61116f82826127f4565b6010805461141990612653565b80601f016020809104026020016040519081016040528092919081815260200182805461144590612653565b80156114925780601f1061146757610100808354040283529160200191611492565b820191906000526020600020905b81548152906001019060200180831161147557829003601f168201915b505050505081565b60115460019060ff16156114c05760405162461bcd60e51b8152600401610e429061268d565b6014816114cb610c40565b6114d591906126cf565b11156114f35760405162461bcd60e51b8152600401610e42906126e2565b3233146115125760405162461bcd60e51b8152600401610e4290612711565b60115462010000900460ff1661156a5760405162461bcd60e51b815260206004820152601860248201527f616c6c6f77204c6973742073616c6520696e61637469766500000000000000006044820152606401610e42565b61157682600954611d02565b6115b35760405162461bcd60e51b815260206004820152600e60248201526d155cd95c881b9bdd081bdb8815d360921b6044820152606401610e42565b3360009081526014602052604090205466038d7ea4c680009060ff16156116155760405162461bcd60e51b8152602060048201526016602482015275155cd95c88185b1c9958591e481b5a5b9d19590815d360521b6044820152606401610e42565b61161e81611c09565b336000818152601460205260409020805460ff191660019081179091556113009190611ce8565b61164d611b39565b6011805461ff00191661010084151502179055600e61130082826127f4565b6000610a9c82611b93565b60006001600160a01b0382166116a0576040516323d3ad8160e21b815260040160405180910390fd5b506001600160a01b031660009081526006602052604090205467ffffffffffffffff1690565b6116ce611b39565b6116d86000611d30565b565b6116e2611b39565b600a55565b6116ef611b39565b6011805491151563010000000263ff00000019909216919091179055565b611715611b39565b600955565b600f805461141990612653565b61172f611b39565b601154829060ff16156117545760405162461bcd60e51b8152600401610e429061268d565b60148161175f610c40565b61176991906126cf565b11156117875760405162461bcd60e51b8152600401610e42906126e2565b3233146117a65760405162461bcd60e51b8152600401610e4290612711565b6113008284611ce8565b6117b8611b39565b601061116f82826127f4565b606060048054610ab190612653565b3360008181526008602090815260408083206001600160a01b03871680855290835292819020805460ff191686151590811790915590519081529192917f17307eab39ab6107e8899845ad3d59bd9653f200f220920489ca2b5937696c31910160405180910390a35050565b611847611b39565b601255565b611857848484610c4e565b6001600160a01b0383163b15610fce5761187384848484611d80565b610fce576040516368d2bf6b60e11b815260040160405180910390fd5b611898611b39565b600c55565b60606118a882611b04565b61190c5760405162461bcd60e51b815260206004820152602f60248201527f4552433732314d657461646174613a2055524920717565727920666f72206e6f60448201526e3732bc34b9ba32b73a103a37b5b2b760891b6064820152608401610e42565b601154610100900460ff161561194e57600e61192783611e6b565b6040516020016119389291906128b4565b6040516020818303038152906040529050919050565b600f805461195b90612653565b80601f016020809104026020016040519081016040528092919081815260200182805461198790612653565b80156119d45780601f106119a9576101008083540402835291602001916119d4565b820191906000526020600020905b8154815290600101906020018083116119b757829003601f168201915b50505050509050919050565b919050565b6119ed611b39565b601180549115156101000261ff0019909216919091179055565b606060108054610ab190612653565b6001600160a01b03918216600090815260086020908152604080832093909416825291909152205460ff1690565b611a4c611b39565b60118054911515620100000262ff000019909216919091179055565b611a70611b39565b6001600160a01b038116611ad55760405162461bcd60e51b815260206004820152602660248201527f4f776e61626c653a206e6577206f776e657220697320746865207a65726f206160448201526564647265737360d01b6064820152608401610e42565b611ade81611d30565b50565b600e805461141990612653565b600082611afb8584611f6c565b14949350505050565b600081600111158015611b18575060015482105b8015610a9c575050600090815260056020526040902054600160e01b161590565b6000546001600160a01b031633146116d85760405162461bcd60e51b815260206004820181905260248201527f4f776e61626c653a2063616c6c6572206973206e6f7420746865206f776e65726044820152606401610e42565b60008180600111611bf057600154811015611bf05760008181526005602052604081205490600160e01b82169003611bee575b80600003611be7575060001901600081815260056020526040902054611bc6565b9392505050565b505b604051636f96cda160e11b815260040160405180910390fd5b80341115611ca257600033611c1e833461294b565b604051600081818185875af1925050503d8060008114611c5a576040519150601f19603f3d011682016040523d82523d6000602084013e611c5f565b606091505b505090508061116f5760405162461bcd60e51b815260206004820152600f60248201526e151c985b9cd9995c8819985a5b1959608a1b6044820152606401610e42565b80341015611ade5760405162461bcd60e51b8152602060048201526013602482015272139bdd08195b9bdd59da08115512081cd95b9d606a1b6044820152606401610e42565b61116f828260405180602001604052806000815250611fb9565b6040516bffffffffffffffffffffffff193360601b166020820152600090611be79084908490603401610a2d565b600080546001600160a01b038381166001600160a01b0319831681178455604051919092169283917f8be0079c531659141344cd1fd0a4f28419497f9722a3daafe3b4186f6b6457e09190a35050565b604051630a85bd0160e11b81526000906001600160a01b0385169063150b7a0290611db590339089908890889060040161295e565b6020604051808303816000875af1925050508015611df0575060408051601f3d908101601f19168201909252611ded9181019061299b565b60015b611e4e573d808015611e1e576040519150601f19603f3d011682016040523d82523d6000602084013e611e23565b606091505b508051600003611e46576040516368d2bf6b60e11b815260040160405180910390fd5b805181602001fd5b6001600160e01b031916630a85bd0160e11b149050949350505050565b606081600003611e925750506040805180820190915260018152600360fc1b602082015290565b8160005b8115611ebc5780611ea681612795565b9150611eb59050600a8361276b565b9150611e96565b60008167ffffffffffffffff811115611ed757611ed761216a565b6040519080825280601f01601f191660200182016040528015611f01576020820181803683370190505b5090505b8415610a4857611f1660018361294b565b9150611f23600a866129b8565b611f2e9060306126cf565b60f81b818381518110611f4357611f4361277f565b60200101906001600160f81b031916908160001a905350611f65600a8661276b565b9450611f05565b600081815b8451811015611fb157611f9d82868381518110611f9057611f9061277f565b6020026020010151612026565b915080611fa981612795565b915050611f71565b509392505050565b611fc38383612055565b6001600160a01b0383163b15611300576001548281035b611fed6000868380600101945086611d80565b61200a576040516368d2bf6b60e11b815260040160405180910390fd5b818110611fda57816001541461201f57600080fd5b5050505050565b6000818310612042576000828152602084905260409020611be7565b6000838152602083905260409020611be7565b600154600082900361207a5760405163b562e8dd60e01b815260040160405180910390fd5b6001600160a01b03831660008181526006602090815260408083208054680100000000000000018802019055848352600590915281206001851460e11b4260a01b178317905582840190839083907fddf252ad1be2c89b69c2b068fc378daa952ba7f163c4a11628f55a4df523b3ef8180a4600183015b81811461212957808360007fddf252ad1be2c89b69c2b068fc378daa952ba7f163c4a11628f55a4df523b3ef600080a46001016120f1565b508160000361214a57604051622e076360e81b815260040160405180910390fd5b60015550505050565b80356001600160a01b03811681146119e057600080fd5b634e487b7160e01b600052604160045260246000fd5b604051601f8201601f1916810167ffffffffffffffff811182821017156121a9576121a961216a565b604052919050565b600082601f8301126121c257600080fd5b8135602067ffffffffffffffff8211156121de576121de61216a565b8160051b6121ed828201612180565b928352848101820192828101908785111561220757600080fd5b83870192505b848310156122265782358252918301919083019061220d565b979650505050505050565b60008060006060848603121561224657600080fd5b61224f84612153565b9250602084013567ffffffffffffffff81111561226b57600080fd5b612277868287016121b1565b925050604084013590509250925092565b6001600160e01b031981168114611ade57600080fd5b6000602082840312156122b057600080fd5b8135611be781612288565b60005b838110156122d65781810151838201526020016122be565b50506000910152565b600081518084526122f78160208601602086016122bb565b601f01601f19169290920160200192915050565b602081526000611be760208301846122df565b60006020828403121561233057600080fd5b5035919050565b6000806040838503121561234a57600080fd5b61235383612153565b946020939093013593505050565b803580151581146119e057600080fd5b60006020828403121561238357600080fd5b611be782612361565b6000806000606084860312156123a157600080fd5b6123aa84612153565b92506123b860208501612153565b9150604084013590509250925092565b6000602082840312156123da57600080fd5b611be782612153565b6020808252825182820181905260009190848201906040850190845b8181101561241b578351835292840192918401916001016123ff565b50909695505050505050565b600067ffffffffffffffff8311156124415761244161216a565b612454601f8401601f1916602001612180565b905082815283838301111561246857600080fd5b828260208301376000602084830101529392505050565b600082601f83011261249057600080fd5b611be783833560208501612427565b6000602082840312156124b157600080fd5b813567ffffffffffffffff8111156124c857600080fd5b610a488482850161247f565b6000602082840312156124e657600080fd5b813567ffffffffffffffff8111156124fd57600080fd5b610a48848285016121b1565b6000806040838503121561251c57600080fd5b61252583612361565b9150602083013567ffffffffffffffff81111561254157600080fd5b61254d8582860161247f565b9150509250929050565b6000806040838503121561256a57600080fd5b8235915061257a60208401612153565b90509250929050565b6000806040838503121561259657600080fd5b61259f83612153565b915061257a60208401612361565b600080600080608085870312156125c357600080fd5b6125cc85612153565b93506125da60208601612153565b925060408501359150606085013567ffffffffffffffff8111156125fd57600080fd5b8501601f8101871361260e57600080fd5b61261d87823560208401612427565b91505092959194509250565b6000806040838503121561263c57600080fd5b61264583612153565b915061257a60208401612153565b600181811c9082168061266757607f821691505b60208210810361268757634e487b7160e01b600052602260045260246000fd5b50919050565b60208082526012908201527110dbdb9d1c9858dd081a5cc81c185d5cd95960721b604082015260600190565b634e487b7160e01b600052601160045260246000fd5b80820180821115610a9c57610a9c6126b9565b602080825260159082015274139bdd08195b9bdd59da081b5a5b9d1cc81b19599d605a1b604082015260600190565b6020808252601390820152724e6f20636f6e7472616374206d696e74696e6760681b604082015260600190565b8082028115828204841417610a9c57610a9c6126b9565b634e487b7160e01b600052601260045260246000fd5b60008261277a5761277a612755565b500490565b634e487b7160e01b600052603260045260246000fd5b6000600182016127a7576127a76126b9565b5060010190565b601f82111561130057600081815260208120601f850160051c810160208610156127d55750805b601f850160051c820191505b81811015610ddf578281556001016127e1565b815167ffffffffffffffff81111561280e5761280e61216a565b6128228161281c8454612653565b846127ae565b602080601f831160018114612857576000841561283f5750858301515b600019600386901b1c1916600185901b178555610ddf565b600085815260208120601f198616915b8281101561288657888601518255948401946001909101908401612867565b50858210156128a45787850151600019600388901b60f8161c191681555b5050505050600190811b01905550565b60008084546128c281612653565b600182811680156128da57600181146128ef5761291e565b60ff198416875282151583028701945061291e565b8860005260208060002060005b858110156129155781548a8201529084019082016128fc565b50505082870194505b5050505083516129328183602088016122bb565b64173539b7b760d91b9101908152600501949350505050565b81810381811115610a9c57610a9c6126b9565b6001600160a01b0385811682528416602082015260408101839052608060608201819052600090612991908301846122df565b9695505050505050565b6000602082840312156129ad57600080fd5b8151611be781612288565b6000826129c7576129c7612755565b50069056fea2646970667358221220e80062ddf06878784522b4227e59171d6f19f5fa19d3ec8e8f95fa5c86270b0b64736f6c63430008110033697066733a2f2f516d647455377941795679343536447473574678376d4a3750543145676f6b52526b723859674659504254397962",
  "linkReferences": {},
  "deployedLinkReferences": {}
}