{
  "_format": "hh-sol-artifact-1",
  "contractName": "Patika",
  "sourceName": "contracts/Patika.sol",
  "abi": [
    {
      "inputs": [],
      "stateMutability": "nonpayable",
      "type": "constructor"
    },
    {
      "inputs": [],
      "name": "ApprovalCallerNotOwnerNorApproved",
      "type": "error"
    },
    {
      "inputs": [],
      "name": "ApprovalQueryForNonexistentToken",
      "type": "error"
    },
    {
      "inputs": [],
      "name": "BalanceQueryForZeroAddress",
      "type": "error"
    },
    {
      "inputs": [],
      "name": "MintERC2309QuantityExceedsLimit",
      "type": "error"
    },
    {
      "inputs": [],
      "name": "MintToZeroAddress",
      "type": "error"
    },
    {
      "inputs": [],
      "name": "MintZeroQuantity",
      "type": "error"
    },
    {
      "inputs": [],
      "name": "OwnerQueryForNonexistentToken",
      "type": "error"
    },
    {
      "inputs": [],
      "name": "OwnershipNotInitializedForExtraData",
      "type": "error"
    },
    {
      "inputs": [],
      "name": "TransferCallerNotOwnerNorApproved",
      "type": "error"
    },
    {
      "inputs": [],
      "name": "TransferFromIncorrectOwner",
      "type": "error"
    },
    {
      "inputs": [],
      "name": "TransferToNonERC721ReceiverImplementer",
      "type": "error"
    },
    {
      "inputs": [],
      "name": "TransferToZeroAddress",
      "type": "error"
    },
    {
      "inputs": [],
      "name": "URIQueryForNonexistentToken",
      "type": "error"
    },
    {
      "anonymous": false,
      "inputs": [
        {
          "indexed": true,
          "internalType": "address",
          "name": "owner",
          "type": "address"
        },
        {
          "indexed": true,
          "internalType": "address",
          "name": "approved",
          "type": "address"
        },
        {
          "indexed": true,
          "internalType": "uint256",
          "name": "tokenId",
          "type": "uint256"
        }
      ],
      "name": "Approval",
      "type": "event"
    },
    {
      "anonymous": false,
      "inputs": [
        {
          "indexed": true,
          "internalType": "address",
          "name": "owner",
          "type": "address"
        },
        {
          "indexed": true,
          "internalType": "address",
          "name": "operator",
          "type": "address"
        },
        {
          "indexed": false,
          "internalType": "bool",
          "name": "approved",
          "type": "bool"
        }
      ],
      "name": "ApprovalForAll",
      "type": "event"
    },
    {
      "anonymous": false,
      "inputs": [
        {
          "indexed": true,
          "internalType": "uint256",
          "name": "fromTokenId",
          "type": "uint256"
        },
        {
          "indexed": false,
          "internalType": "uint256",
          "name": "toTokenId",
          "type": "uint256"
        },
        {
          "indexed": true,
          "internalType": "address",
          "name": "from",
          "type": "address"
        },
        {
          "indexed": true,
          "internalType": "address",
          "name": "to",
          "type": "address"
        }
      ],
      "name": "ConsecutiveTransfer",
      "type": "event"
    },
    {
      "anonymous": false,
      "inputs": [
        {
          "indexed": true,
          "internalType": "address",
          "name": "previousOwner",
          "type": "address"
        },
        {
          "indexed": true,
          "internalType": "address",
          "name": "newOwner",
          "type": "address"
        }
      ],
      "name": "OwnershipTransferred",
      "type": "event"
    },
    {
      "anonymous": false,
      "inputs": [
        {
          "indexed": true,
          "internalType": "address",
          "name": "from",
          "type": "address"
        },
        {
          "indexed": true,
          "internalType": "address",
          "name": "to",
          "type": "address"
        },
        {
          "indexed": true,
          "internalType": "uint256",
          "name": "tokenId",
          "type": "uint256"
        }
      ],
      "name": "Transfer",
      "type": "event"
    },
    {
      "inputs": [],
      "name": "ALLOW_LIST_MAX",
      "outputs": [
        {
          "internalType": "uint256",
          "name": "",
          "type": "uint256"
        }
      ],
      "stateMutability": "view",
      "type": "function"
    },
    {
      "inputs": [],
      "name": "ALLOW_LIST_PRICE",
      "outputs": [
        {
          "internalType": "uint256",
          "name": "",
          "type": "uint256"
        }
      ],
      "stateMutability": "view",
      "type": "function"
    },
    {
      "inputs": [],
      "name": "CONTRACT_URI",
      "outputs": [
        {
          "internalType": "string",
          "name": "",
          "type": "string"
        }
      ],
      "stateMutability": "view",
      "type": "function"
    },
    {
      "inputs": [],
      "name": "MAX_SUPPLY",
      "outputs": [
        {
          "internalType": "uint256",
          "name": "",
          "type": "uint256"
        }
      ],
      "stateMutability": "view",
      "type": "function"
    },
    {
      "inputs": [],
      "name": "PUBLIC_MINT_LIMIT",
      "outputs": [
        {
          "internalType": "uint256",
          "name": "",
          "type": "uint256"
        }
      ],
      "stateMutability": "view",
      "type": "function"
    },
    {
      "inputs": [],
      "name": "PUBLIC_MINT_LIMIT_TXN",
      "outputs": [
        {
          "internalType": "uint256",
          "name": "",
          "type": "uint256"
        }
      ],
      "stateMutability": "view",
      "type": "function"
    },
    {
      "inputs": [],
      "name": "PUBLIC_PRICE",
      "outputs": [
        {
          "internalType": "uint256",
          "name": "",
          "type": "uint256"
        }
      ],
      "stateMutability": "view",
      "type": "function"
    },
    {
      "inputs": [],
      "name": "TEAM_MINT_MAX",
      "outputs": [
        {
          "internalType": "uint256",
          "name": "",
          "type": "uint256"
        }
      ],
      "stateMutability": "view",
      "type": "function"
    },
    {
      "inputs": [],
      "name": "TOTAL_SUPPLY_TEAM",
      "outputs": [
        {
          "internalType": "uint256",
          "name": "",
          "type": "uint256"
        }
      ],
      "stateMutability": "view",
      "type": "function"
    },
    {
      "inputs": [
        {
          "internalType": "bytes32[]",
          "name": "proof",
          "type": "bytes32[]"
        }
      ],
      "name": "allowListMint",
      "outputs": [],
      "stateMutability": "payable",
      "type": "function"
    },
    {
      "inputs": [],
      "name": "allowListSale",
      "outputs": [
        {
          "internalType": "bool",
          "name": "",
          "type": "bool"
        }
      ],
      "stateMutability": "view",
      "type": "function"
    },
    {
      "inputs": [
        {
          "internalType": "address",
          "name": "to",
          "type": "address"
        },
        {
          "internalType": "uint256",
          "name": "tokenId",
          "type": "uint256"
        }
      ],
      "name": "approve",
      "outputs": [],
      "stateMutability": "payable",
      "type": "function"
    },
    {
      "inputs": [
        {
          "internalType": "address",
          "name": "owner",
          "type": "address"
        }
      ],
      "name": "balanceOf",
      "outputs": [
        {
          "internalType": "uint256",
          "name": "",
          "type": "uint256"
        }
      ],
      "stateMutability": "view",
      "type": "function"
    },
    {
      "inputs": [],
      "name": "contractURI",
      "outputs": [
        {
          "internalType": "string",
          "name": "",
          "type": "string"
        }
      ],
      "stateMutability": "view",
      "type": "function"
    },
    {
      "inputs": [
        {
          "internalType": "uint256",
          "name": "tokenId",
          "type": "uint256"
        }
      ],
      "name": "getApproved",
      "outputs": [
        {
          "internalType": "address",
          "name": "",
          "type": "address"
        }
      ],
      "stateMutability": "view",
      "type": "function"
    },
    {
      "inputs": [],
      "name": "hiddenURI",
      "outputs": [
        {
          "internalType": "string",
          "name": "",
          "type": "string"
        }
      ],
      "stateMutability": "view",
      "type": "function"
    },
    {
      "inputs": [
        {
          "internalType": "address",
          "name": "owner",
          "type": "address"
        },
        {
          "internalType": "address",
          "name": "operator",
          "type": "address"
        }
      ],
      "name": "isApprovedForAll",
      "outputs": [
        {
          "internalType": "bool",
          "name": "",
          "type": "bool"
        }
      ],
      "stateMutability": "view",
      "type": "function"
    },
    {
      "inputs": [],
      "name": "merkleRoot",
      "outputs": [
        {
          "internalType": "bytes32",
          "name": "",
          "type": "bytes32"
        }
      ],
      "stateMutability": "view",
      "type": "function"
    },
    {
      "inputs": [
        {
          "internalType": "uint256",
          "name": "quantity",
          "type": "uint256"
        },
        {
          "internalType": "address",
          "name": "receiver",
          "type": "address"
        }
      ],
      "name": "mintToUser",
      "outputs": [],
      "stateMutability": "nonpayable",
      "type": "function"
    },
    {
      "inputs": [],
      "name": "name",
      "outputs": [
        {
          "internalType": "string",
          "name": "",
          "type": "string"
        }
      ],
      "stateMutability": "view",
      "type": "function"
    },
    {
      "inputs": [
        {
          "internalType": "address",
          "name": "",
          "type": "address"
        }
      ],
      "name": "numUserMints",
      "outputs": [
        {
          "internalType": "uint256",
          "name": "",
          "type": "uint256"
        }
      ],
      "stateMutability": "view",
      "type": "function"
    },
    {
      "inputs": [],
      "name": "owner",
      "outputs": [
        {
          "internalType": "address",
          "name": "",
          "type": "address"
        }
      ],
      "stateMutability": "view",
      "type": "function"
    },
    {
      "inputs": [
        {
          "internalType": "uint256",
          "name": "tokenId",
          "type": "uint256"
        }
      ],
      "name": "ownerOf",
      "outputs": [
        {
          "internalType": "address",
          "name": "",
          "type": "address"
        }
      ],
      "stateMutability": "view",
      "type": "function"
    },
    {
      "inputs": [],
      "name": "paused",
      "outputs": [
        {
          "internalType": "bool",
          "name": "",
          "type": "bool"
        }
      ],
      "stateMutability": "view",
      "type": "function"
    },
    {
      "inputs": [
        {
          "internalType": "uint256",
          "name": "quantity",
          "type": "uint256"
        }
      ],
      "name": "publicMint",
      "outputs": [],
      "stateMutability": "payable",
      "type": "function"
    },
    {
      "inputs": [],
      "name": "publicSale",
      "outputs": [
        {
          "internalType": "bool",
          "name": "",
          "type": "bool"
        }
      ],
      "stateMutability": "view",
      "type": "function"
    },
    {
      "inputs": [],
      "name": "renounceOwnership",
      "outputs": [],
      "stateMutability": "nonpayable",
      "type": "function"
    },
    {
      "inputs": [
        {
          "internalType": "bool",
          "name": "_revealed",
          "type": "bool"
        },
        {
          "internalType": "string",
          "name": "_baseUri",
          "type": "string"
        }
      ],
      "name": "revealCollection",
      "outputs": [],
      "stateMutability": "nonpayable",
      "type": "function"
    },
    {
      "inputs": [],
      "name": "revealed",
      "outputs": [
        {
          "internalType": "bool",
          "name": "",
          "type": "bool"
        }
      ],
      "stateMutability": "view",
      "type": "function"
    },
    {
      "inputs": [],
      "name": "revealedURI",
      "outputs": [
        {
          "internalType": "string",
          "name": "",
          "type": "string"
        }
      ],
      "stateMutability": "view",
      "type": "function"
    },
    {
      "inputs": [
        {
          "internalType": "address",
          "name": "from",
          "type": "address"
        },
        {
          "internalType": "address",
          "name": "to",
          "type": "address"
        },
        {
          "internalType": "uint256",
          "name": "tokenId",
          "type": "uint256"
        }
      ],
      "name": "safeTransferFrom",
      "outputs": [],
      "stateMutability": "payable",
      "type": "function"
    },
    {
      "inputs": [
        {
          "internalType": "address",
          "name": "from",
          "type": "address"
        },
        {
          "internalType": "address",
          "name": "to",
          "type": "address"
        },
        {
          "internalType": "uint256",
          "name": "tokenId",
          "type": "uint256"
        },
        {
          "internalType": "bytes",
          "name": "_data",
          "type": "bytes"
        }
      ],
      "name": "safeTransferFrom",
      "outputs": [],
      "stateMutability": "payable",
      "type": "function"
    },
    {
      "inputs": [
        {
          "internalType": "bool",
          "name": "_state",
          "type": "bool"
        }
      ],
      "name": "setAllowListEnabled",
      "outputs": [],
      "stateMutability": "nonpayable",
      "type": "function"
    },
    {
      "inputs": [
        {
          "internalType": "uint256",
          "name": "_allowListMax",
          "type": "uint256"
        }
      ],
      "name": "setAllowListMax",
      "outputs": [],
      "stateMutability": "nonpayable",
      "type": "function"
    },
    {
      "inputs": [
        {
          "internalType": "address",
          "name": "operator",
          "type": "address"
        },
        {
          "internalType": "bool",
          "name": "approved",
          "type": "bool"
        }
      ],
      "name": "setApprovalForAll",
      "outputs": [],
      "stateMutability": "nonpayable",
      "type": "function"
    },
    {
      "inputs": [
        {
          "internalType": "string",
          "name": "_baseUri",
          "type": "string"
        }
      ],
      "name": "setBaseURI",
      "outputs": [],
      "stateMutability": "nonpayable",
      "type": "function"
    },
    {
      "inputs": [
        {
          "internalType": "string",
          "name": "_contractURI",
          "type": "string"
        }
      ],
      "name": "setContractURI",
      "outputs": [],
      "stateMutability": "nonpayable",
      "type": "function"
    },
    {
      "inputs": [
        {
          "internalType": "uint256",
          "name": "_devPercentage",
          "type": "uint256"
        }
      ],
      "name": "setDevWithdrawCut",
      "outputs": [],
      "stateMutability": "nonpayable",
      "type": "function"
    },
    {
      "inputs": [
        {
          "internalType": "string",
          "name": "_hiddenMetadataUri",
          "type": "string"
        }
      ],
      "name": "setHiddenMetadataURI",
      "outputs": [],
      "stateMutability": "nonpayable",
      "type": "function"
    },
    {
      "inputs": [
        {
          "internalType": "bytes32",
          "name": "_merkleRoot",
          "type": "bytes32"
        }
      ],
      "name": "setMerkleRoot",
      "outputs": [],
      "stateMutability": "nonpayable",
      "type": "function"
    },
    {
      "inputs": [
        {
          "internalType": "bool",
          "name": "_state",
          "type": "bool"
        }
      ],
      "name": "setPaused",
      "outputs": [],
      "stateMutability": "nonpayable",
      "type": "function"
    },
    {
      "inputs": [
        {
          "internalType": "bool",
          "name": "_state",
          "type": "bool"
        }
      ],
      "name": "setPublicEnabled",
      "outputs": [],
      "stateMutability": "nonpayable",
      "type": "function"
    },
    {
      "inputs": [
        {
          "internalType": "uint256",
          "name": "_publicPrice",
          "type": "uint256"
        }
      ],
      "name": "setPublicPrice",
      "outputs": [],
      "stateMutability": "nonpayable",
      "type": "function"
    },
    {
      "inputs": [
        {
          "internalType": "bool",
          "name": "_state",
          "type": "bool"
        }
      ],
      "name": "setRevealed",
      "outputs": [],
      "stateMutability": "nonpayable",
      "type": "function"
    },
    {
      "inputs": [
        {
          "internalType": "uint256",
          "name": "_teamMintMax",
          "type": "uint256"
        }
      ],
      "name": "setTeamMintMax",
      "outputs": [],
      "stateMutability": "nonpayable",
      "type": "function"
    },
    {
      "inputs": [
        {
          "internalType": "address",
          "name": "_teamWallet",
          "type": "address"
        }
      ],
      "name": "setTeamWalletAddress",
      "outputs": [],
      "stateMutability": "nonpayable",
      "type": "function"
    },
    {
      "inputs": [
        {
          "internalType": "bytes4",
          "name": "interfaceId",
          "type": "bytes4"
        }
      ],
      "name": "supportsInterface",
      "outputs": [
        {
          "internalType": "bool",
          "name": "",
          "type": "bool"
        }
      ],
      "stateMutability": "view",
      "type": "function"
    },
    {
      "inputs": [],
      "name": "symbol",
      "outputs": [
        {
          "internalType": "string",
          "name": "",
          "type": "string"
        }
      ],
      "stateMutability": "view",
      "type": "function"
    },
    {
      "inputs": [
        {
          "internalType": "uint256",
          "name": "quantity",
          "type": "uint256"
        }
      ],
      "name": "teamMint",
      "outputs": [],
      "stateMutability": "payable",
      "type": "function"
    },
    {
      "inputs": [],
      "name": "teamWallet",
      "outputs": [
        {
          "internalType": "address",
          "name": "",
          "type": "address"
        }
      ],
      "stateMutability": "view",
      "type": "function"
    },
    {
      "inputs": [
        {
          "internalType": "uint256",
          "name": "_tokenId",
          "type": "uint256"
        }
      ],
      "name": "tokenURI",
      "outputs": [
        {
          "internalType": "string",
          "name": "",
          "type": "string"
        }
      ],
      "stateMutability": "view",
      "type": "function"
    },
    {
      "inputs": [],
      "name": "totalSupply",
      "outputs": [
        {
          "internalType": "uint256",
          "name": "",
          "type": "uint256"
        }
      ],
      "stateMutability": "view",
      "type": "function"
    },
    {
      "inputs": [
        {
          "internalType": "address",
          "name": "from",
          "type": "address"
        },
        {
          "internalType": "address",
          "name": "to",
          "type": "address"
        },
        {
          "internalType": "uint256",
          "name": "tokenId",
          "type": "uint256"
        }
      ],
      "name": "transferFrom",
      "outputs": [],
      "stateMutability": "payable",
      "type": "function"
    },
    {
      "inputs": [
        {
          "internalType": "address",
          "name": "newOwner",
          "type": "address"
        }
      ],
      "name": "transferOwnership",
      "outputs": [],
      "stateMutability": "nonpayable",
      "type": "function"
    },
    {
      "inputs": [
        {
          "internalType": "address",
          "name": "",
          "type": "address"
        }
      ],
      "name": "userMintedAllowList",
      "outputs": [
        {
          "internalType": "bool",
          "name": "",
          "type": "bool"
        }
      ],
      "stateMutability": "view",
      "type": "function"
    },
    {
      "inputs": [
        {
          "internalType": "address",
          "name": "_owner",
          "type": "address"
        }
      ],
      "name": "walletOfOwner",
      "outputs": [
        {
          "internalType": "uint256[]",
          "name": "",
          "type": "uint256[]"
        }
      ],
      "stateMutability": "view",
      "type": "function"
    },
    {
      "inputs": [],
      "name": "withdraw",
      "outputs": [],
      "stateMutability": "payable",
      "type": "function"
    }
  ],
  "bytecode": "0x7f18005ffd485d367fd31307e229607a9b05802e8b57c418d4c818a47152c02b836009556005600a819055600b5566038d7ea4c68000600c5560e0604052603560808181529062002c4960a039600f906200005b90826200023d565b5060405180606001604052806035815260200162002c49603591396010906200008590826200023d565b50601180546001600160c01b0319167715f01d94d5416dcc42081016fcd1669c5c0fed1100010001179055610fa0601255348015620000c357600080fd5b5060405180604001604052806006815260200165506174696b6160d01b8152506040518060400160405280600381526020016250544b60e81b81525062000119620001136200014460201b60201c565b62000148565b60036200012783826200023d565b5060046200013682826200023d565b505060006001555062000309565b3390565b600080546001600160a01b038381166001600160a01b0319831681178455604051919092169283917f8be0079c531659141344cd1fd0a4f28419497f9722a3daafe3b4186f6b6457e09190a35050565b634e487b7160e01b600052604160045260246000fd5b600181811c90821680620001c357607f821691505b602082108103620001e457634e487b7160e01b600052602260045260246000fd5b50919050565b601f8211156200023857600081815260208120601f850160051c81016020861015620002135750805b601f850160051c820191505b8181101562000234578281556001016200021f565b5050505b505050565b81516001600160401b0381111562000259576200025962000198565b62000271816200026a8454620001ae565b84620001ea565b602080601f831160018114620002a95760008415620002905750858301515b600019600386901b1c1916600185901b17855562000234565b600085815260208120601f198616915b82811015620002da57888601518255948401946001909101908401620002b9565b5085821015620002f95787850151600019600388901b60f8161c191681555b5050505050600190811b01905550565b61293080620003196000396000f3fe6080604052600436106103765760003560e01c80636352211e116101d157806395d89b4111610102578063c6275255116100a0578063e985e9c51161006f578063e985e9c514610962578063efeadb6d14610982578063f2fde38b146109a2578063f7e8d6ea146109c257600080fd5b8063c6275255146108ed578063c87b56dd1461090d578063e0a808531461092d578063e8a3d4851461094d57600080fd5b8063b06cfa64116100dc578063b06cfa641461088a578063b88d4fde146108aa578063bceae77b14610511578063c1189382146108bd57600080fd5b806395d89b411461083a578063a22cb4651461084f578063ad570dd51461086f57600080fd5b80637af3a1af1161016f5780638cc54e7f116101495780638cc54e7f146107c75780638da5cb5b146107dc5780639007bd72146107fa578063938e3d7b1461081a57600080fd5b80637af3a1af146107715780637c146efc146107915780637cb64759146107a757600080fd5b8063715018a6116101ab578063715018a6146106f9578063763ea95f1461070e5780637a8ffb32146107245780637aeb72421461074457600080fd5b80636352211e146106a35780636b39fca4146106c357806370a08231146106d957600080fd5b806332cb6b0c116102ab57806355f804b3116102495780635c975abb116102235780635c975abb146106405780635cfe6b841461065a5780635ed3e25e1461066d578063611f3f101461068d57600080fd5b806355f804b3146105e357806356b4f67314610603578063599270441461061857600080fd5b806342842e0e1161028557806342842e0e14610564578063438b630014610577578063512507c6146105a457806351830227146105c457600080fd5b806332cb6b0c1461052657806333bc1c5c1461053b5780633ccfd60b1461055c57600080fd5b806323b872dd116103185780632db11544116102f25780632db11544146104d55780632eb4a7ab146104e85780632fbba115146104fe5780632fecf20b1461051157600080fd5b806323b872dd14610482578063281905c8146104955780632c4b2334146104b557600080fd5b8063095ea7b311610354578063095ea7b31461040a5780630f15ad8d1461041f57806316c38b3c1461043f57806318160ddd1461045f57600080fd5b806301ffc9a71461037b57806306fdde03146103b0578063081812fc146103d2575b600080fd5b34801561038757600080fd5b5061039b6103963660046120fd565b6109d7565b60405190151581526020015b60405180910390f35b3480156103bc57600080fd5b506103c5610a29565b6040516103a7919061216a565b3480156103de57600080fd5b506103f26103ed36600461217d565b610abb565b6040516001600160a01b0390911681526020016103a7565b61041d6104183660046121ad565b610aff565b005b34801561042b57600080fd5b5061041d61043a36600461217d565b610b9f565b34801561044b57600080fd5b5061041d61045a3660046121e7565b610bac565b34801561046b57600080fd5b50600254600154035b6040519081526020016103a7565b61041d610490366004612202565b610bc7565b3480156104a157600080fd5b5060115461039b9062010000900460ff1681565b3480156104c157600080fd5b5061041d6104d036600461223e565b610d60565b61041d6104e336600461217d565b610d96565b3480156104f457600080fd5b5061047460095481565b61041d61050c36600461217d565b610f52565b34801561051d57600080fd5b50610474600a81565b34801561053257600080fd5b50610474601481565b34801561054757600080fd5b5060115461039b906301000000900460ff1681565b61041d6110fb565b61041d610572366004612202565b61126d565b34801561058357600080fd5b5061059761059236600461223e565b61128d565b6040516103a79190612259565b3480156105b057600080fd5b5061041d6105bf36600461235c565b61136c565b3480156105d057600080fd5b5060115461039b90610100900460ff1681565b3480156105ef57600080fd5b5061041d6105fe36600461235c565b611380565b34801561060f57600080fd5b506103c5611394565b34801561062457600080fd5b506011546103f29064010000000090046001600160a01b031681565b34801561064c57600080fd5b5060115461039b9060ff1681565b61041d610668366004612391565b611422565b34801561067957600080fd5b5061041d610688366004612437565b6115d2565b34801561069957600080fd5b50610474600c5481565b3480156106af57600080fd5b506103f26106be36600461217d565b6115f9565b3480156106cf57600080fd5b50610474600b5481565b3480156106e557600080fd5b506104746106f436600461223e565b611604565b34801561070557600080fd5b5061041d611653565b34801561071a57600080fd5b50610474600d5481565b34801561073057600080fd5b5061041d61073f36600461217d565b611667565b34801561075057600080fd5b5061047461075f36600461223e565b60136020526000908152604090205481565b34801561077d57600080fd5b5061041d61078c3660046121e7565b611674565b34801561079d57600080fd5b50610474600a5481565b3480156107b357600080fd5b5061041d6107c236600461217d565b61169a565b3480156107d357600080fd5b506103c56116a7565b3480156107e857600080fd5b506000546001600160a01b03166103f2565b34801561080657600080fd5b5061041d610815366004612485565b6116b4565b34801561082657600080fd5b5061041d61083536600461235c565b611742565b34801561084657600080fd5b506103c5611756565b34801561085b57600080fd5b5061041d61086a3660046124b1565b611765565b34801561087b57600080fd5b5061047466038d7ea4c6800081565b34801561089657600080fd5b5061041d6108a536600461217d565b6117d1565b61041d6108b83660046124db565b6117de565b3480156108c957600080fd5b5061039b6108d836600461223e565b60146020526000908152604090205460ff1681565b3480156108f957600080fd5b5061041d61090836600461217d565b611822565b34801561091957600080fd5b506103c561092836600461217d565b61182f565b34801561093957600080fd5b5061041d6109483660046121e7565b611977565b34801561095957600080fd5b506103c5611999565b34801561096e57600080fd5b5061039b61097d366004612557565b6119a8565b34801561098e57600080fd5b5061041d61099d3660046121e7565b6119d6565b3480156109ae57600080fd5b5061041d6109bd36600461223e565b6119fa565b3480156109ce57600080fd5b506103c5611a73565b60006301ffc9a760e01b6001600160e01b031983161480610a0857506380ac58cd60e01b6001600160e01b03198316145b80610a235750635b5e139f60e01b6001600160e01b03198316145b92915050565b606060038054610a3890612581565b80601f0160208091040260200160405190810160405280929190818152602001828054610a6490612581565b8015610ab15780601f10610a8657610100808354040283529160200191610ab1565b820191906000526020600020905b815481529060010190602001808311610a9457829003601f168201915b5050505050905090565b6000610ac682611a80565b610ae3576040516333d1c03960e21b815260040160405180910390fd5b506000908152600760205260409020546001600160a01b031690565b6000610b0a826115f9565b9050336001600160a01b03821614610b4357610b2681336119a8565b610b43576040516367d9dca160e11b815260040160405180910390fd5b60008281526007602052604080822080546001600160a01b0319166001600160a01b0387811691821790925591518593918516917f8c5be1e5ebec7d5bd14f71427d1e84f3dd0314c0f7b2291e5b200ac8c7c3b92591a4505050565b610ba7611aa8565b600b55565b610bb4611aa8565b6011805460ff1916911515919091179055565b6000610bd282611b02565b9050836001600160a01b0316816001600160a01b031614610c055760405162a1148160e81b815260040160405180910390fd5b60008281526007602052604090208054338082146001600160a01b03881690911417610c5257610c3586336119a8565b610c5257604051632ce44b5f60e11b815260040160405180910390fd5b6001600160a01b038516610c7957604051633a954ecd60e21b815260040160405180910390fd5b8015610c8457600082555b6001600160a01b038681166000908152600660205260408082208054600019019055918716808252919020805460010190554260a01b17600160e11b17600085815260056020526040812091909155600160e11b84169003610d1657600184016000818152600560205260408120549003610d14576001548114610d145760008181526005602052604090208490555b505b83856001600160a01b0316876001600160a01b03167fddf252ad1be2c89b69c2b068fc378daa952ba7f163c4a11628f55a4df523b3ef60405160405180910390a45b505050505050565b610d68611aa8565b601180546001600160a01b0390921664010000000002640100000000600160c01b0319909216919091179055565b601154819060ff1615610dc45760405162461bcd60e51b8152600401610dbb906125bb565b60405180910390fd5b601481610dd46002546001540390565b610dde91906125fd565b1115610dfc5760405162461bcd60e51b8152600401610dbb90612610565b323314610e1b5760405162461bcd60e51b8152600401610dbb9061263f565b6011546301000000900460ff16610e6b5760405162461bcd60e51b81526020600482015260146024820152735075626c69632073616c6520696e61637469766560601b6044820152606401610dbb565b600a821115610eb05760405162461bcd60e51b81526020600482015260116024820152700a2eac2dce8d2e8f240e8dede40d0d2ced607b1b6044820152606401610dbb565b600c5433600090815260136020526040902054600a610ecf85836125fd565b1115610f135760405162461bcd60e51b8152602060048201526013602482015272155cd95c881b585e081b5a5b9d081b1a5b5a5d606a1b6044820152606401610dbb565b610f25610f20858461266c565b611b70565b610f2f84826125fd565b33600081815260136020526040902091909155610f4c9085611c4f565b50505050565b601154819060ff1615610f775760405162461bcd60e51b8152600401610dbb906125bb565b601481610f876002546001540390565b610f9191906125fd565b1115610faf5760405162461bcd60e51b8152600401610dbb90612610565b323314610fce5760405162461bcd60e51b8152600401610dbb9061263f565b60115464010000000090046001600160a01b031633146110245760405162461bcd60e51b81526020600482015260116024820152705465616d206d696e74696e67206f6e6c7960781b6044820152606401610dbb565b600b5482600d5461103591906125fd565b11156110785760405162461bcd60e51b8152602060048201526012602482015271139bc81d19585b481b5a5b9d1cc81b19599d60721b6044820152606401610dbb565b60056110876002546001540390565b10156110d55760405162461bcd60e51b815260206004820152601c60248201527f5465616d206d696e7473206166746572207075626c69632073616c65000000006044820152606401610dbb565b81600d60008282546110e791906125fd565b909155506110f790503383611c4f565b5050565b611103611aa8565b60125447906000907311c0a0ffb68a455a0d7da100803c1becf82b4ab5906127109061112f908561266c565b6111399190612699565b604051600081818185875af1925050503d8060008114611175576040519150601f19603f3d011682016040523d82523d6000602084013e61117a565b606091505b50509050806111c15760405162461bcd60e51b815260206004820152601360248201527211195d881d1c985b9cd9995c8819985a5b1959606a1b6044820152606401610dbb565b6011546040516401000000009091046001600160a01b0316904790600081818185875af1925050503d8060008114611215576040519150601f19603f3d011682016040523d82523d6000602084013e61121a565b606091505b505080915050806110f75760405162461bcd60e51b815260206004820181905260248201527f5465616d202872656d61696e696e6729207472616e73666572206661696c65646044820152606401610dbb565b611288838383604051806020016040528060008152506117de565b505050565b6060600061129a83611604565b905060008167ffffffffffffffff8111156112b7576112b761229d565b6040519080825280602002602001820160405280156112e0578160200160208202803683370190505b509050600160005b83811080156112f8575060148211155b15611362576000611308836115f9565b9050866001600160a01b0316816001600160a01b03160361134f5782848381518110611336576113366126ad565b60209081029190910101528161134b816126c3565b9250505b82611359816126c3565b935050506112e8565b5090949350505050565b611374611aa8565b600f6110f78282612722565b611388611aa8565b600e6110f78282612722565b601080546113a190612581565b80601f01602080910402602001604051908101604052809291908181526020018280546113cd90612581565b801561141a5780601f106113ef5761010080835404028352916020019161141a565b820191906000526020600020905b8154815290600101906020018083116113fd57829003601f168201915b505050505081565b60115460019060ff16156114485760405162461bcd60e51b8152600401610dbb906125bb565b6014816114586002546001540390565b61146291906125fd565b11156114805760405162461bcd60e51b8152600401610dbb90612610565b32331461149f5760405162461bcd60e51b8152600401610dbb9061263f565b60115462010000900460ff166114f75760405162461bcd60e51b815260206004820152601860248201527f616c6c6f77204c6973742073616c6520696e61637469766500000000000000006044820152606401610dbb565b61150382600954611c69565b6115405760405162461bcd60e51b815260206004820152600e60248201526d155cd95c881b9bdd081bdb8815d360921b6044820152606401610dbb565b3360009081526014602052604090205466038d7ea4c680009060ff16156115a25760405162461bcd60e51b8152602060048201526016602482015275155cd95c88185b1c9958591e481b5a5b9d19590815d360521b6044820152606401610dbb565b6115ab81611b70565b336000818152601460205260409020805460ff191660019081179091556112889190611c4f565b6115da611aa8565b6011805461ff00191661010084151502179055600e6112888282612722565b6000610a2382611b02565b60006001600160a01b03821661162d576040516323d3ad8160e21b815260040160405180910390fd5b506001600160a01b031660009081526006602052604090205467ffffffffffffffff1690565b61165b611aa8565b6116656000611cad565b565b61166f611aa8565b600a55565b61167c611aa8565b6011805491151563010000000263ff00000019909216919091179055565b6116a2611aa8565b600955565b600f80546113a190612581565b6116bc611aa8565b601154829060ff16156116e15760405162461bcd60e51b8152600401610dbb906125bb565b6014816116f16002546001540390565b6116fb91906125fd565b11156117195760405162461bcd60e51b8152600401610dbb90612610565b3233146117385760405162461bcd60e51b8152600401610dbb9061263f565b6112888284611c4f565b61174a611aa8565b60106110f78282612722565b606060048054610a3890612581565b3360008181526008602090815260408083206001600160a01b03871680855290835292819020805460ff191686151590811790915590519081529192917f17307eab39ab6107e8899845ad3d59bd9653f200f220920489ca2b5937696c31910160405180910390a35050565b6117d9611aa8565b601255565b6117e9848484610bc7565b6001600160a01b0383163b15610f4c5761180584848484611cfd565b610f4c576040516368d2bf6b60e11b815260040160405180910390fd5b61182a611aa8565b600c55565b606061183a82611a80565b61189e5760405162461bcd60e51b815260206004820152602f60248201527f4552433732314d657461646174613a2055524920717565727920666f72206e6f60448201526e3732bc34b9ba32b73a103a37b5b2b760891b6064820152608401610dbb565b601154610100900460ff16156118e057600e6118b983611de9565b6040516020016118ca9291906127e2565b6040516020818303038152906040529050919050565b600f80546118ed90612581565b80601f016020809104026020016040519081016040528092919081815260200182805461191990612581565b80156119665780601f1061193b57610100808354040283529160200191611966565b820191906000526020600020905b81548152906001019060200180831161194957829003601f168201915b50505050509050919050565b919050565b61197f611aa8565b601180549115156101000261ff0019909216919091179055565b606060108054610a3890612581565b6001600160a01b03918216600090815260086020908152604080832093909416825291909152205460ff1690565b6119de611aa8565b60118054911515620100000262ff000019909216919091179055565b611a02611aa8565b6001600160a01b038116611a675760405162461bcd60e51b815260206004820152602660248201527f4f776e61626c653a206e6577206f776e657220697320746865207a65726f206160448201526564647265737360d01b6064820152608401610dbb565b611a7081611cad565b50565b600e80546113a190612581565b600060015482108015610a23575050600090815260056020526040902054600160e01b161590565b6000546001600160a01b031633146116655760405162461bcd60e51b815260206004820181905260248201527f4f776e61626c653a2063616c6c6572206973206e6f7420746865206f776e65726044820152606401610dbb565b600081600154811015611b575760008181526005602052604081205490600160e01b82169003611b55575b80600003611b4e575060001901600081815260056020526040902054611b2d565b9392505050565b505b604051636f96cda160e11b815260040160405180910390fd5b80341115611c0957600033611b858334612879565b604051600081818185875af1925050503d8060008114611bc1576040519150601f19603f3d011682016040523d82523d6000602084013e611bc6565b606091505b50509050806110f75760405162461bcd60e51b815260206004820152600f60248201526e151c985b9cd9995c8819985a5b1959608a1b6044820152606401610dbb565b80341015611a705760405162461bcd60e51b8152602060048201526013602482015272139bdd08195b9bdd59da08115512081cd95b9d606a1b6044820152606401610dbb565b6110f7828260405180602001604052806000815250611eea565b6040516bffffffffffffffffffffffff193360601b166020820152600090611b4e908490849060340160405160208183030381529060405280519060200120611f57565b600080546001600160a01b038381166001600160a01b0319831681178455604051919092169283917f8be0079c531659141344cd1fd0a4f28419497f9722a3daafe3b4186f6b6457e09190a35050565b604051630a85bd0160e11b81526000906001600160a01b0385169063150b7a0290611d3290339089908890889060040161288c565b6020604051808303816000875af1925050508015611d6d575060408051601f3d908101601f19168201909252611d6a918101906128c9565b60015b611dcb573d808015611d9b576040519150601f19603f3d011682016040523d82523d6000602084013e611da0565b606091505b508051600003611dc3576040516368d2bf6b60e11b815260040160405180910390fd5b805181602001fd5b6001600160e01b031916630a85bd0160e11b1490505b949350505050565b606081600003611e105750506040805180820190915260018152600360fc1b602082015290565b8160005b8115611e3a5780611e24816126c3565b9150611e339050600a83612699565b9150611e14565b60008167ffffffffffffffff811115611e5557611e5561229d565b6040519080825280601f01601f191660200182016040528015611e7f576020820181803683370190505b5090505b8415611de157611e94600183612879565b9150611ea1600a866128e6565b611eac9060306125fd565b60f81b818381518110611ec157611ec16126ad565b60200101906001600160f81b031916908160001a905350611ee3600a86612699565b9450611e83565b611ef48383611f6d565b6001600160a01b0383163b15611288576001548281035b611f1e6000868380600101945086611cfd565b611f3b576040516368d2bf6b60e11b815260040160405180910390fd5b818110611f0b578160015414611f5057600080fd5b5050505050565b600082611f64858461206b565b14949350505050565b6001546000829003611f925760405163b562e8dd60e01b815260040160405180910390fd5b6001600160a01b03831660008181526006602090815260408083208054680100000000000000018802019055848352600590915281206001851460e11b4260a01b178317905582840190839083907fddf252ad1be2c89b69c2b068fc378daa952ba7f163c4a11628f55a4df523b3ef8180a4600183015b81811461204157808360007fddf252ad1be2c89b69c2b068fc378daa952ba7f163c4a11628f55a4df523b3ef600080a4600101612009565b508160000361206257604051622e076360e81b815260040160405180910390fd5b60015550505050565b600081815b84518110156120b05761209c8286838151811061208f5761208f6126ad565b60200260200101516120b8565b9150806120a8816126c3565b915050612070565b509392505050565b60008183106120d4576000828152602084905260409020611b4e565b6000838152602083905260409020611b4e565b6001600160e01b031981168114611a7057600080fd5b60006020828403121561210f57600080fd5b8135611b4e816120e7565b60005b8381101561213557818101518382015260200161211d565b50506000910152565b6000815180845261215681602086016020860161211a565b601f01601f19169290920160200192915050565b602081526000611b4e602083018461213e565b60006020828403121561218f57600080fd5b5035919050565b80356001600160a01b038116811461197257600080fd5b600080604083850312156121c057600080fd5b6121c983612196565b946020939093013593505050565b8035801515811461197257600080fd5b6000602082840312156121f957600080fd5b611b4e826121d7565b60008060006060848603121561221757600080fd5b61222084612196565b925061222e60208501612196565b9150604084013590509250925092565b60006020828403121561225057600080fd5b611b4e82612196565b6020808252825182820181905260009190848201906040850190845b8181101561229157835183529284019291840191600101612275565b50909695505050505050565b634e487b7160e01b600052604160045260246000fd5b604051601f8201601f1916810167ffffffffffffffff811182821017156122dc576122dc61229d565b604052919050565b600067ffffffffffffffff8311156122fe576122fe61229d565b612311601f8401601f19166020016122b3565b905082815283838301111561232557600080fd5b828260208301376000602084830101529392505050565b600082601f83011261234d57600080fd5b611b4e838335602085016122e4565b60006020828403121561236e57600080fd5b813567ffffffffffffffff81111561238557600080fd5b611de18482850161233c565b600060208083850312156123a457600080fd5b823567ffffffffffffffff808211156123bc57600080fd5b818501915085601f8301126123d057600080fd5b8135818111156123e2576123e261229d565b8060051b91506123f38483016122b3565b818152918301840191848101908884111561240d57600080fd5b938501935b8385101561242b57843582529385019390850190612412565b98975050505050505050565b6000806040838503121561244a57600080fd5b612453836121d7565b9150602083013567ffffffffffffffff81111561246f57600080fd5b61247b8582860161233c565b9150509250929050565b6000806040838503121561249857600080fd5b823591506124a860208401612196565b90509250929050565b600080604083850312156124c457600080fd5b6124cd83612196565b91506124a8602084016121d7565b600080600080608085870312156124f157600080fd5b6124fa85612196565b935061250860208601612196565b925060408501359150606085013567ffffffffffffffff81111561252b57600080fd5b8501601f8101871361253c57600080fd5b61254b878235602084016122e4565b91505092959194509250565b6000806040838503121561256a57600080fd5b61257383612196565b91506124a860208401612196565b600181811c9082168061259557607f821691505b6020821081036125b557634e487b7160e01b600052602260045260246000fd5b50919050565b60208082526012908201527110dbdb9d1c9858dd081a5cc81c185d5cd95960721b604082015260600190565b634e487b7160e01b600052601160045260246000fd5b80820180821115610a2357610a236125e7565b602080825260159082015274139bdd08195b9bdd59da081b5a5b9d1cc81b19599d605a1b604082015260600190565b6020808252601390820152724e6f20636f6e7472616374206d696e74696e6760681b604082015260600190565b8082028115828204841417610a2357610a236125e7565b634e487b7160e01b600052601260045260246000fd5b6000826126a8576126a8612683565b500490565b634e487b7160e01b600052603260045260246000fd5b6000600182016126d5576126d56125e7565b5060010190565b601f82111561128857600081815260208120601f850160051c810160208610156127035750805b601f850160051c820191505b81811015610d585782815560010161270f565b815167ffffffffffffffff81111561273c5761273c61229d565b6127508161274a8454612581565b846126dc565b602080601f831160018114612785576000841561276d5750858301515b600019600386901b1c1916600185901b178555610d58565b600085815260208120601f198616915b828110156127b457888601518255948401946001909101908401612795565b50858210156127d25787850151600019600388901b60f8161c191681555b5050505050600190811b01905550565b60008084546127f081612581565b60018281168015612808576001811461281d5761284c565b60ff198416875282151583028701945061284c565b8860005260208060002060005b858110156128435781548a82015290840190820161282a565b50505082870194505b50505050835161286081836020880161211a565b64173539b7b760d91b9101908152600501949350505050565b81810381811115610a2357610a236125e7565b6001600160a01b03858116825284166020820152604081018390526080606082018190526000906128bf9083018461213e565b9695505050505050565b6000602082840312156128db57600080fd5b8151611b4e816120e7565b6000826128f5576128f5612683565b50069056fea264697066735822122044ca859d9f6c9526e91d398a4ad606666d8cbe96a2eb3329b25f030c53f5da8164736f6c63430008110033697066733a2f2f516d647455377941795679343536447473574678376d4a3750543145676f6b52526b723859674659504254397962",
  "linkReferences": {},
  "deployedLinkReferences": {}
}